{
  "contractName": "MiNFT",
  "abi": [
    {
      "inputs": [
        {
          "internalType": "string",
          "name": "_srcCourse",
          "type": "string"
        },
        {
          "internalType": "string",
          "name": "_destCourse",
          "type": "string"
        },
        {
          "internalType": "address",
          "name": "owner",
          "type": "address"
        }
      ],
      "stateMutability": "nonpayable",
      "type": "constructor"
    },
    {
      "inputs": [
        {
          "internalType": "address",
          "name": "sender",
          "type": "address"
        },
        {
          "internalType": "uint256",
          "name": "tokenId",
          "type": "uint256"
        },
        {
          "internalType": "address",
          "name": "owner",
          "type": "address"
        }
      ],
      "name": "ERC721IncorrectOwner",
      "type": "error"
    },
    {
      "inputs": [
        {
          "internalType": "address",
          "name": "operator",
          "type": "address"
        },
        {
          "internalType": "uint256",
          "name": "tokenId",
          "type": "uint256"
        }
      ],
      "name": "ERC721InsufficientApproval",
      "type": "error"
    },
    {
      "inputs": [
        {
          "internalType": "address",
          "name": "approver",
          "type": "address"
        }
      ],
      "name": "ERC721InvalidApprover",
      "type": "error"
    },
    {
      "inputs": [
        {
          "internalType": "address",
          "name": "operator",
          "type": "address"
        }
      ],
      "name": "ERC721InvalidOperator",
      "type": "error"
    },
    {
      "inputs": [
        {
          "internalType": "address",
          "name": "owner",
          "type": "address"
        }
      ],
      "name": "ERC721InvalidOwner",
      "type": "error"
    },
    {
      "inputs": [
        {
          "internalType": "address",
          "name": "receiver",
          "type": "address"
        }
      ],
      "name": "ERC721InvalidReceiver",
      "type": "error"
    },
    {
      "inputs": [
        {
          "internalType": "address",
          "name": "sender",
          "type": "address"
        }
      ],
      "name": "ERC721InvalidSender",
      "type": "error"
    },
    {
      "inputs": [
        {
          "internalType": "uint256",
          "name": "tokenId",
          "type": "uint256"
        }
      ],
      "name": "ERC721NonexistentToken",
      "type": "error"
    },
    {
      "inputs": [
        {
          "internalType": "address",
          "name": "owner",
          "type": "address"
        }
      ],
      "name": "OwnableInvalidOwner",
      "type": "error"
    },
    {
      "inputs": [
        {
          "internalType": "address",
          "name": "account",
          "type": "address"
        }
      ],
      "name": "OwnableUnauthorizedAccount",
      "type": "error"
    },
    {
      "anonymous": false,
      "inputs": [
        {
          "indexed": true,
          "internalType": "address",
          "name": "owner",
          "type": "address"
        },
        {
          "indexed": true,
          "internalType": "address",
          "name": "approved",
          "type": "address"
        },
        {
          "indexed": true,
          "internalType": "uint256",
          "name": "tokenId",
          "type": "uint256"
        }
      ],
      "name": "Approval",
      "type": "event"
    },
    {
      "anonymous": false,
      "inputs": [
        {
          "indexed": true,
          "internalType": "address",
          "name": "owner",
          "type": "address"
        },
        {
          "indexed": true,
          "internalType": "address",
          "name": "operator",
          "type": "address"
        },
        {
          "indexed": false,
          "internalType": "bool",
          "name": "approved",
          "type": "bool"
        }
      ],
      "name": "ApprovalForAll",
      "type": "event"
    },
    {
      "anonymous": false,
      "inputs": [
        {
          "indexed": true,
          "internalType": "address",
          "name": "previousOwner",
          "type": "address"
        },
        {
          "indexed": true,
          "internalType": "address",
          "name": "newOwner",
          "type": "address"
        }
      ],
      "name": "OwnershipTransferred",
      "type": "event"
    },
    {
      "anonymous": false,
      "inputs": [
        {
          "indexed": true,
          "internalType": "address",
          "name": "from",
          "type": "address"
        },
        {
          "indexed": true,
          "internalType": "address",
          "name": "to",
          "type": "address"
        },
        {
          "indexed": true,
          "internalType": "uint256",
          "name": "tokenId",
          "type": "uint256"
        }
      ],
      "name": "Transfer",
      "type": "event"
    },
    {
      "inputs": [
        {
          "internalType": "address",
          "name": "to",
          "type": "address"
        },
        {
          "internalType": "uint256",
          "name": "tokenId",
          "type": "uint256"
        }
      ],
      "name": "approve",
      "outputs": [],
      "stateMutability": "nonpayable",
      "type": "function"
    },
    {
      "inputs": [
        {
          "internalType": "address",
          "name": "owner",
          "type": "address"
        }
      ],
      "name": "balanceOf",
      "outputs": [
        {
          "internalType": "uint256",
          "name": "",
          "type": "uint256"
        }
      ],
      "stateMutability": "view",
      "type": "function"
    },
    {
      "inputs": [],
      "name": "dstCourse",
      "outputs": [
        {
          "internalType": "string",
          "name": "",
          "type": "string"
        }
      ],
      "stateMutability": "view",
      "type": "function"
    },
    {
      "inputs": [
        {
          "internalType": "uint256",
          "name": "tokenId",
          "type": "uint256"
        }
      ],
      "name": "getApproved",
      "outputs": [
        {
          "internalType": "address",
          "name": "",
          "type": "address"
        }
      ],
      "stateMutability": "view",
      "type": "function"
    },
    {
      "inputs": [
        {
          "internalType": "address",
          "name": "owner",
          "type": "address"
        },
        {
          "internalType": "address",
          "name": "operator",
          "type": "address"
        }
      ],
      "name": "isApprovedForAll",
      "outputs": [
        {
          "internalType": "bool",
          "name": "",
          "type": "bool"
        }
      ],
      "stateMutability": "view",
      "type": "function"
    },
    {
      "inputs": [],
      "name": "name",
      "outputs": [
        {
          "internalType": "string",
          "name": "",
          "type": "string"
        }
      ],
      "stateMutability": "view",
      "type": "function"
    },
    {
      "inputs": [],
      "name": "owner",
      "outputs": [
        {
          "internalType": "address",
          "name": "",
          "type": "address"
        }
      ],
      "stateMutability": "view",
      "type": "function"
    },
    {
      "inputs": [
        {
          "internalType": "uint256",
          "name": "tokenId",
          "type": "uint256"
        }
      ],
      "name": "ownerOf",
      "outputs": [
        {
          "internalType": "address",
          "name": "",
          "type": "address"
        }
      ],
      "stateMutability": "view",
      "type": "function"
    },
    {
      "inputs": [],
      "name": "renounceOwnership",
      "outputs": [],
      "stateMutability": "nonpayable",
      "type": "function"
    },
    {
      "inputs": [
        {
          "internalType": "address",
          "name": "from",
          "type": "address"
        },
        {
          "internalType": "address",
          "name": "to",
          "type": "address"
        },
        {
          "internalType": "uint256",
          "name": "tokenId",
          "type": "uint256"
        }
      ],
      "name": "safeTransferFrom",
      "outputs": [],
      "stateMutability": "nonpayable",
      "type": "function"
    },
    {
      "inputs": [
        {
          "internalType": "address",
          "name": "from",
          "type": "address"
        },
        {
          "internalType": "address",
          "name": "to",
          "type": "address"
        },
        {
          "internalType": "uint256",
          "name": "tokenId",
          "type": "uint256"
        },
        {
          "internalType": "bytes",
          "name": "data",
          "type": "bytes"
        }
      ],
      "name": "safeTransferFrom",
      "outputs": [],
      "stateMutability": "nonpayable",
      "type": "function"
    },
    {
      "inputs": [
        {
          "internalType": "address",
          "name": "operator",
          "type": "address"
        },
        {
          "internalType": "bool",
          "name": "approved",
          "type": "bool"
        }
      ],
      "name": "setApprovalForAll",
      "outputs": [],
      "stateMutability": "nonpayable",
      "type": "function"
    },
    {
      "inputs": [],
      "name": "srcCourse",
      "outputs": [
        {
          "internalType": "string",
          "name": "",
          "type": "string"
        }
      ],
      "stateMutability": "view",
      "type": "function"
    },
    {
      "inputs": [
        {
          "internalType": "bytes4",
          "name": "interfaceId",
          "type": "bytes4"
        }
      ],
      "name": "supportsInterface",
      "outputs": [
        {
          "internalType": "bool",
          "name": "",
          "type": "bool"
        }
      ],
      "stateMutability": "view",
      "type": "function"
    },
    {
      "inputs": [],
      "name": "symbol",
      "outputs": [
        {
          "internalType": "string",
          "name": "",
          "type": "string"
        }
      ],
      "stateMutability": "view",
      "type": "function"
    },
    {
      "inputs": [
        {
          "internalType": "uint256",
          "name": "tokenId",
          "type": "uint256"
        }
      ],
      "name": "tokenURI",
      "outputs": [
        {
          "internalType": "string",
          "name": "",
          "type": "string"
        }
      ],
      "stateMutability": "view",
      "type": "function"
    },
    {
      "inputs": [
        {
          "internalType": "address",
          "name": "from",
          "type": "address"
        },
        {
          "internalType": "address",
          "name": "to",
          "type": "address"
        },
        {
          "internalType": "uint256",
          "name": "tokenId",
          "type": "uint256"
        }
      ],
      "name": "transferFrom",
      "outputs": [],
      "stateMutability": "nonpayable",
      "type": "function"
    },
    {
      "inputs": [
        {
          "internalType": "address",
          "name": "newOwner",
          "type": "address"
        }
      ],
      "name": "transferOwnership",
      "outputs": [],
      "stateMutability": "nonpayable",
      "type": "function"
    },
    {
      "inputs": [
        {
          "internalType": "address",
          "name": "to",
          "type": "address"
        }
      ],
      "name": "mintNFT",
      "outputs": [],
      "stateMutability": "nonpayable",
      "type": "function"
    },
    {
      "inputs": [
        {
          "internalType": "uint8",
          "name": "_month",
          "type": "uint8"
        },
        {
          "internalType": "uint16",
          "name": "_year",
          "type": "uint16"
        }
      ],
      "name": "setValidityPeriod",
      "outputs": [],
      "stateMutability": "nonpayable",
      "type": "function"
    },
    {
      "inputs": [],
      "name": "getDate",
      "outputs": [
        {
          "internalType": "uint8",
          "name": "",
          "type": "uint8"
        },
        {
          "internalType": "uint16",
          "name": "",
          "type": "uint16"
        }
      ],
      "stateMutability": "view",
      "type": "function"
    }
  ],
  "bytecode": "0x60806040523480156200001157600080fd5b5060405162002e4138038062002e4183398181016040528101906200003791906200044d565b336040518060400160405280600581526020017f4d694e46540000000000000000000000000000000000000000000000000000008152506040518060400160405280600481526020017f4d4e4654000000000000000000000000000000000000000000000000000000008152508160009081620000b5919062000732565b508060019081620000c7919062000732565b505050600073ffffffffffffffffffffffffffffffffffffffff168173ffffffffffffffffffffffffffffffffffffffff16036200013f5760006040517f1e4fbdf70000000000000000000000000000000000000000000000000000000081526004016200013691906200082a565b60405180910390fd5b62000150816200018f60201b60201c565b50826008908162000162919062000732565b50816009908162000174919062000732565b5062000186816200018f60201b60201c565b50505062000847565b6000600660009054906101000a900473ffffffffffffffffffffffffffffffffffffffff16905081600660006101000a81548173ffffffffffffffffffffffffffffffffffffffff021916908373ffffffffffffffffffffffffffffffffffffffff1602179055508173ffffffffffffffffffffffffffffffffffffffff168173ffffffffffffffffffffffffffffffffffffffff167f8be0079c531659141344cd1fd0a4f28419497f9722a3daafe3b4186f6b6457e060405160405180910390a35050565b6000604051905090565b600080fd5b600080fd5b600080fd5b600080fd5b6000601f19601f8301169050919050565b7f4e487b7100000000000000000000000000000000000000000000000000000000600052604160045260246000fd5b620002be8262000273565b810181811067ffffffffffffffff82111715620002e057620002df62000284565b5b80604052505050565b6000620002f562000255565b9050620003038282620002b3565b919050565b600067ffffffffffffffff82111562000326576200032562000284565b5b620003318262000273565b9050602081019050919050565b60005b838110156200035e57808201518184015260208101905062000341565b60008484015250505050565b6000620003816200037b8462000308565b620002e9565b905082815260208101848484011115620003a0576200039f6200026e565b5b620003ad8482856200033e565b509392505050565b600082601f830112620003cd57620003cc62000269565b5b8151620003df8482602086016200036a565b91505092915050565b600073ffffffffffffffffffffffffffffffffffffffff82169050919050565b60006200041582620003e8565b9050919050565b620004278162000408565b81146200043357600080fd5b50565b60008151905062000447816200041c565b92915050565b6000806000606084860312156200046957620004686200025f565b5b600084015167ffffffffffffffff8111156200048a576200048962000264565b5b6200049886828701620003b5565b935050602084015167ffffffffffffffff811115620004bc57620004bb62000264565b5b620004ca86828701620003b5565b9250506040620004dd8682870162000436565b9150509250925092565b600081519050919050565b7f4e487b7100000000000000000000000000000000000000000000000000000000600052602260045260246000fd5b600060028204905060018216806200053a57607f821691505b60208210810362000550576200054f620004f2565b5b50919050565b60008190508160005260206000209050919050565b60006020601f8301049050919050565b600082821b905092915050565b600060088302620005ba7fffffffffffffffffffffffffffffffffffffffffffffffffffffffffffffffff826200057b565b620005c686836200057b565b95508019841693508086168417925050509392505050565b6000819050919050565b6000819050919050565b6000620006136200060d6200060784620005de565b620005e8565b620005de565b9050919050565b6000819050919050565b6200062f83620005f2565b620006476200063e826200061a565b84845462000588565b825550505050565b600090565b6200065e6200064f565b6200066b81848462000624565b505050565b5b8181101562000693576200068760008262000654565b60018101905062000671565b5050565b601f821115620006e257620006ac8162000556565b620006b7846200056b565b81016020851015620006c7578190505b620006df620006d6856200056b565b83018262000670565b50505b505050565b600082821c905092915050565b60006200070760001984600802620006e7565b1980831691505092915050565b6000620007228383620006f4565b9150826002028217905092915050565b6200073d82620004e7565b67ffffffffffffffff81111562000759576200075862000284565b5b62000765825462000521565b6200077282828562000697565b600060209050601f831160018114620007aa576000841562000795578287015190505b620007a1858262000714565b86555062000811565b601f198416620007ba8662000556565b60005b82811015620007e457848901518255600182019150602085019450602081019050620007bd565b8683101562000804578489015162000800601f891682620006f4565b8355505b6001600288020188555050505b505050505050565b620008248162000408565b82525050565b600060208201905062000841600083018462000819565b92915050565b6125ea80620008576000396000f3fe608060405234801561001057600080fd5b50600436106101375760003560e01c806370a08231116100b8578063a22cb4651161007c578063a22cb46514610329578063b88d4fde14610345578063c87b56dd14610361578063cc59560114610391578063e985e9c5146103af578063f2fde38b146103df57610137565b806370a0823114610297578063715018a6146102c757806376a58b2a146102d15780638da5cb5b146102ed57806395d89b411461030b57610137565b806323b872dd116100ff57806323b872dd146101f457806342842e0e14610210578063430fe9c11461022c57806354ba0f271461024b5780636352211e1461026757610137565b806301ffc9a71461013c578063063377211461016c57806306fdde031461018a578063081812fc146101a8578063095ea7b3146101d8575b600080fd5b61015660048036038101906101519190611beb565b6103fb565b6040516101639190611c33565b60405180910390f35b6101746104dd565b6040516101819190611cde565b60405180910390f35b61019261056b565b60405161019f9190611cde565b60405180910390f35b6101c260048036038101906101bd9190611d36565b6105fd565b6040516101cf9190611da4565b60405180910390f35b6101f260048036038101906101ed9190611deb565b610619565b005b61020e60048036038101906102099190611e2b565b61062f565b005b61022a60048036038101906102259190611e2b565b610731565b005b610234610751565b604051610242929190611eb7565b60405180910390f35b61026560048036038101906102609190611ee0565b610783565b005b610281600480360381019061027c9190611d36565b6107b2565b60405161028e9190611da4565b60405180910390f35b6102b160048036038101906102ac9190611ee0565b6107c4565b6040516102be9190611f1c565b60405180910390f35b6102cf61087e565b005b6102eb60048036038101906102e69190611f8f565b610892565b005b6102f56109ad565b6040516103029190611da4565b60405180910390f35b6103136109d7565b6040516103209190611cde565b60405180910390f35b610343600480360381019061033e9190611ffb565b610a69565b005b61035f600480360381019061035a9190612170565b610a7f565b005b61037b60048036038101906103769190611d36565b610aa4565b6040516103889190611cde565b60405180910390f35b610399610b0d565b6040516103a69190611cde565b60405180910390f35b6103c960048036038101906103c491906121f3565b610b9b565b6040516103d69190611c33565b60405180910390f35b6103f960048036038101906103f49190611ee0565b610c2f565b005b60007f80ac58cd000000000000000000000000000000000000000000000000000000007bffffffffffffffffffffffffffffffffffffffffffffffffffffffff1916827bffffffffffffffffffffffffffffffffffffffffffffffffffffffff191614806104c657507f5b5e139f000000000000000000000000000000000000000000000000000000007bffffffffffffffffffffffffffffffffffffffffffffffffffffffff1916827bffffffffffffffffffffffffffffffffffffffffffffffffffffffff1916145b806104d657506104d582610cb5565b5b9050919050565b600980546104ea90612262565b80601f016020809104026020016040519081016040528092919081815260200182805461051690612262565b80156105635780601f1061053857610100808354040283529160200191610563565b820191906000526020600020905b81548152906001019060200180831161054657829003601f168201915b505050505081565b60606000805461057a90612262565b80601f01602080910402602001604051908101604052809291908181526020018280546105a690612262565b80156105f35780601f106105c8576101008083540402835291602001916105f3565b820191906000526020600020905b8154815290600101906020018083116105d657829003601f168201915b5050505050905090565b600061060882610d1f565b5061061282610da7565b9050919050565b61062b8282610626610de4565b610dec565b5050565b600073ffffffffffffffffffffffffffffffffffffffff168273ffffffffffffffffffffffffffffffffffffffff16036106a15760006040517f64a0ae920000000000000000000000000000000000000000000000000000000081526004016106989190611da4565b60405180910390fd5b60006106b583836106b0610de4565b610dfe565b90508373ffffffffffffffffffffffffffffffffffffffff168173ffffffffffffffffffffffffffffffffffffffff161461072b578382826040517f64283d7b00000000000000000000000000000000000000000000000000000000815260040161072293929190612293565b60405180910390fd5b50505050565b61074c83838360405180602001604052806000815250610a7f565b505050565b600080600a60000160009054906101000a900460ff16600a60000160019054906101000a900461ffff16915091509091565b61078b611018565b6007600081548092919061079e906122f9565b91905055506107af8160075461109f565b50565b60006107bd82610d1f565b9050919050565b60008073ffffffffffffffffffffffffffffffffffffffff168273ffffffffffffffffffffffffffffffffffffffff16036108375760006040517f89c62b6400000000000000000000000000000000000000000000000000000000815260040161082e9190611da4565b60405180910390fd5b600360008373ffffffffffffffffffffffffffffffffffffffff1673ffffffffffffffffffffffffffffffffffffffff168152602001908152602001600020549050919050565b610886611018565b61089060006110bd565b565b60018260ff16101580156108aa5750600c8260ff1611155b6108e9576040517f08c379a00000000000000000000000000000000000000000000000000000000081526004016108e09061238d565b60405180910390fd5b61076c8161ffff161015801561090557506108348161ffff1611155b610944576040517f08c379a000000000000000000000000000000000000000000000000000000000815260040161093b906123f9565b60405180910390fd5b60405180604001604052808360ff1681526020018261ffff16815250600a60008201518160000160006101000a81548160ff021916908360ff16021790555060208201518160000160016101000a81548161ffff021916908361ffff1602179055509050505050565b6000600660009054906101000a900473ffffffffffffffffffffffffffffffffffffffff16905090565b6060600180546109e690612262565b80601f0160208091040260200160405190810160405280929190818152602001828054610a1290612262565b8015610a5f5780601f10610a3457610100808354040283529160200191610a5f565b820191906000526020600020905b815481529060010190602001808311610a4257829003601f168201915b5050505050905090565b610a7b610a74610de4565b8383611183565b5050565b610a8a84848461062f565b610a9e610a95610de4565b858585856112f2565b50505050565b6060610aaf82610d1f565b506000610aba6114a3565b90506000815111610ada5760405180602001604052806000815250610b05565b80610ae4846114ba565b604051602001610af5929190612455565b6040516020818303038152906040525b915050919050565b60088054610b1a90612262565b80601f0160208091040260200160405190810160405280929190818152602001828054610b4690612262565b8015610b935780601f10610b6857610100808354040283529160200191610b93565b820191906000526020600020905b815481529060010190602001808311610b7657829003601f168201915b505050505081565b6000600560008473ffffffffffffffffffffffffffffffffffffffff1673ffffffffffffffffffffffffffffffffffffffff16815260200190815260200160002060008373ffffffffffffffffffffffffffffffffffffffff1673ffffffffffffffffffffffffffffffffffffffff16815260200190815260200160002060009054906101000a900460ff16905092915050565b610c37611018565b600073ffffffffffffffffffffffffffffffffffffffff168173ffffffffffffffffffffffffffffffffffffffff1603610ca95760006040517f1e4fbdf7000000000000000000000000000000000000000000000000000000008152600401610ca09190611da4565b60405180910390fd5b610cb2816110bd565b50565b60007f01ffc9a7000000000000000000000000000000000000000000000000000000007bffffffffffffffffffffffffffffffffffffffffffffffffffffffff1916827bffffffffffffffffffffffffffffffffffffffffffffffffffffffff1916149050919050565b600080610d2b83611588565b9050600073ffffffffffffffffffffffffffffffffffffffff168173ffffffffffffffffffffffffffffffffffffffff1603610d9e57826040517f7e273289000000000000000000000000000000000000000000000000000000008152600401610d959190611f1c565b60405180910390fd5b80915050919050565b60006004600083815260200190815260200160002060009054906101000a900473ffffffffffffffffffffffffffffffffffffffff169050919050565b600033905090565b610df983838360016115c5565b505050565b600080610e0a84611588565b9050600073ffffffffffffffffffffffffffffffffffffffff168373ffffffffffffffffffffffffffffffffffffffff1614610e4c57610e4b81848661178a565b5b600073ffffffffffffffffffffffffffffffffffffffff168173ffffffffffffffffffffffffffffffffffffffff1614610edd57610e8e6000856000806115c5565b6001600360008373ffffffffffffffffffffffffffffffffffffffff1673ffffffffffffffffffffffffffffffffffffffff168152602001908152602001600020600082825403925050819055505b600073ffffffffffffffffffffffffffffffffffffffff168573ffffffffffffffffffffffffffffffffffffffff1614610f60576001600360008773ffffffffffffffffffffffffffffffffffffffff1673ffffffffffffffffffffffffffffffffffffffff168152602001908152602001600020600082825401925050819055505b846002600086815260200190815260200160002060006101000a81548173ffffffffffffffffffffffffffffffffffffffff021916908373ffffffffffffffffffffffffffffffffffffffff160217905550838573ffffffffffffffffffffffffffffffffffffffff168273ffffffffffffffffffffffffffffffffffffffff167fddf252ad1be2c89b69c2b068fc378daa952ba7f163c4a11628f55a4df523b3ef60405160405180910390a4809150509392505050565b611020610de4565b73ffffffffffffffffffffffffffffffffffffffff1661103e6109ad565b73ffffffffffffffffffffffffffffffffffffffff161461109d57611061610de4565b6040517f118cdaa70000000000000000000000000000000000000000000000000000000081526004016110949190611da4565b60405180910390fd5b565b6110b982826040518060200160405280600081525061184e565b5050565b6000600660009054906101000a900473ffffffffffffffffffffffffffffffffffffffff16905081600660006101000a81548173ffffffffffffffffffffffffffffffffffffffff021916908373ffffffffffffffffffffffffffffffffffffffff1602179055508173ffffffffffffffffffffffffffffffffffffffff168173ffffffffffffffffffffffffffffffffffffffff167f8be0079c531659141344cd1fd0a4f28419497f9722a3daafe3b4186f6b6457e060405160405180910390a35050565b600073ffffffffffffffffffffffffffffffffffffffff168273ffffffffffffffffffffffffffffffffffffffff16036111f457816040517f5b08ba180000000000000000000000000000000000000000000000000000000081526004016111eb9190611da4565b60405180910390fd5b80600560008573ffffffffffffffffffffffffffffffffffffffff1673ffffffffffffffffffffffffffffffffffffffff16815260200190815260200160002060008473ffffffffffffffffffffffffffffffffffffffff1673ffffffffffffffffffffffffffffffffffffffff16815260200190815260200160002060006101000a81548160ff0219169083151502179055508173ffffffffffffffffffffffffffffffffffffffff168373ffffffffffffffffffffffffffffffffffffffff167f17307eab39ab6107e8899845ad3d59bd9653f200f220920489ca2b5937696c31836040516112e59190611c33565b60405180910390a3505050565b60008373ffffffffffffffffffffffffffffffffffffffff163b111561149c578273ffffffffffffffffffffffffffffffffffffffff1663150b7a02868685856040518563ffffffff1660e01b815260040161135194939291906124ce565b6020604051808303816000875af192505050801561138d57506040513d601f19601f8201168201806040525081019061138a919061252f565b60015b611411573d80600081146113bd576040519150601f19603f3d011682016040523d82523d6000602084013e6113c2565b606091505b50600081510361140957836040517f64a0ae920000000000000000000000000000000000000000000000000000000081526004016114009190611da4565b60405180910390fd5b805181602001fd5b63150b7a0260e01b7bffffffffffffffffffffffffffffffffffffffffffffffffffffffff1916817bffffffffffffffffffffffffffffffffffffffffffffffffffffffff19161461149a57836040517f64a0ae920000000000000000000000000000000000000000000000000000000081526004016114919190611da4565b60405180910390fd5b505b5050505050565b606060405180602001604052806000815250905090565b6060600060016114c984611872565b01905060008167ffffffffffffffff8111156114e8576114e7612045565b5b6040519080825280601f01601f19166020018201604052801561151a5781602001600182028036833780820191505090505b509050600082602001820190505b60011561157d578080600190039150507f3031323334353637383961626364656600000000000000000000000000000000600a86061a8153600a85816115715761157061255c565b5b04945060008503611528575b819350505050919050565b60006002600083815260200190815260200160002060009054906101000a900473ffffffffffffffffffffffffffffffffffffffff169050919050565b80806115fe5750600073ffffffffffffffffffffffffffffffffffffffff168273ffffffffffffffffffffffffffffffffffffffff1614155b1561173257600061160e84610d1f565b9050600073ffffffffffffffffffffffffffffffffffffffff168373ffffffffffffffffffffffffffffffffffffffff161415801561167957508273ffffffffffffffffffffffffffffffffffffffff168173ffffffffffffffffffffffffffffffffffffffff1614155b801561168c575061168a8184610b9b565b155b156116ce57826040517fa9fbf51f0000000000000000000000000000000000000000000000000000000081526004016116c59190611da4565b60405180910390fd5b811561173057838573ffffffffffffffffffffffffffffffffffffffff168273ffffffffffffffffffffffffffffffffffffffff167f8c5be1e5ebec7d5bd14f71427d1e84f3dd0314c0f7b2291e5b200ac8c7c3b92560405160405180910390a45b505b836004600085815260200190815260200160002060006101000a81548173ffffffffffffffffffffffffffffffffffffffff021916908373ffffffffffffffffffffffffffffffffffffffff16021790555050505050565b6117958383836119c5565b61184957600073ffffffffffffffffffffffffffffffffffffffff168373ffffffffffffffffffffffffffffffffffffffff160361180a57806040517f7e2732890000000000000000000000000000000000000000000000000000000081526004016118019190611f1c565b60405180910390fd5b81816040517f177e802f00000000000000000000000000000000000000000000000000000000815260040161184092919061258b565b60405180910390fd5b505050565b6118588383611a86565b61186d611863610de4565b60008585856112f2565b505050565b600080600090507a184f03e93ff9f4daa797ed6e38ed64bf6a1f01000000000000000083106118d0577a184f03e93ff9f4daa797ed6e38ed64bf6a1f01000000000000000083816118c6576118c561255c565b5b0492506040810190505b6d04ee2d6d415b85acef8100000000831061190d576d04ee2d6d415b85acef810000000083816119035761190261255c565b5b0492506020810190505b662386f26fc10000831061193c57662386f26fc1000083816119325761193161255c565b5b0492506010810190505b6305f5e1008310611965576305f5e100838161195b5761195a61255c565b5b0492506008810190505b612710831061198a5761271083816119805761197f61255c565b5b0492506004810190505b606483106119ad57606483816119a3576119a261255c565b5b0492506002810190505b600a83106119bc576001810190505b80915050919050565b60008073ffffffffffffffffffffffffffffffffffffffff168373ffffffffffffffffffffffffffffffffffffffff1614158015611a7d57508273ffffffffffffffffffffffffffffffffffffffff168473ffffffffffffffffffffffffffffffffffffffff161480611a3e5750611a3d8484610b9b565b5b80611a7c57508273ffffffffffffffffffffffffffffffffffffffff16611a6483610da7565b73ffffffffffffffffffffffffffffffffffffffff16145b5b90509392505050565b600073ffffffffffffffffffffffffffffffffffffffff168273ffffffffffffffffffffffffffffffffffffffff1603611af85760006040517f64a0ae92000000000000000000000000000000000000000000000000000000008152600401611aef9190611da4565b60405180910390fd5b6000611b0683836000610dfe565b9050600073ffffffffffffffffffffffffffffffffffffffff168173ffffffffffffffffffffffffffffffffffffffff1614611b7a5760006040517f73c6ac6e000000000000000000000000000000000000000000000000000000008152600401611b719190611da4565b60405180910390fd5b505050565b6000604051905090565b600080fd5b600080fd5b60007fffffffff0000000000000000000000000000000000000000000000000000000082169050919050565b611bc881611b93565b8114611bd357600080fd5b50565b600081359050611be581611bbf565b92915050565b600060208284031215611c0157611c00611b89565b5b6000611c0f84828501611bd6565b91505092915050565b60008115159050919050565b611c2d81611c18565b82525050565b6000602082019050611c486000830184611c24565b92915050565b600081519050919050565b600082825260208201905092915050565b60005b83811015611c88578082015181840152602081019050611c6d565b60008484015250505050565b6000601f19601f8301169050919050565b6000611cb082611c4e565b611cba8185611c59565b9350611cca818560208601611c6a565b611cd381611c94565b840191505092915050565b60006020820190508181036000830152611cf88184611ca5565b905092915050565b6000819050919050565b611d1381611d00565b8114611d1e57600080fd5b50565b600081359050611d3081611d0a565b92915050565b600060208284031215611d4c57611d4b611b89565b5b6000611d5a84828501611d21565b91505092915050565b600073ffffffffffffffffffffffffffffffffffffffff82169050919050565b6000611d8e82611d63565b9050919050565b611d9e81611d83565b82525050565b6000602082019050611db96000830184611d95565b92915050565b611dc881611d83565b8114611dd357600080fd5b50565b600081359050611de581611dbf565b92915050565b60008060408385031215611e0257611e01611b89565b5b6000611e1085828601611dd6565b9250506020611e2185828601611d21565b9150509250929050565b600080600060608486031215611e4457611e43611b89565b5b6000611e5286828701611dd6565b9350506020611e6386828701611dd6565b9250506040611e7486828701611d21565b9150509250925092565b600060ff82169050919050565b611e9481611e7e565b82525050565b600061ffff82169050919050565b611eb181611e9a565b82525050565b6000604082019050611ecc6000830185611e8b565b611ed96020830184611ea8565b9392505050565b600060208284031215611ef657611ef5611b89565b5b6000611f0484828501611dd6565b91505092915050565b611f1681611d00565b82525050565b6000602082019050611f316000830184611f0d565b92915050565b611f4081611e7e565b8114611f4b57600080fd5b50565b600081359050611f5d81611f37565b92915050565b611f6c81611e9a565b8114611f7757600080fd5b50565b600081359050611f8981611f63565b92915050565b60008060408385031215611fa657611fa5611b89565b5b6000611fb485828601611f4e565b9250506020611fc585828601611f7a565b9150509250929050565b611fd881611c18565b8114611fe357600080fd5b50565b600081359050611ff581611fcf565b92915050565b6000806040838503121561201257612011611b89565b5b600061202085828601611dd6565b925050602061203185828601611fe6565b9150509250929050565b600080fd5b600080fd5b7f4e487b7100000000000000000000000000000000000000000000000000000000600052604160045260246000fd5b61207d82611c94565b810181811067ffffffffffffffff8211171561209c5761209b612045565b5b80604052505050565b60006120af611b7f565b90506120bb8282612074565b919050565b600067ffffffffffffffff8211156120db576120da612045565b5b6120e482611c94565b9050602081019050919050565b82818337600083830152505050565b600061211361210e846120c0565b6120a5565b90508281526020810184848401111561212f5761212e612040565b5b61213a8482856120f1565b509392505050565b600082601f8301126121575761215661203b565b5b8135612167848260208601612100565b91505092915050565b6000806000806080858703121561218a57612189611b89565b5b600061219887828801611dd6565b94505060206121a987828801611dd6565b93505060406121ba87828801611d21565b925050606085013567ffffffffffffffff8111156121db576121da611b8e565b5b6121e787828801612142565b91505092959194509250565b6000806040838503121561220a57612209611b89565b5b600061221885828601611dd6565b925050602061222985828601611dd6565b9150509250929050565b7f4e487b7100000000000000000000000000000000000000000000000000000000600052602260045260246000fd5b6000600282049050600182168061227a57607f821691505b60208210810361228d5761228c612233565b5b50919050565b60006060820190506122a86000830186611d95565b6122b56020830185611f0d565b6122c26040830184611d95565b949350505050565b7f4e487b7100000000000000000000000000000000000000000000000000000000600052601160045260246000fd5b600061230482611d00565b91507fffffffffffffffffffffffffffffffffffffffffffffffffffffffffffffffff8203612336576123356122ca565b5b600182019050919050565b7f696e76616c6964206d6f6e746800000000000000000000000000000000000000600082015250565b6000612377600d83611c59565b915061238282612341565b602082019050919050565b600060208201905081810360008301526123a68161236a565b9050919050565b7f696e76616c696420796561720000000000000000000000000000000000000000600082015250565b60006123e3600c83611c59565b91506123ee826123ad565b602082019050919050565b60006020820190508181036000830152612412816123d6565b9050919050565b600081905092915050565b600061242f82611c4e565b6124398185612419565b9350612449818560208601611c6a565b80840191505092915050565b60006124618285612424565b915061246d8284612424565b91508190509392505050565b600081519050919050565b600082825260208201905092915050565b60006124a082612479565b6124aa8185612484565b93506124ba818560208601611c6a565b6124c381611c94565b840191505092915050565b60006080820190506124e36000830187611d95565b6124f06020830186611d95565b6124fd6040830185611f0d565b818103606083015261250f8184612495565b905095945050505050565b60008151905061252981611bbf565b92915050565b60006020828403121561254557612544611b89565b5b60006125538482850161251a565b91505092915050565b7f4e487b7100000000000000000000000000000000000000000000000000000000600052601260045260246000fd5b60006040820190506125a06000830185611d95565b6125ad6020830184611f0d565b939250505056fea2646970667358221220bdcb8f06236e087e844852c2630857e9d5819572d260278e7af9a3d2432a4fa064736f6c63430008130033",
  "immutableReferences": {},
  "source": "// SPDX-License-Identifier: MIT\r\npragma solidity ^0.8.19;\r\n\r\nimport \"./ERC721.sol\";\r\nimport \"./Ownable.sol\";\r\n\r\ncontract MiNFT is ERC721, Ownable {\r\n    struct Date {\r\n        uint8 month; // 1-12\r\n        uint16 year; // 2024, 2025, etc.\r\n    }\r\n    uint256 private _tokenIdCounter;\r\n    string public srcCourse;\r\n    string public dstCourse;\r\n    Date private validity;\r\n\r\n    constructor(\r\n        string memory _srcCourse,\r\n        string memory _destCourse,\r\n        address owner\r\n    ) ERC721(\"MiNFT\", \"MNFT\") Ownable(msg.sender) {\r\n        srcCourse = _srcCourse;\r\n        dstCourse = _destCourse;\r\n        _transferOwnership(owner);\r\n    }\r\n\r\n    function mintNFT(address to) public onlyOwner {\r\n        _tokenIdCounter++;\r\n        _safeMint(to, _tokenIdCounter);\r\n    }\r\n\r\n    function setValidityPeriod(uint8 _month, uint16 _year) public {\r\n        require(_month >= 1 && _month <= 12, \"invalid month\");\r\n        require(_year >= 1900 && _year <= 2100, \"invalid year\");\r\n\r\n        validity = Date(_month, _year);\r\n    }\r\n\r\n    function getDate() public view returns (uint8, uint16) {\r\n        return (validity.month, validity.year);\r\n    }\r\n}\r\n",
  "sourcePath": "C:\\Users\\Agustin\\Desktop\\CarreraUCM\\TFG\\Tfg\\Blockchain\\truffle\\contracts\\token.sol",
  "compiler": {
    "name": "solc",
    "version": "0.8.19+commit.7dd6d404.Emscripten.clang"
  },
  "schemaVersion": "3.4.16",
  "updatedAt": "2025-02-02T16:21:45.402Z",
  "devdoc": {
    "errors": {
      "ERC721IncorrectOwner(address,uint256,address)": [
        {
          "details": "Indicates an error related to the ownership over a particular token. Used in transfers.",
          "params": {
            "owner": "Address of the current owner of a token.",
            "sender": "Address whose tokens are being transferred.",
            "tokenId": "Identifier number of a token."
          }
        }
      ],
      "ERC721InsufficientApproval(address,uint256)": [
        {
          "details": "Indicates a failure with the `operator`s approval. Used in transfers.",
          "params": {
            "operator": "Address that may be allowed to operate on tokens without being their owner.",
            "tokenId": "Identifier number of a token."
          }
        }
      ],
      "ERC721InvalidApprover(address)": [
        {
          "details": "Indicates a failure with the `approver` of a token to be approved. Used in approvals.",
          "params": {
            "approver": "Address initiating an approval operation."
          }
        }
      ],
      "ERC721InvalidOperator(address)": [
        {
          "details": "Indicates a failure with the `operator` to be approved. Used in approvals.",
          "params": {
            "operator": "Address that may be allowed to operate on tokens without being their owner."
          }
        }
      ],
      "ERC721InvalidOwner(address)": [
        {
          "details": "Indicates that an address can't be an owner. For example, `address(0)` is a forbidden owner in ERC-20. Used in balance queries.",
          "params": {
            "owner": "Address of the current owner of a token."
          }
        }
      ],
      "ERC721InvalidReceiver(address)": [
        {
          "details": "Indicates a failure with the token `receiver`. Used in transfers.",
          "params": {
            "receiver": "Address to which tokens are being transferred."
          }
        }
      ],
      "ERC721InvalidSender(address)": [
        {
          "details": "Indicates a failure with the token `sender`. Used in transfers.",
          "params": {
            "sender": "Address whose tokens are being transferred."
          }
        }
      ],
      "ERC721NonexistentToken(uint256)": [
        {
          "details": "Indicates a `tokenId` whose `owner` is the zero address.",
          "params": {
            "tokenId": "Identifier number of a token."
          }
        }
      ],
      "OwnableInvalidOwner(address)": [
        {
          "details": "The owner is not a valid owner account. (eg. `address(0)`)"
        }
      ],
      "OwnableUnauthorizedAccount(address)": [
        {
          "details": "The caller account is not authorized to perform an operation."
        }
      ]
    },
    "events": {
      "Approval(address,address,uint256)": {
        "details": "Emitted when `owner` enables `approved` to manage the `tokenId` token."
      },
      "ApprovalForAll(address,address,bool)": {
        "details": "Emitted when `owner` enables or disables (`approved`) `operator` to manage all of its assets."
      },
      "Transfer(address,address,uint256)": {
        "details": "Emitted when `tokenId` token is transferred from `from` to `to`."
      }
    },
    "kind": "dev",
    "methods": {
      "approve(address,uint256)": {
        "details": "See {IERC721-approve}."
      },
      "balanceOf(address)": {
        "details": "See {IERC721-balanceOf}."
      },
      "getApproved(uint256)": {
        "details": "See {IERC721-getApproved}."
      },
      "isApprovedForAll(address,address)": {
        "details": "See {IERC721-isApprovedForAll}."
      },
      "name()": {
        "details": "See {IERC721Metadata-name}."
      },
      "owner()": {
        "details": "Returns the address of the current owner."
      },
      "ownerOf(uint256)": {
        "details": "See {IERC721-ownerOf}."
      },
      "renounceOwnership()": {
        "details": "Leaves the contract without owner. It will not be possible to call `onlyOwner` functions. Can only be called by the current owner. NOTE: Renouncing ownership will leave the contract without an owner, thereby disabling any functionality that is only available to the owner."
      },
      "safeTransferFrom(address,address,uint256)": {
        "details": "See {IERC721-safeTransferFrom}."
      },
      "safeTransferFrom(address,address,uint256,bytes)": {
        "details": "See {IERC721-safeTransferFrom}."
      },
      "setApprovalForAll(address,bool)": {
        "details": "See {IERC721-setApprovalForAll}."
      },
      "supportsInterface(bytes4)": {
        "details": "See {IERC165-supportsInterface}."
      },
      "symbol()": {
        "details": "See {IERC721Metadata-symbol}."
      },
      "tokenURI(uint256)": {
        "details": "See {IERC721Metadata-tokenURI}."
      },
      "transferFrom(address,address,uint256)": {
        "details": "See {IERC721-transferFrom}."
      },
      "transferOwnership(address)": {
        "details": "Transfers ownership of the contract to a new account (`newOwner`). Can only be called by the current owner."
      }
    },
    "version": 1
  },
  "userdoc": {
    "kind": "user",
    "methods": {},
    "version": 1
  }
}