{
  "contractName": "MiNFT",
  "abi": [
    {
      "inputs": [
        {
          "internalType": "address",
          "name": "owner",
          "type": "address"
        }
      ],
      "stateMutability": "nonpayable",
      "type": "constructor"
    },
    {
      "inputs": [
        {
          "internalType": "address",
          "name": "sender",
          "type": "address"
        },
        {
          "internalType": "uint256",
          "name": "tokenId",
          "type": "uint256"
        },
        {
          "internalType": "address",
          "name": "owner",
          "type": "address"
        }
      ],
      "name": "ERC721IncorrectOwner",
      "type": "error"
    },
    {
      "inputs": [
        {
          "internalType": "address",
          "name": "operator",
          "type": "address"
        },
        {
          "internalType": "uint256",
          "name": "tokenId",
          "type": "uint256"
        }
      ],
      "name": "ERC721InsufficientApproval",
      "type": "error"
    },
    {
      "inputs": [
        {
          "internalType": "address",
          "name": "approver",
          "type": "address"
        }
      ],
      "name": "ERC721InvalidApprover",
      "type": "error"
    },
    {
      "inputs": [
        {
          "internalType": "address",
          "name": "operator",
          "type": "address"
        }
      ],
      "name": "ERC721InvalidOperator",
      "type": "error"
    },
    {
      "inputs": [
        {
          "internalType": "address",
          "name": "owner",
          "type": "address"
        }
      ],
      "name": "ERC721InvalidOwner",
      "type": "error"
    },
    {
      "inputs": [
        {
          "internalType": "address",
          "name": "receiver",
          "type": "address"
        }
      ],
      "name": "ERC721InvalidReceiver",
      "type": "error"
    },
    {
      "inputs": [
        {
          "internalType": "address",
          "name": "sender",
          "type": "address"
        }
      ],
      "name": "ERC721InvalidSender",
      "type": "error"
    },
    {
      "inputs": [
        {
          "internalType": "uint256",
          "name": "tokenId",
          "type": "uint256"
        }
      ],
      "name": "ERC721NonexistentToken",
      "type": "error"
    },
    {
      "inputs": [
        {
          "internalType": "address",
          "name": "owner",
          "type": "address"
        }
      ],
      "name": "OwnableInvalidOwner",
      "type": "error"
    },
    {
      "inputs": [
        {
          "internalType": "address",
          "name": "account",
          "type": "address"
        }
      ],
      "name": "OwnableUnauthorizedAccount",
      "type": "error"
    },
    {
      "anonymous": false,
      "inputs": [
        {
          "indexed": true,
          "internalType": "address",
          "name": "owner",
          "type": "address"
        },
        {
          "indexed": true,
          "internalType": "address",
          "name": "approved",
          "type": "address"
        },
        {
          "indexed": true,
          "internalType": "uint256",
          "name": "tokenId",
          "type": "uint256"
        }
      ],
      "name": "Approval",
      "type": "event"
    },
    {
      "anonymous": false,
      "inputs": [
        {
          "indexed": true,
          "internalType": "address",
          "name": "owner",
          "type": "address"
        },
        {
          "indexed": true,
          "internalType": "address",
          "name": "operator",
          "type": "address"
        },
        {
          "indexed": false,
          "internalType": "bool",
          "name": "approved",
          "type": "bool"
        }
      ],
      "name": "ApprovalForAll",
      "type": "event"
    },
    {
      "anonymous": false,
      "inputs": [
        {
          "indexed": true,
          "internalType": "address",
          "name": "previousOwner",
          "type": "address"
        },
        {
          "indexed": true,
          "internalType": "address",
          "name": "newOwner",
          "type": "address"
        }
      ],
      "name": "OwnershipTransferred",
      "type": "event"
    },
    {
      "anonymous": false,
      "inputs": [
        {
          "indexed": true,
          "internalType": "address",
          "name": "from",
          "type": "address"
        },
        {
          "indexed": true,
          "internalType": "address",
          "name": "to",
          "type": "address"
        },
        {
          "indexed": true,
          "internalType": "uint256",
          "name": "tokenId",
          "type": "uint256"
        }
      ],
      "name": "Transfer",
      "type": "event"
    },
    {
      "inputs": [
        {
          "internalType": "address",
          "name": "to",
          "type": "address"
        },
        {
          "internalType": "uint256",
          "name": "tokenId",
          "type": "uint256"
        }
      ],
      "name": "approve",
      "outputs": [],
      "stateMutability": "nonpayable",
      "type": "function"
    },
    {
      "inputs": [
        {
          "internalType": "address",
          "name": "owner",
          "type": "address"
        }
      ],
      "name": "balanceOf",
      "outputs": [
        {
          "internalType": "uint256",
          "name": "",
          "type": "uint256"
        }
      ],
      "stateMutability": "view",
      "type": "function"
    },
    {
      "inputs": [
        {
          "internalType": "uint256",
          "name": "tokenId",
          "type": "uint256"
        }
      ],
      "name": "getApproved",
      "outputs": [
        {
          "internalType": "address",
          "name": "",
          "type": "address"
        }
      ],
      "stateMutability": "view",
      "type": "function"
    },
    {
      "inputs": [
        {
          "internalType": "address",
          "name": "owner",
          "type": "address"
        },
        {
          "internalType": "address",
          "name": "operator",
          "type": "address"
        }
      ],
      "name": "isApprovedForAll",
      "outputs": [
        {
          "internalType": "bool",
          "name": "",
          "type": "bool"
        }
      ],
      "stateMutability": "view",
      "type": "function"
    },
    {
      "inputs": [],
      "name": "name",
      "outputs": [
        {
          "internalType": "string",
          "name": "",
          "type": "string"
        }
      ],
      "stateMutability": "view",
      "type": "function"
    },
    {
      "inputs": [],
      "name": "owner",
      "outputs": [
        {
          "internalType": "address",
          "name": "",
          "type": "address"
        }
      ],
      "stateMutability": "view",
      "type": "function"
    },
    {
      "inputs": [
        {
          "internalType": "uint256",
          "name": "tokenId",
          "type": "uint256"
        }
      ],
      "name": "ownerOf",
      "outputs": [
        {
          "internalType": "address",
          "name": "",
          "type": "address"
        }
      ],
      "stateMutability": "view",
      "type": "function"
    },
    {
      "inputs": [],
      "name": "renounceOwnership",
      "outputs": [],
      "stateMutability": "nonpayable",
      "type": "function"
    },
    {
      "inputs": [
        {
          "internalType": "address",
          "name": "from",
          "type": "address"
        },
        {
          "internalType": "address",
          "name": "to",
          "type": "address"
        },
        {
          "internalType": "uint256",
          "name": "tokenId",
          "type": "uint256"
        }
      ],
      "name": "safeTransferFrom",
      "outputs": [],
      "stateMutability": "nonpayable",
      "type": "function"
    },
    {
      "inputs": [
        {
          "internalType": "address",
          "name": "from",
          "type": "address"
        },
        {
          "internalType": "address",
          "name": "to",
          "type": "address"
        },
        {
          "internalType": "uint256",
          "name": "tokenId",
          "type": "uint256"
        },
        {
          "internalType": "bytes",
          "name": "data",
          "type": "bytes"
        }
      ],
      "name": "safeTransferFrom",
      "outputs": [],
      "stateMutability": "nonpayable",
      "type": "function"
    },
    {
      "inputs": [
        {
          "internalType": "address",
          "name": "operator",
          "type": "address"
        },
        {
          "internalType": "bool",
          "name": "approved",
          "type": "bool"
        }
      ],
      "name": "setApprovalForAll",
      "outputs": [],
      "stateMutability": "nonpayable",
      "type": "function"
    },
    {
      "inputs": [
        {
          "internalType": "bytes4",
          "name": "interfaceId",
          "type": "bytes4"
        }
      ],
      "name": "supportsInterface",
      "outputs": [
        {
          "internalType": "bool",
          "name": "",
          "type": "bool"
        }
      ],
      "stateMutability": "view",
      "type": "function"
    },
    {
      "inputs": [],
      "name": "symbol",
      "outputs": [
        {
          "internalType": "string",
          "name": "",
          "type": "string"
        }
      ],
      "stateMutability": "view",
      "type": "function"
    },
    {
      "inputs": [
        {
          "internalType": "uint256",
          "name": "tokenId",
          "type": "uint256"
        }
      ],
      "name": "tokenURI",
      "outputs": [
        {
          "internalType": "string",
          "name": "",
          "type": "string"
        }
      ],
      "stateMutability": "view",
      "type": "function"
    },
    {
      "inputs": [
        {
          "internalType": "address",
          "name": "from",
          "type": "address"
        },
        {
          "internalType": "address",
          "name": "to",
          "type": "address"
        },
        {
          "internalType": "uint256",
          "name": "tokenId",
          "type": "uint256"
        }
      ],
      "name": "transferFrom",
      "outputs": [],
      "stateMutability": "nonpayable",
      "type": "function"
    },
    {
      "inputs": [
        {
          "internalType": "address",
          "name": "newOwner",
          "type": "address"
        }
      ],
      "name": "transferOwnership",
      "outputs": [],
      "stateMutability": "nonpayable",
      "type": "function"
    },
    {
      "inputs": [
        {
          "internalType": "address",
          "name": "to",
          "type": "address"
        },
        {
          "internalType": "string",
          "name": "_srcCourse",
          "type": "string"
        },
        {
          "internalType": "string",
          "name": "_dstCourse",
          "type": "string"
        }
      ],
      "name": "mintNFT",
      "outputs": [
        {
          "internalType": "uint256",
          "name": "",
          "type": "uint256"
        }
      ],
      "stateMutability": "nonpayable",
      "type": "function"
    },
    {
      "inputs": [
        {
          "internalType": "address",
          "name": "sender",
          "type": "address"
        },
        {
          "internalType": "uint256",
          "name": "id",
          "type": "uint256"
        },
        {
          "internalType": "uint8",
          "name": "_month",
          "type": "uint8"
        },
        {
          "internalType": "uint16",
          "name": "_year",
          "type": "uint16"
        }
      ],
      "name": "setValidityPeriod",
      "outputs": [],
      "stateMutability": "nonpayable",
      "type": "function"
    },
    {
      "inputs": [
        {
          "internalType": "uint256",
          "name": "id",
          "type": "uint256"
        }
      ],
      "name": "getDate",
      "outputs": [
        {
          "internalType": "uint8",
          "name": "",
          "type": "uint8"
        },
        {
          "internalType": "uint16",
          "name": "",
          "type": "uint16"
        }
      ],
      "stateMutability": "view",
      "type": "function"
    },
    {
      "inputs": [
        {
          "internalType": "uint256",
          "name": "id",
          "type": "uint256"
        },
        {
          "internalType": "address",
          "name": "origin",
          "type": "address"
        },
        {
          "internalType": "address",
          "name": "destination",
          "type": "address"
        }
      ],
      "name": "transferValidity",
      "outputs": [],
      "stateMutability": "nonpayable",
      "type": "function"
    }
  ],
  "bytecode": "0x60806040523480156200001157600080fd5b506040516200198038038062001980833981016040819052620000349162000137565b3360405180604001604052806005815260200164135a53919560da1b815250604051806040016040528060048152602001631353919560e21b81525081600090816200008191906200020e565b5060016200009082826200020e565b5050506001600160a01b038116620000c257604051631e4fbdf760e01b81526000600482015260240160405180910390fd5b620000cd81620000e5565b506000600755620000de81620000e5565b50620002da565b600680546001600160a01b038381166001600160a01b0319831681179093556040519116919082907f8be0079c531659141344cd1fd0a4f28419497f9722a3daafe3b4186f6b6457e090600090a35050565b6000602082840312156200014a57600080fd5b81516001600160a01b03811681146200016257600080fd5b9392505050565b634e487b7160e01b600052604160045260246000fd5b600181811c908216806200019457607f821691505b602082108103620001b557634e487b7160e01b600052602260045260246000fd5b50919050565b601f8211156200020957600081815260208120601f850160051c81016020861015620001e45750805b601f850160051c820191505b818110156200020557828155600101620001f0565b5050505b505050565b81516001600160401b038111156200022a576200022a62000169565b62000242816200023b84546200017f565b84620001bb565b602080601f8311600181146200027a5760008415620002615750858301515b600019600386901b1c1916600185901b17855562000205565b600085815260208120601f198616915b82811015620002ab578886015182559484019460019091019084016200028a565b5085821015620002ca5787850151600019600388901b60f8161c191681555b5050505050600190811b01905550565b61169680620002ea6000396000f3fe608060405234801561001057600080fd5b506004361061012c5760003560e01c806370a08231116100ad578063a3ee38ae11610071578063a3ee38ae146102b0578063b88d4fde146102c3578063c87b56dd146102d6578063e985e9c5146102e9578063f2fde38b146102fc57600080fd5b806370a082311461025b578063715018a61461027c5780638da5cb5b1461028457806395d89b4114610295578063a22cb4651461029d57600080fd5b80632b57298b116100f45780632b57298b146101c1578063399159d91461020f57806342842e0e146102225780636352211e146102355780636b11cec11461024857600080fd5b806301ffc9a71461013157806306fdde0314610159578063081812fc1461016e578063095ea7b31461019957806323b872dd146101ae575b600080fd5b61014461013f366004611095565b61030f565b60405190151581526020015b60405180910390f35b610161610361565b6040516101509190611102565b61018161017c366004611115565b6103f3565b6040516001600160a01b039091168152602001610150565b6101ac6101a736600461114a565b61041c565b005b6101ac6101bc366004611174565b61042b565b6101f36101cf366004611115565b60009081526008602052604090206002015460ff81169161010090910461ffff1690565b6040805160ff909316835261ffff909116602083015201610150565b6101ac61021d3660046111b0565b6104bb565b6101ac610230366004611174565b610639565b610181610243366004611115565b610659565b6101ac61025636600461120e565b610664565b61026e61026936600461124a565b61066f565b604051908152602001610150565b6101ac6106b7565b6006546001600160a01b0316610181565b6101616106cb565b6101ac6102ab366004611265565b6106da565b61026e6102be36600461134d565b6106e5565b6101ac6102d13660046113c1565b610756565b6101616102e4366004611115565b61076e565b6101446102f736600461143d565b6107e3565b6101ac61030a36600461124a565b610811565b60006001600160e01b031982166380ac58cd60e01b148061034057506001600160e01b03198216635b5e139f60e01b145b8061035b57506301ffc9a760e01b6001600160e01b03198316145b92915050565b60606000805461037090611470565b80601f016020809104026020016040519081016040528092919081815260200182805461039c90611470565b80156103e95780601f106103be576101008083540402835291602001916103e9565b820191906000526020600020905b8154815290600101906020018083116103cc57829003601f168201915b5050505050905090565b60006103fe8261084f565b506000828152600460205260409020546001600160a01b031661035b565b610427828233610888565b5050565b6001600160a01b03821661045a57604051633250574960e11b8152600060048201526024015b60405180910390fd5b6000610467838333610895565b9050836001600160a01b0316816001600160a01b0316146104b5576040516364283d7b60e01b81526001600160a01b0380861660048301526024820184905282166044820152606401610451565b50505050565b60018260ff16101580156104d35750600c8260ff1611155b61050f5760405162461bcd60e51b815260206004820152600d60248201526c0d2dcecc2d8d2c840dadedce8d609b1b6044820152606401610451565b61076c8161ffff161015801561052b57506108348161ffff1611155b6105665760405162461bcd60e51b815260206004820152600c60248201526b34b73b30b634b2103cb2b0b960a11b6044820152606401610451565b6000838152600460205260409020546001600160a01b038581169116146105e65760405162461bcd60e51b815260206004820152602e60248201527f5468697320636f6f7264696e61746f7220646f6573206e6f742068617665207460448201526d3430ba103b30b634b230ba34b7b760911b6064820152608401610451565b60408051808201825260ff938416815261ffff92831660208083019182526000968752600890529190942093516002909401805491519092166101000262ffffff19909116939092169290921717905550565b61065483838360405180602001604052806000815250610756565b505050565b600061035b8261084f565b61065482828561098e565b60006001600160a01b03821661069b576040516322718ad960e21b815260006004820152602401610451565b506001600160a01b031660009081526003602052604090205490565b6106bf6109a9565b6106c960006109d6565b565b60606001805461037090611470565b610427338383610a28565b60006106ef6109a9565b600780549060006106ff836114aa565b919050555061071084600754610ac7565b600754600090815260086020526040902061072b8482611517565b50600754600090815260086020526040902060010161074a8382611517565b50506007549392505050565b61076184848461042b565b6104b53385858585610ae1565b60606107798261084f565b50600061079160408051602081019091526000815290565b905060008151116107b157604051806020016040528060008152506107dc565b806107bb84610c0c565b6040516020016107cc9291906115d7565b6040516020818303038152906040525b9392505050565b6001600160a01b03918216600090815260056020908152604080832093909416825291909152205460ff1690565b6108196109a9565b6001600160a01b03811661084357604051631e4fbdf760e01b815260006004820152602401610451565b61084c816109d6565b50565b6000818152600260205260408120546001600160a01b03168061035b57604051637e27328960e01b815260048101849052602401610451565b6106548383836001610c9f565b6000828152600260205260408120546001600160a01b03908116908316156108c2576108c2818486610da5565b6001600160a01b03811615610900576108df600085600080610c9f565b6001600160a01b038116600090815260036020526040902080546000190190555b6001600160a01b0385161561092f576001600160a01b0385166000908152600360205260409020805460010190555b60008481526002602052604080822080546001600160a01b0319166001600160a01b0389811691821790925591518793918516917fddf252ad1be2c89b69c2b068fc378daa952ba7f163c4a11628f55a4df523b3ef91a4949350505050565b61065483838360405180602001604052806000815250610e09565b6006546001600160a01b031633146106c95760405163118cdaa760e01b8152336004820152602401610451565b600680546001600160a01b038381166001600160a01b0319831681179093556040519116919082907f8be0079c531659141344cd1fd0a4f28419497f9722a3daafe3b4186f6b6457e090600090a35050565b6001600160a01b038216610a5a57604051630b61174360e31b81526001600160a01b0383166004820152602401610451565b6001600160a01b03838116600081815260056020908152604080832094871680845294825291829020805460ff191686151590811790915591519182527f17307eab39ab6107e8899845ad3d59bd9653f200f220920489ca2b5937696c31910160405180910390a3505050565b610427828260405180602001604052806000815250610e14565b6001600160a01b0383163b15610c0557604051630a85bd0160e11b81526001600160a01b0384169063150b7a0290610b23908890889087908790600401611606565b6020604051808303816000875af1925050508015610b5e575060408051601f3d908101601f19168201909252610b5b91810190611643565b60015b610bc7573d808015610b8c576040519150601f19603f3d011682016040523d82523d6000602084013e610b91565b606091505b508051600003610bbf57604051633250574960e11b81526001600160a01b0385166004820152602401610451565b805181602001fd5b6001600160e01b03198116630a85bd0160e11b14610c0357604051633250574960e11b81526001600160a01b0385166004820152602401610451565b505b5050505050565b60606000610c1983610e2c565b600101905060008167ffffffffffffffff811115610c3957610c396112a1565b6040519080825280601f01601f191660200182016040528015610c63576020820181803683370190505b5090508181016020015b600019016f181899199a1a9b1b9c1cb0b131b232b360811b600a86061a8153600a8504945084610c6d57509392505050565b8080610cb357506001600160a01b03821615155b15610d75576000610cc38461084f565b90506001600160a01b03831615801590610cef5750826001600160a01b0316816001600160a01b031614155b8015610d025750610d0081846107e3565b155b15610d2b5760405163a9fbf51f60e01b81526001600160a01b0384166004820152602401610451565b8115610d735783856001600160a01b0316826001600160a01b03167f8c5be1e5ebec7d5bd14f71427d1e84f3dd0314c0f7b2291e5b200ac8c7c3b92560405160405180910390a45b505b5050600090815260046020526040902080546001600160a01b0319166001600160a01b0392909216919091179055565b610db0838383610f04565b610654576001600160a01b038316610dde57604051637e27328960e01b815260048101829052602401610451565b60405163177e802f60e01b81526001600160a01b038316600482015260248101829052604401610451565b610761848484610f6a565b610e1e838361101a565b610654336000858585610ae1565b60008072184f03e93ff9f4daa797ed6e38ed64bf6a1f0160401b8310610e6b5772184f03e93ff9f4daa797ed6e38ed64bf6a1f0160401b830492506040015b6d04ee2d6d415b85acef81000000008310610e97576d04ee2d6d415b85acef8100000000830492506020015b662386f26fc100008310610eb557662386f26fc10000830492506010015b6305f5e1008310610ecd576305f5e100830492506008015b6127108310610ee157612710830492506004015b60648310610ef3576064830492506002015b600a831061035b5760010192915050565b60006001600160a01b03831615801590610f625750826001600160a01b0316846001600160a01b03161480610f3e5750610f3e84846107e3565b80610f6257506000828152600460205260409020546001600160a01b038481169116145b949350505050565b6001600160a01b038216610f9457604051633250574960e11b815260006004820152602401610451565b6000610fa283836000610895565b90506001600160a01b038116610fce57604051637e27328960e01b815260048101839052602401610451565b836001600160a01b0316816001600160a01b0316146104b5576040516364283d7b60e01b81526001600160a01b0380861660048301526024820184905282166044820152606401610451565b6001600160a01b03821661104457604051633250574960e11b815260006004820152602401610451565b600061105283836000610895565b90506001600160a01b03811615610654576040516339e3563760e11b815260006004820152602401610451565b6001600160e01b03198116811461084c57600080fd5b6000602082840312156110a757600080fd5b81356107dc8161107f565b60005b838110156110cd5781810151838201526020016110b5565b50506000910152565b600081518084526110ee8160208601602086016110b2565b601f01601f19169290920160200192915050565b6020815260006107dc60208301846110d6565b60006020828403121561112757600080fd5b5035919050565b80356001600160a01b038116811461114557600080fd5b919050565b6000806040838503121561115d57600080fd5b6111668361112e565b946020939093013593505050565b60008060006060848603121561118957600080fd5b6111928461112e565b92506111a06020850161112e565b9150604084013590509250925092565b600080600080608085870312156111c657600080fd5b6111cf8561112e565b935060208501359250604085013560ff811681146111ec57600080fd5b9150606085013561ffff8116811461120357600080fd5b939692955090935050565b60008060006060848603121561122357600080fd5b833592506112336020850161112e565b91506112416040850161112e565b90509250925092565b60006020828403121561125c57600080fd5b6107dc8261112e565b6000806040838503121561127857600080fd5b6112818361112e565b91506020830135801515811461129657600080fd5b809150509250929050565b634e487b7160e01b600052604160045260246000fd5b600067ffffffffffffffff808411156112d2576112d26112a1565b604051601f8501601f19908116603f011681019082821181831017156112fa576112fa6112a1565b8160405280935085815286868601111561131357600080fd5b858560208301376000602087830101525050509392505050565b600082601f83011261133e57600080fd5b6107dc838335602085016112b7565b60008060006060848603121561136257600080fd5b61136b8461112e565b9250602084013567ffffffffffffffff8082111561138857600080fd5b6113948783880161132d565b935060408601359150808211156113aa57600080fd5b506113b78682870161132d565b9150509250925092565b600080600080608085870312156113d757600080fd5b6113e08561112e565b93506113ee6020860161112e565b925060408501359150606085013567ffffffffffffffff81111561141157600080fd5b8501601f8101871361142257600080fd5b611431878235602084016112b7565b91505092959194509250565b6000806040838503121561145057600080fd5b6114598361112e565b91506114676020840161112e565b90509250929050565b600181811c9082168061148457607f821691505b6020821081036114a457634e487b7160e01b600052602260045260246000fd5b50919050565b6000600182016114ca57634e487b7160e01b600052601160045260246000fd5b5060010190565b601f82111561065457600081815260208120601f850160051c810160208610156114f85750805b601f850160051c820191505b81811015610c0357828155600101611504565b815167ffffffffffffffff811115611531576115316112a1565b6115458161153f8454611470565b846114d1565b602080601f83116001811461157a57600084156115625750858301515b600019600386901b1c1916600185901b178555610c03565b600085815260208120601f198616915b828110156115a95788860151825594840194600190910190840161158a565b50858210156115c75787850151600019600388901b60f8161c191681555b5050505050600190811b01905550565b600083516115e98184602088016110b2565b8351908301906115fd8183602088016110b2565b01949350505050565b6001600160a01b0385811682528416602082015260408101839052608060608201819052600090611639908301846110d6565b9695505050505050565b60006020828403121561165557600080fd5b81516107dc8161107f56fea2646970667358221220d69a401d065fdc6d25cb1416f6b8313e3522d39d8fa9c392ea54b85fe6efaa8464736f6c63430008130033",
  "immutableReferences": {},
  "source": "// SPDX-License-Identifier: MIT\r\npragma solidity ^0.8.19;\r\n\r\nimport \"./ERC721.sol\";\r\nimport \"./Ownable.sol\";\r\n\r\ncontract MiNFT is ERC721, Ownable {\r\n    struct Date {\r\n        uint8 month; // 1-12\r\n        uint16 year; // 2024, 2025, etc.\r\n    }\r\n\r\n    struct Validation {\r\n        string srcCourse;\r\n        string dstCourse;\r\n        Date period;\r\n    }\r\n\r\n    uint256 private _tokenIdCounter;\r\n\r\n    mapping(uint => Validation) private validities;\r\n\r\n    constructor(address owner) ERC721(\"MiNFT\", \"MNFT\") Ownable(msg.sender) {\r\n        _tokenIdCounter = 0;\r\n        _transferOwnership(owner);\r\n    }\r\n\r\n    function mintNFT(\r\n        address to,\r\n        string memory _srcCourse,\r\n        string memory _dstCourse\r\n    ) public onlyOwner returns (uint) {\r\n        _tokenIdCounter++;\r\n        _safeMint(to, _tokenIdCounter);\r\n        validities[_tokenIdCounter].srcCourse = _srcCourse;\r\n        validities[_tokenIdCounter].dstCourse = _dstCourse;\r\n        return _tokenIdCounter;\r\n    }\r\n\r\n    function setValidityPeriod(\r\n        address sender,\r\n        uint id,\r\n        uint8 _month,\r\n        uint16 _year\r\n    ) public {\r\n        require(_month >= 1 && _month <= 12, \"invalid month\");\r\n        require(_year >= 1900 && _year <= 2100, \"invalid year\");\r\n        require(\r\n            _getApproved(id) == sender,\r\n            \"This coordinator does not have that validation\"\r\n        );\r\n\r\n        validities[id].period = Date(_month, _year);\r\n    }\r\n\r\n    function getDate(uint id) public view returns (uint8, uint16) {\r\n        return (validities[id].period.month, validities[id].period.year);\r\n    }\r\n\r\n    function transferValidity(\r\n        uint id,\r\n        address origin,\r\n        address destination\r\n    ) public {\r\n        _safeTransfer(origin, destination, id);\r\n    }\r\n}\r\n",
  "sourcePath": "C:\\Users\\Agustin\\Desktop\\CarreraUCM\\TFG\\tfg\\Blockchain\\truffle\\contracts\\token.sol",
  "compiler": {
    "name": "solc",
    "version": "0.8.19+commit.7dd6d404.Emscripten.clang"
  },
  "schemaVersion": "3.4.16",
  "updatedAt": "2025-02-08T12:10:11.432Z",
  "devdoc": {
    "errors": {
      "ERC721IncorrectOwner(address,uint256,address)": [
        {
          "details": "Indicates an error related to the ownership over a particular token. Used in transfers.",
          "params": {
            "owner": "Address of the current owner of a token.",
            "sender": "Address whose tokens are being transferred.",
            "tokenId": "Identifier number of a token."
          }
        }
      ],
      "ERC721InsufficientApproval(address,uint256)": [
        {
          "details": "Indicates a failure with the `operator`s approval. Used in transfers.",
          "params": {
            "operator": "Address that may be allowed to operate on tokens without being their owner.",
            "tokenId": "Identifier number of a token."
          }
        }
      ],
      "ERC721InvalidApprover(address)": [
        {
          "details": "Indicates a failure with the `approver` of a token to be approved. Used in approvals.",
          "params": {
            "approver": "Address initiating an approval operation."
          }
        }
      ],
      "ERC721InvalidOperator(address)": [
        {
          "details": "Indicates a failure with the `operator` to be approved. Used in approvals.",
          "params": {
            "operator": "Address that may be allowed to operate on tokens without being their owner."
          }
        }
      ],
      "ERC721InvalidOwner(address)": [
        {
          "details": "Indicates that an address can't be an owner. For example, `address(0)` is a forbidden owner in ERC-20. Used in balance queries.",
          "params": {
            "owner": "Address of the current owner of a token."
          }
        }
      ],
      "ERC721InvalidReceiver(address)": [
        {
          "details": "Indicates a failure with the token `receiver`. Used in transfers.",
          "params": {
            "receiver": "Address to which tokens are being transferred."
          }
        }
      ],
      "ERC721InvalidSender(address)": [
        {
          "details": "Indicates a failure with the token `sender`. Used in transfers.",
          "params": {
            "sender": "Address whose tokens are being transferred."
          }
        }
      ],
      "ERC721NonexistentToken(uint256)": [
        {
          "details": "Indicates a `tokenId` whose `owner` is the zero address.",
          "params": {
            "tokenId": "Identifier number of a token."
          }
        }
      ],
      "OwnableInvalidOwner(address)": [
        {
          "details": "The owner is not a valid owner account. (eg. `address(0)`)"
        }
      ],
      "OwnableUnauthorizedAccount(address)": [
        {
          "details": "The caller account is not authorized to perform an operation."
        }
      ]
    },
    "events": {
      "Approval(address,address,uint256)": {
        "details": "Emitted when `owner` enables `approved` to manage the `tokenId` token."
      },
      "ApprovalForAll(address,address,bool)": {
        "details": "Emitted when `owner` enables or disables (`approved`) `operator` to manage all of its assets."
      },
      "Transfer(address,address,uint256)": {
        "details": "Emitted when `tokenId` token is transferred from `from` to `to`."
      }
    },
    "kind": "dev",
    "methods": {
      "approve(address,uint256)": {
        "details": "See {IERC721-approve}."
      },
      "balanceOf(address)": {
        "details": "See {IERC721-balanceOf}."
      },
      "getApproved(uint256)": {
        "details": "See {IERC721-getApproved}."
      },
      "isApprovedForAll(address,address)": {
        "details": "See {IERC721-isApprovedForAll}."
      },
      "name()": {
        "details": "See {IERC721Metadata-name}."
      },
      "owner()": {
        "details": "Returns the address of the current owner."
      },
      "ownerOf(uint256)": {
        "details": "See {IERC721-ownerOf}."
      },
      "renounceOwnership()": {
        "details": "Leaves the contract without owner. It will not be possible to call `onlyOwner` functions. Can only be called by the current owner. NOTE: Renouncing ownership will leave the contract without an owner, thereby disabling any functionality that is only available to the owner."
      },
      "safeTransferFrom(address,address,uint256)": {
        "details": "See {IERC721-safeTransferFrom}."
      },
      "safeTransferFrom(address,address,uint256,bytes)": {
        "details": "See {IERC721-safeTransferFrom}."
      },
      "setApprovalForAll(address,bool)": {
        "details": "See {IERC721-setApprovalForAll}."
      },
      "supportsInterface(bytes4)": {
        "details": "See {IERC165-supportsInterface}."
      },
      "symbol()": {
        "details": "See {IERC721Metadata-symbol}."
      },
      "tokenURI(uint256)": {
        "details": "See {IERC721Metadata-tokenURI}."
      },
      "transferFrom(address,address,uint256)": {
        "details": "See {IERC721-transferFrom}."
      },
      "transferOwnership(address)": {
        "details": "Transfers ownership of the contract to a new account (`newOwner`). Can only be called by the current owner."
      }
    },
    "version": 1
  },
  "userdoc": {
    "kind": "user",
    "methods": {},
    "version": 1
  }
}