{
  "contractName": "MiNFT",
  "abi": [
    {
      "inputs": [
        {
          "internalType": "address",
          "name": "owner",
          "type": "address"
        }
      ],
      "stateMutability": "nonpayable",
      "type": "constructor"
    },
    {
      "inputs": [
        {
          "internalType": "address",
          "name": "sender",
          "type": "address"
        },
        {
          "internalType": "uint256",
          "name": "tokenId",
          "type": "uint256"
        },
        {
          "internalType": "address",
          "name": "owner",
          "type": "address"
        }
      ],
      "name": "ERC721IncorrectOwner",
      "type": "error"
    },
    {
      "inputs": [
        {
          "internalType": "address",
          "name": "operator",
          "type": "address"
        },
        {
          "internalType": "uint256",
          "name": "tokenId",
          "type": "uint256"
        }
      ],
      "name": "ERC721InsufficientApproval",
      "type": "error"
    },
    {
      "inputs": [
        {
          "internalType": "address",
          "name": "approver",
          "type": "address"
        }
      ],
      "name": "ERC721InvalidApprover",
      "type": "error"
    },
    {
      "inputs": [
        {
          "internalType": "address",
          "name": "operator",
          "type": "address"
        }
      ],
      "name": "ERC721InvalidOperator",
      "type": "error"
    },
    {
      "inputs": [
        {
          "internalType": "address",
          "name": "owner",
          "type": "address"
        }
      ],
      "name": "ERC721InvalidOwner",
      "type": "error"
    },
    {
      "inputs": [
        {
          "internalType": "address",
          "name": "receiver",
          "type": "address"
        }
      ],
      "name": "ERC721InvalidReceiver",
      "type": "error"
    },
    {
      "inputs": [
        {
          "internalType": "address",
          "name": "sender",
          "type": "address"
        }
      ],
      "name": "ERC721InvalidSender",
      "type": "error"
    },
    {
      "inputs": [
        {
          "internalType": "uint256",
          "name": "tokenId",
          "type": "uint256"
        }
      ],
      "name": "ERC721NonexistentToken",
      "type": "error"
    },
    {
      "inputs": [
        {
          "internalType": "address",
          "name": "owner",
          "type": "address"
        }
      ],
      "name": "OwnableInvalidOwner",
      "type": "error"
    },
    {
      "inputs": [
        {
          "internalType": "address",
          "name": "account",
          "type": "address"
        }
      ],
      "name": "OwnableUnauthorizedAccount",
      "type": "error"
    },
    {
      "anonymous": false,
      "inputs": [
        {
          "indexed": true,
          "internalType": "address",
          "name": "owner",
          "type": "address"
        },
        {
          "indexed": true,
          "internalType": "address",
          "name": "approved",
          "type": "address"
        },
        {
          "indexed": true,
          "internalType": "uint256",
          "name": "tokenId",
          "type": "uint256"
        }
      ],
      "name": "Approval",
      "type": "event"
    },
    {
      "anonymous": false,
      "inputs": [
        {
          "indexed": true,
          "internalType": "address",
          "name": "owner",
          "type": "address"
        },
        {
          "indexed": true,
          "internalType": "address",
          "name": "operator",
          "type": "address"
        },
        {
          "indexed": false,
          "internalType": "bool",
          "name": "approved",
          "type": "bool"
        }
      ],
      "name": "ApprovalForAll",
      "type": "event"
    },
    {
      "anonymous": false,
      "inputs": [
        {
          "indexed": true,
          "internalType": "address",
          "name": "previousOwner",
          "type": "address"
        },
        {
          "indexed": true,
          "internalType": "address",
          "name": "newOwner",
          "type": "address"
        }
      ],
      "name": "OwnershipTransferred",
      "type": "event"
    },
    {
      "anonymous": false,
      "inputs": [
        {
          "indexed": true,
          "internalType": "address",
          "name": "from",
          "type": "address"
        },
        {
          "indexed": true,
          "internalType": "address",
          "name": "to",
          "type": "address"
        },
        {
          "indexed": true,
          "internalType": "uint256",
          "name": "tokenId",
          "type": "uint256"
        }
      ],
      "name": "Transfer",
      "type": "event"
    },
    {
      "inputs": [
        {
          "internalType": "address",
          "name": "to",
          "type": "address"
        },
        {
          "internalType": "uint256",
          "name": "tokenId",
          "type": "uint256"
        }
      ],
      "name": "approve",
      "outputs": [],
      "stateMutability": "nonpayable",
      "type": "function"
    },
    {
      "inputs": [
        {
          "internalType": "address",
          "name": "owner",
          "type": "address"
        }
      ],
      "name": "balanceOf",
      "outputs": [
        {
          "internalType": "uint256",
          "name": "",
          "type": "uint256"
        }
      ],
      "stateMutability": "view",
      "type": "function"
    },
    {
      "inputs": [
        {
          "internalType": "uint256",
          "name": "tokenId",
          "type": "uint256"
        }
      ],
      "name": "getApproved",
      "outputs": [
        {
          "internalType": "address",
          "name": "",
          "type": "address"
        }
      ],
      "stateMutability": "view",
      "type": "function"
    },
    {
      "inputs": [
        {
          "internalType": "address",
          "name": "owner",
          "type": "address"
        },
        {
          "internalType": "address",
          "name": "operator",
          "type": "address"
        }
      ],
      "name": "isApprovedForAll",
      "outputs": [
        {
          "internalType": "bool",
          "name": "",
          "type": "bool"
        }
      ],
      "stateMutability": "view",
      "type": "function"
    },
    {
      "inputs": [],
      "name": "name",
      "outputs": [
        {
          "internalType": "string",
          "name": "",
          "type": "string"
        }
      ],
      "stateMutability": "view",
      "type": "function"
    },
    {
      "inputs": [],
      "name": "owner",
      "outputs": [
        {
          "internalType": "address",
          "name": "",
          "type": "address"
        }
      ],
      "stateMutability": "view",
      "type": "function"
    },
    {
      "inputs": [
        {
          "internalType": "uint256",
          "name": "tokenId",
          "type": "uint256"
        }
      ],
      "name": "ownerOf",
      "outputs": [
        {
          "internalType": "address",
          "name": "",
          "type": "address"
        }
      ],
      "stateMutability": "view",
      "type": "function"
    },
    {
      "inputs": [],
      "name": "renounceOwnership",
      "outputs": [],
      "stateMutability": "nonpayable",
      "type": "function"
    },
    {
      "inputs": [
        {
          "internalType": "address",
          "name": "from",
          "type": "address"
        },
        {
          "internalType": "address",
          "name": "to",
          "type": "address"
        },
        {
          "internalType": "uint256",
          "name": "tokenId",
          "type": "uint256"
        }
      ],
      "name": "safeTransferFrom",
      "outputs": [],
      "stateMutability": "nonpayable",
      "type": "function"
    },
    {
      "inputs": [
        {
          "internalType": "address",
          "name": "from",
          "type": "address"
        },
        {
          "internalType": "address",
          "name": "to",
          "type": "address"
        },
        {
          "internalType": "uint256",
          "name": "tokenId",
          "type": "uint256"
        },
        {
          "internalType": "bytes",
          "name": "data",
          "type": "bytes"
        }
      ],
      "name": "safeTransferFrom",
      "outputs": [],
      "stateMutability": "nonpayable",
      "type": "function"
    },
    {
      "inputs": [
        {
          "internalType": "address",
          "name": "operator",
          "type": "address"
        },
        {
          "internalType": "bool",
          "name": "approved",
          "type": "bool"
        }
      ],
      "name": "setApprovalForAll",
      "outputs": [],
      "stateMutability": "nonpayable",
      "type": "function"
    },
    {
      "inputs": [
        {
          "internalType": "bytes4",
          "name": "interfaceId",
          "type": "bytes4"
        }
      ],
      "name": "supportsInterface",
      "outputs": [
        {
          "internalType": "bool",
          "name": "",
          "type": "bool"
        }
      ],
      "stateMutability": "view",
      "type": "function"
    },
    {
      "inputs": [],
      "name": "symbol",
      "outputs": [
        {
          "internalType": "string",
          "name": "",
          "type": "string"
        }
      ],
      "stateMutability": "view",
      "type": "function"
    },
    {
      "inputs": [
        {
          "internalType": "uint256",
          "name": "tokenId",
          "type": "uint256"
        }
      ],
      "name": "tokenURI",
      "outputs": [
        {
          "internalType": "string",
          "name": "",
          "type": "string"
        }
      ],
      "stateMutability": "view",
      "type": "function"
    },
    {
      "inputs": [
        {
          "internalType": "address",
          "name": "from",
          "type": "address"
        },
        {
          "internalType": "address",
          "name": "to",
          "type": "address"
        },
        {
          "internalType": "uint256",
          "name": "tokenId",
          "type": "uint256"
        }
      ],
      "name": "transferFrom",
      "outputs": [],
      "stateMutability": "nonpayable",
      "type": "function"
    },
    {
      "inputs": [
        {
          "internalType": "address",
          "name": "newOwner",
          "type": "address"
        }
      ],
      "name": "transferOwnership",
      "outputs": [],
      "stateMutability": "nonpayable",
      "type": "function"
    },
    {
      "inputs": [
        {
          "internalType": "address",
          "name": "to",
          "type": "address"
        },
        {
          "internalType": "string",
          "name": "_srcCourse",
          "type": "string"
        },
        {
          "internalType": "string",
          "name": "_dstCourse",
          "type": "string"
        }
      ],
      "name": "mintNFT",
      "outputs": [
        {
          "internalType": "uint256",
          "name": "",
          "type": "uint256"
        }
      ],
      "stateMutability": "nonpayable",
      "type": "function"
    },
    {
      "inputs": [
        {
          "internalType": "uint256",
          "name": "id",
          "type": "uint256"
        },
        {
          "internalType": "uint8",
          "name": "_month",
          "type": "uint8"
        },
        {
          "internalType": "uint16",
          "name": "_year",
          "type": "uint16"
        }
      ],
      "name": "setValidityPeriod",
      "outputs": [],
      "stateMutability": "nonpayable",
      "type": "function"
    },
    {
      "inputs": [
        {
          "internalType": "uint256",
          "name": "id",
          "type": "uint256"
        }
      ],
      "name": "getDate",
      "outputs": [
        {
          "internalType": "uint8",
          "name": "",
          "type": "uint8"
        },
        {
          "internalType": "uint16",
          "name": "",
          "type": "uint16"
        }
      ],
      "stateMutability": "view",
      "type": "function"
    },
    {
      "inputs": [
        {
          "internalType": "uint256",
          "name": "id",
          "type": "uint256"
        },
        {
          "internalType": "address",
          "name": "origin",
          "type": "address"
        },
        {
          "internalType": "address",
          "name": "destination",
          "type": "address"
        }
      ],
      "name": "transferValidity",
      "outputs": [],
      "stateMutability": "nonpayable",
      "type": "function"
    }
  ],
  "bytecode": "0x60806040523480156200001157600080fd5b506040516200196d3803806200196d833981016040819052620000349162000137565b3360405180604001604052806005815260200164135a53919560da1b815250604051806040016040528060048152602001631353919560e21b81525081600090816200008191906200020e565b5060016200009082826200020e565b5050506001600160a01b038116620000c257604051631e4fbdf760e01b81526000600482015260240160405180910390fd5b620000cd81620000e5565b506000600755620000de81620000e5565b50620002da565b600680546001600160a01b038381166001600160a01b0319831681179093556040519116919082907f8be0079c531659141344cd1fd0a4f28419497f9722a3daafe3b4186f6b6457e090600090a35050565b6000602082840312156200014a57600080fd5b81516001600160a01b03811681146200016257600080fd5b9392505050565b634e487b7160e01b600052604160045260246000fd5b600181811c908216806200019457607f821691505b602082108103620001b557634e487b7160e01b600052602260045260246000fd5b50919050565b601f8211156200020957600081815260208120601f850160051c81016020861015620001e45750805b601f850160051c820191505b818110156200020557828155600101620001f0565b5050505b505050565b81516001600160401b038111156200022a576200022a62000169565b62000242816200023b84546200017f565b84620001bb565b602080601f8311600181146200027a5760008415620002615750858301515b600019600386901b1c1916600185901b17855562000205565b600085815260208120601f198616915b82811015620002ab578886015182559484019460019091019084016200028a565b5085821015620002ca5787850151600019600388901b60f8161c191681555b5050505050600190811b01905550565b61168380620002ea6000396000f3fe608060405234801561001057600080fd5b506004361061012c5760003560e01c8063715018a6116100ad578063a7c3804511610071578063a7c38045146102b0578063b88d4fde146102c3578063c87b56dd146102d6578063e985e9c5146102e9578063f2fde38b146102fc57600080fd5b8063715018a6146102695780638da5cb5b1461027157806395d89b4114610282578063a22cb4651461028a578063a3ee38ae1461029d57600080fd5b80632b57298b116100f45780632b57298b146101c157806342842e0e1461020f5780636352211e146102225780636b11cec11461023557806370a082311461024857600080fd5b806301ffc9a71461013157806306fdde0314610159578063081812fc1461016e578063095ea7b31461019957806323b872dd146101ae575b600080fd5b61014461013f366004611091565b61030f565b60405190151581526020015b60405180910390f35b610161610361565b60405161015091906110fe565b61018161017c366004611111565b6103f3565b6040516001600160a01b039091168152602001610150565b6101ac6101a7366004611146565b61041c565b005b6101ac6101bc366004611170565b61042b565b6101f36101cf366004611111565b60009081526008602052604090206002015460ff81169161010090910461ffff1690565b6040805160ff909316835261ffff909116602083015201610150565b6101ac61021d366004611170565b6104bb565b610181610230366004611111565b6104db565b6101ac6102433660046111ac565b6104e6565b61025b6102563660046111e8565b6104f1565b604051908152602001610150565b6101ac610539565b6006546001600160a01b0316610181565b61016161054d565b6101ac610298366004611203565b61055c565b61025b6102ab3660046112eb565b610567565b6101ac6102be36600461135f565b6105d8565b6101ac6102d13660046113ae565b610752565b6101616102e4366004611111565b61076a565b6101446102f736600461142a565b6107df565b6101ac61030a3660046111e8565b61080d565b60006001600160e01b031982166380ac58cd60e01b148061034057506001600160e01b03198216635b5e139f60e01b145b8061035b57506301ffc9a760e01b6001600160e01b03198316145b92915050565b6060600080546103709061145d565b80601f016020809104026020016040519081016040528092919081815260200182805461039c9061145d565b80156103e95780601f106103be576101008083540402835291602001916103e9565b820191906000526020600020905b8154815290600101906020018083116103cc57829003601f168201915b5050505050905090565b60006103fe8261084b565b506000828152600460205260409020546001600160a01b031661035b565b610427828233610884565b5050565b6001600160a01b03821661045a57604051633250574960e11b8152600060048201526024015b60405180910390fd5b6000610467838333610891565b9050836001600160a01b0316816001600160a01b0316146104b5576040516364283d7b60e01b81526001600160a01b0380861660048301526024820184905282166044820152606401610451565b50505050565b6104d683838360405180602001604052806000815250610752565b505050565b600061035b8261084b565b6104d682828561098a565b60006001600160a01b03821661051d576040516322718ad960e21b815260006004820152602401610451565b506001600160a01b031660009081526003602052604090205490565b6105416109a5565b61054b60006109d2565b565b6060600180546103709061145d565b610427338383610a24565b60006105716109a5565b6007805490600061058183611497565b919050555061059284600754610ac3565b60075460009081526008602052604090206105ad8482611504565b5060075460009081526008602052604090206001016105cc8382611504565b50506007549392505050565b60018260ff16101580156105f05750600c8260ff1611155b61062c5760405162461bcd60e51b815260206004820152600d60248201526c0d2dcecc2d8d2c840dadedce8d609b1b6044820152606401610451565b61076c8161ffff161015801561064857506108348161ffff1611155b6106835760405162461bcd60e51b815260206004820152600c60248201526b34b73b30b634b2103cb2b0b960a11b6044820152606401610451565b6000838152600460205260409020546001600160a01b031633146107005760405162461bcd60e51b815260206004820152602e60248201527f5468697320636f6f7264696e61746f7220646f6573206e6f742068617665207460448201526d3430ba103b30b634b230ba34b7b760911b6064820152608401610451565b60408051808201825260ff938416815261ffff92831660208083019182526000968752600890529190942093516002909401805491519092166101000262ffffff199091169390921692909217179055565b61075d84848461042b565b6104b53385858585610add565b60606107758261084b565b50600061078d60408051602081019091526000815290565b905060008151116107ad57604051806020016040528060008152506107d8565b806107b784610c08565b6040516020016107c89291906115c4565b6040516020818303038152906040525b9392505050565b6001600160a01b03918216600090815260056020908152604080832093909416825291909152205460ff1690565b6108156109a5565b6001600160a01b03811661083f57604051631e4fbdf760e01b815260006004820152602401610451565b610848816109d2565b50565b6000818152600260205260408120546001600160a01b03168061035b57604051637e27328960e01b815260048101849052602401610451565b6104d68383836001610c9b565b6000828152600260205260408120546001600160a01b03908116908316156108be576108be818486610da1565b6001600160a01b038116156108fc576108db600085600080610c9b565b6001600160a01b038116600090815260036020526040902080546000190190555b6001600160a01b0385161561092b576001600160a01b0385166000908152600360205260409020805460010190555b60008481526002602052604080822080546001600160a01b0319166001600160a01b0389811691821790925591518793918516917fddf252ad1be2c89b69c2b068fc378daa952ba7f163c4a11628f55a4df523b3ef91a4949350505050565b6104d683838360405180602001604052806000815250610e05565b6006546001600160a01b0316331461054b5760405163118cdaa760e01b8152336004820152602401610451565b600680546001600160a01b038381166001600160a01b0319831681179093556040519116919082907f8be0079c531659141344cd1fd0a4f28419497f9722a3daafe3b4186f6b6457e090600090a35050565b6001600160a01b038216610a5657604051630b61174360e31b81526001600160a01b0383166004820152602401610451565b6001600160a01b03838116600081815260056020908152604080832094871680845294825291829020805460ff191686151590811790915591519182527f17307eab39ab6107e8899845ad3d59bd9653f200f220920489ca2b5937696c31910160405180910390a3505050565b610427828260405180602001604052806000815250610e10565b6001600160a01b0383163b15610c0157604051630a85bd0160e11b81526001600160a01b0384169063150b7a0290610b1f9088908890879087906004016115f3565b6020604051808303816000875af1925050508015610b5a575060408051601f3d908101601f19168201909252610b5791810190611630565b60015b610bc3573d808015610b88576040519150601f19603f3d011682016040523d82523d6000602084013e610b8d565b606091505b508051600003610bbb57604051633250574960e11b81526001600160a01b0385166004820152602401610451565b805181602001fd5b6001600160e01b03198116630a85bd0160e11b14610bff57604051633250574960e11b81526001600160a01b0385166004820152602401610451565b505b5050505050565b60606000610c1583610e28565b600101905060008167ffffffffffffffff811115610c3557610c3561123f565b6040519080825280601f01601f191660200182016040528015610c5f576020820181803683370190505b5090508181016020015b600019016f181899199a1a9b1b9c1cb0b131b232b360811b600a86061a8153600a8504945084610c6957509392505050565b8080610caf57506001600160a01b03821615155b15610d71576000610cbf8461084b565b90506001600160a01b03831615801590610ceb5750826001600160a01b0316816001600160a01b031614155b8015610cfe5750610cfc81846107df565b155b15610d275760405163a9fbf51f60e01b81526001600160a01b0384166004820152602401610451565b8115610d6f5783856001600160a01b0316826001600160a01b03167f8c5be1e5ebec7d5bd14f71427d1e84f3dd0314c0f7b2291e5b200ac8c7c3b92560405160405180910390a45b505b5050600090815260046020526040902080546001600160a01b0319166001600160a01b0392909216919091179055565b610dac838383610f00565b6104d6576001600160a01b038316610dda57604051637e27328960e01b815260048101829052602401610451565b60405163177e802f60e01b81526001600160a01b038316600482015260248101829052604401610451565b61075d848484610f66565b610e1a8383611016565b6104d6336000858585610add565b60008072184f03e93ff9f4daa797ed6e38ed64bf6a1f0160401b8310610e675772184f03e93ff9f4daa797ed6e38ed64bf6a1f0160401b830492506040015b6d04ee2d6d415b85acef81000000008310610e93576d04ee2d6d415b85acef8100000000830492506020015b662386f26fc100008310610eb157662386f26fc10000830492506010015b6305f5e1008310610ec9576305f5e100830492506008015b6127108310610edd57612710830492506004015b60648310610eef576064830492506002015b600a831061035b5760010192915050565b60006001600160a01b03831615801590610f5e5750826001600160a01b0316846001600160a01b03161480610f3a5750610f3a84846107df565b80610f5e57506000828152600460205260409020546001600160a01b038481169116145b949350505050565b6001600160a01b038216610f9057604051633250574960e11b815260006004820152602401610451565b6000610f9e83836000610891565b90506001600160a01b038116610fca57604051637e27328960e01b815260048101839052602401610451565b836001600160a01b0316816001600160a01b0316146104b5576040516364283d7b60e01b81526001600160a01b0380861660048301526024820184905282166044820152606401610451565b6001600160a01b03821661104057604051633250574960e11b815260006004820152602401610451565b600061104e83836000610891565b90506001600160a01b038116156104d6576040516339e3563760e11b815260006004820152602401610451565b6001600160e01b03198116811461084857600080fd5b6000602082840312156110a357600080fd5b81356107d88161107b565b60005b838110156110c95781810151838201526020016110b1565b50506000910152565b600081518084526110ea8160208601602086016110ae565b601f01601f19169290920160200192915050565b6020815260006107d860208301846110d2565b60006020828403121561112357600080fd5b5035919050565b80356001600160a01b038116811461114157600080fd5b919050565b6000806040838503121561115957600080fd5b6111628361112a565b946020939093013593505050565b60008060006060848603121561118557600080fd5b61118e8461112a565b925061119c6020850161112a565b9150604084013590509250925092565b6000806000606084860312156111c157600080fd5b833592506111d16020850161112a565b91506111df6040850161112a565b90509250925092565b6000602082840312156111fa57600080fd5b6107d88261112a565b6000806040838503121561121657600080fd5b61121f8361112a565b91506020830135801515811461123457600080fd5b809150509250929050565b634e487b7160e01b600052604160045260246000fd5b600067ffffffffffffffff808411156112705761127061123f565b604051601f8501601f19908116603f011681019082821181831017156112985761129861123f565b816040528093508581528686860111156112b157600080fd5b858560208301376000602087830101525050509392505050565b600082601f8301126112dc57600080fd5b6107d883833560208501611255565b60008060006060848603121561130057600080fd5b6113098461112a565b9250602084013567ffffffffffffffff8082111561132657600080fd5b611332878388016112cb565b9350604086013591508082111561134857600080fd5b50611355868287016112cb565b9150509250925092565b60008060006060848603121561137457600080fd5b83359250602084013560ff8116811461138c57600080fd5b9150604084013561ffff811681146113a357600080fd5b809150509250925092565b600080600080608085870312156113c457600080fd5b6113cd8561112a565b93506113db6020860161112a565b925060408501359150606085013567ffffffffffffffff8111156113fe57600080fd5b8501601f8101871361140f57600080fd5b61141e87823560208401611255565b91505092959194509250565b6000806040838503121561143d57600080fd5b6114468361112a565b91506114546020840161112a565b90509250929050565b600181811c9082168061147157607f821691505b60208210810361149157634e487b7160e01b600052602260045260246000fd5b50919050565b6000600182016114b757634e487b7160e01b600052601160045260246000fd5b5060010190565b601f8211156104d657600081815260208120601f850160051c810160208610156114e55750805b601f850160051c820191505b81811015610bff578281556001016114f1565b815167ffffffffffffffff81111561151e5761151e61123f565b6115328161152c845461145d565b846114be565b602080601f831160018114611567576000841561154f5750858301515b600019600386901b1c1916600185901b178555610bff565b600085815260208120601f198616915b8281101561159657888601518255948401946001909101908401611577565b50858210156115b45787850151600019600388901b60f8161c191681555b5050505050600190811b01905550565b600083516115d68184602088016110ae565b8351908301906115ea8183602088016110ae565b01949350505050565b6001600160a01b0385811682528416602082015260408101839052608060608201819052600090611626908301846110d2565b9695505050505050565b60006020828403121561164257600080fd5b81516107d88161107b56fea264697066735822122099fd8a8577f9be6250b86e7d2e7931dee81377047190f964757ff950fa10898364736f6c63430008130033",
  "immutableReferences": {},
  "source": "// SPDX-License-Identifier: MIT\r\npragma solidity ^0.8.19;\r\n\r\nimport \"./ERC721.sol\";\r\nimport \"./Ownable.sol\";\r\n\r\ncontract MiNFT is ERC721, Ownable {\r\n    struct Date {\r\n        uint8 month; // 1-12\r\n        uint16 year; // 2024, 2025, etc.\r\n    }\r\n\r\n    struct Validation {\r\n        string srcCourse;\r\n        string dstCourse;\r\n        Date period;\r\n    }\r\n\r\n    uint256 private _tokenIdCounter;\r\n\r\n    mapping(uint => Validation) private validities;\r\n\r\n    constructor(address owner) ERC721(\"MiNFT\", \"MNFT\") Ownable(msg.sender) {\r\n        _tokenIdCounter = 0;\r\n        _transferOwnership(owner);\r\n    }\r\n\r\n    function mintNFT(\r\n        address to,\r\n        string memory _srcCourse,\r\n        string memory _dstCourse\r\n    ) public onlyOwner returns (uint) {\r\n        _tokenIdCounter++;\r\n        _safeMint(to, _tokenIdCounter);\r\n        validities[_tokenIdCounter].srcCourse = _srcCourse;\r\n        validities[_tokenIdCounter].dstCourse = _dstCourse;\r\n        return _tokenIdCounter;\r\n    }\r\n\r\n    function setValidityPeriod(uint id, uint8 _month, uint16 _year) public {\r\n        require(_month >= 1 && _month <= 12, \"invalid month\");\r\n        require(_year >= 1900 && _year <= 2100, \"invalid year\");\r\n        require(\r\n            _getApproved(id) == msg.sender,\r\n            \"This coordinator does not have that validation\"\r\n        );\r\n\r\n        validities[id].period = Date(_month, _year);\r\n    }\r\n\r\n    function getDate(uint id) public view returns (uint8, uint16) {\r\n        return (validities[id].period.month, validities[id].period.year);\r\n    }\r\n\r\n    function transferValidity(\r\n        uint id,\r\n        address origin,\r\n        address destination\r\n    ) public {\r\n        _safeTransfer(origin, destination, id);\r\n    }\r\n}\r\n",
  "sourcePath": "C:\\Users\\Agustin\\Desktop\\CarreraUCM\\TFG\\tfg\\Blockchain\\truffle\\contracts\\token.sol",
  "compiler": {
    "name": "solc",
    "version": "0.8.19+commit.7dd6d404.Emscripten.clang"
  },
  "schemaVersion": "3.4.16",
  "updatedAt": "2025-02-04T18:58:02.036Z",
  "devdoc": {
    "errors": {
      "ERC721IncorrectOwner(address,uint256,address)": [
        {
          "details": "Indicates an error related to the ownership over a particular token. Used in transfers.",
          "params": {
            "owner": "Address of the current owner of a token.",
            "sender": "Address whose tokens are being transferred.",
            "tokenId": "Identifier number of a token."
          }
        }
      ],
      "ERC721InsufficientApproval(address,uint256)": [
        {
          "details": "Indicates a failure with the `operator`s approval. Used in transfers.",
          "params": {
            "operator": "Address that may be allowed to operate on tokens without being their owner.",
            "tokenId": "Identifier number of a token."
          }
        }
      ],
      "ERC721InvalidApprover(address)": [
        {
          "details": "Indicates a failure with the `approver` of a token to be approved. Used in approvals.",
          "params": {
            "approver": "Address initiating an approval operation."
          }
        }
      ],
      "ERC721InvalidOperator(address)": [
        {
          "details": "Indicates a failure with the `operator` to be approved. Used in approvals.",
          "params": {
            "operator": "Address that may be allowed to operate on tokens without being their owner."
          }
        }
      ],
      "ERC721InvalidOwner(address)": [
        {
          "details": "Indicates that an address can't be an owner. For example, `address(0)` is a forbidden owner in ERC-20. Used in balance queries.",
          "params": {
            "owner": "Address of the current owner of a token."
          }
        }
      ],
      "ERC721InvalidReceiver(address)": [
        {
          "details": "Indicates a failure with the token `receiver`. Used in transfers.",
          "params": {
            "receiver": "Address to which tokens are being transferred."
          }
        }
      ],
      "ERC721InvalidSender(address)": [
        {
          "details": "Indicates a failure with the token `sender`. Used in transfers.",
          "params": {
            "sender": "Address whose tokens are being transferred."
          }
        }
      ],
      "ERC721NonexistentToken(uint256)": [
        {
          "details": "Indicates a `tokenId` whose `owner` is the zero address.",
          "params": {
            "tokenId": "Identifier number of a token."
          }
        }
      ],
      "OwnableInvalidOwner(address)": [
        {
          "details": "The owner is not a valid owner account. (eg. `address(0)`)"
        }
      ],
      "OwnableUnauthorizedAccount(address)": [
        {
          "details": "The caller account is not authorized to perform an operation."
        }
      ]
    },
    "events": {
      "Approval(address,address,uint256)": {
        "details": "Emitted when `owner` enables `approved` to manage the `tokenId` token."
      },
      "ApprovalForAll(address,address,bool)": {
        "details": "Emitted when `owner` enables or disables (`approved`) `operator` to manage all of its assets."
      },
      "Transfer(address,address,uint256)": {
        "details": "Emitted when `tokenId` token is transferred from `from` to `to`."
      }
    },
    "kind": "dev",
    "methods": {
      "approve(address,uint256)": {
        "details": "See {IERC721-approve}."
      },
      "balanceOf(address)": {
        "details": "See {IERC721-balanceOf}."
      },
      "getApproved(uint256)": {
        "details": "See {IERC721-getApproved}."
      },
      "isApprovedForAll(address,address)": {
        "details": "See {IERC721-isApprovedForAll}."
      },
      "name()": {
        "details": "See {IERC721Metadata-name}."
      },
      "owner()": {
        "details": "Returns the address of the current owner."
      },
      "ownerOf(uint256)": {
        "details": "See {IERC721-ownerOf}."
      },
      "renounceOwnership()": {
        "details": "Leaves the contract without owner. It will not be possible to call `onlyOwner` functions. Can only be called by the current owner. NOTE: Renouncing ownership will leave the contract without an owner, thereby disabling any functionality that is only available to the owner."
      },
      "safeTransferFrom(address,address,uint256)": {
        "details": "See {IERC721-safeTransferFrom}."
      },
      "safeTransferFrom(address,address,uint256,bytes)": {
        "details": "See {IERC721-safeTransferFrom}."
      },
      "setApprovalForAll(address,bool)": {
        "details": "See {IERC721-setApprovalForAll}."
      },
      "supportsInterface(bytes4)": {
        "details": "See {IERC165-supportsInterface}."
      },
      "symbol()": {
        "details": "See {IERC721Metadata-symbol}."
      },
      "tokenURI(uint256)": {
        "details": "See {IERC721Metadata-tokenURI}."
      },
      "transferFrom(address,address,uint256)": {
        "details": "See {IERC721-transferFrom}."
      },
      "transferOwnership(address)": {
        "details": "Transfers ownership of the contract to a new account (`newOwner`). Can only be called by the current owner."
      }
    },
    "version": 1
  },
  "userdoc": {
    "kind": "user",
    "methods": {},
    "version": 1
  }
}