{
  "contractName": "tfg",
  "abi": [
    {
      "inputs": [],
      "stateMutability": "nonpayable",
      "type": "constructor"
    },
    {
      "anonymous": false,
      "inputs": [
        {
          "indexed": false,
          "internalType": "string",
          "name": "message",
          "type": "string"
        }
      ],
      "name": "ParticipantAdded",
      "type": "event"
    },
    {
      "inputs": [
        {
          "internalType": "address",
          "name": "",
          "type": "address"
        }
      ],
      "name": "personToHash",
      "outputs": [
        {
          "internalType": "string",
          "name": "hash",
          "type": "string"
        },
        {
          "internalType": "uint256",
          "name": "role",
          "type": "uint256"
        }
      ],
      "stateMutability": "view",
      "type": "function",
      "constant": true
    },
    {
      "inputs": [
        {
          "internalType": "address",
          "name": "",
          "type": "address"
        }
      ],
      "name": "studentToRecord",
      "outputs": [
        {
          "internalType": "string",
          "name": "hash",
          "type": "string"
        }
      ],
      "stateMutability": "view",
      "type": "function",
      "constant": true
    },
    {
      "inputs": [
        {
          "internalType": "address",
          "name": "",
          "type": "address"
        }
      ],
      "name": "universityToHash",
      "outputs": [
        {
          "internalType": "string",
          "name": "",
          "type": "string"
        }
      ],
      "stateMutability": "view",
      "type": "function",
      "constant": true
    },
    {
      "inputs": [
        {
          "internalType": "address",
          "name": "",
          "type": "address"
        }
      ],
      "name": "validations",
      "outputs": [
        {
          "internalType": "contract MiNFT",
          "name": "",
          "type": "address"
        }
      ],
      "stateMutability": "view",
      "type": "function",
      "constant": true
    },
    {
      "inputs": [
        {
          "internalType": "string",
          "name": "hash",
          "type": "string"
        },
        {
          "internalType": "address",
          "name": "participant",
          "type": "address"
        }
      ],
      "name": "addUniversity",
      "outputs": [],
      "stateMutability": "nonpayable",
      "type": "function"
    },
    {
      "inputs": [
        {
          "internalType": "string",
          "name": "_hash",
          "type": "string"
        },
        {
          "internalType": "address",
          "name": "participant",
          "type": "address"
        },
        {
          "internalType": "uint256",
          "name": "_role",
          "type": "uint256"
        }
      ],
      "name": "addParticipant",
      "outputs": [],
      "stateMutability": "nonpayable",
      "type": "function"
    },
    {
      "inputs": [
        {
          "internalType": "string",
          "name": "user",
          "type": "string"
        },
        {
          "internalType": "string",
          "name": "passwd",
          "type": "string"
        }
      ],
      "name": "calculateSHA256",
      "outputs": [
        {
          "internalType": "bytes32",
          "name": "",
          "type": "bytes32"
        }
      ],
      "stateMutability": "pure",
      "type": "function",
      "constant": true
    },
    {
      "inputs": [
        {
          "internalType": "string",
          "name": "s",
          "type": "string"
        }
      ],
      "name": "hexStringToBytes32",
      "outputs": [
        {
          "internalType": "bytes32",
          "name": "",
          "type": "bytes32"
        }
      ],
      "stateMutability": "pure",
      "type": "function",
      "constant": true
    },
    {
      "inputs": [],
      "name": "test",
      "outputs": [
        {
          "internalType": "bytes32",
          "name": "",
          "type": "bytes32"
        }
      ],
      "stateMutability": "view",
      "type": "function",
      "constant": true
    },
    {
      "inputs": [
        {
          "internalType": "string",
          "name": "user",
          "type": "string"
        },
        {
          "internalType": "string",
          "name": "passwd",
          "type": "string"
        }
      ],
      "name": "consultParticipant",
      "outputs": [
        {
          "internalType": "bool",
          "name": "",
          "type": "bool"
        }
      ],
      "stateMutability": "view",
      "type": "function",
      "constant": true
    },
    {
      "inputs": [
        {
          "internalType": "string",
          "name": "user",
          "type": "string"
        },
        {
          "internalType": "string",
          "name": "passwd",
          "type": "string"
        }
      ],
      "name": "consultUniversity",
      "outputs": [
        {
          "internalType": "bool",
          "name": "",
          "type": "bool"
        }
      ],
      "stateMutability": "view",
      "type": "function",
      "constant": true
    },
    {
      "inputs": [
        {
          "internalType": "address",
          "name": "student",
          "type": "address"
        },
        {
          "internalType": "address",
          "name": "profesor",
          "type": "address"
        }
      ],
      "name": "addTeacherToTranscript",
      "outputs": [],
      "stateMutability": "nonpayable",
      "type": "function"
    },
    {
      "inputs": [
        {
          "internalType": "address",
          "name": "student",
          "type": "address"
        }
      ],
      "name": "getProfessors",
      "outputs": [
        {
          "internalType": "address[]",
          "name": "",
          "type": "address[]"
        }
      ],
      "stateMutability": "view",
      "type": "function",
      "constant": true
    },
    {
      "inputs": [
        {
          "internalType": "string",
          "name": "hash",
          "type": "string"
        },
        {
          "internalType": "address",
          "name": "participant",
          "type": "address"
        }
      ],
      "name": "updateMark",
      "outputs": [],
      "stateMutability": "nonpayable",
      "type": "function"
    },
    {
      "inputs": [
        {
          "internalType": "address",
          "name": "participant",
          "type": "address"
        }
      ],
      "name": "removeParticipant",
      "outputs": [],
      "stateMutability": "nonpayable",
      "type": "function"
    },
    {
      "inputs": [
        {
          "internalType": "string",
          "name": "srcCourse",
          "type": "string"
        },
        {
          "internalType": "string",
          "name": "dstCourse",
          "type": "string"
        },
        {
          "internalType": "uint8",
          "name": "month",
          "type": "uint8"
        },
        {
          "internalType": "uint16",
          "name": "year",
          "type": "uint16"
        }
      ],
      "name": "addValidation",
      "outputs": [],
      "stateMutability": "nonpayable",
      "type": "function"
    },
    {
      "inputs": [
        {
          "internalType": "address",
          "name": "origin",
          "type": "address"
        },
        {
          "internalType": "address",
          "name": "destination",
          "type": "address"
        }
      ],
      "name": "transferValidations",
      "outputs": [],
      "stateMutability": "nonpayable",
      "type": "function"
    }
  ],
  "bytecode": "0x608060405234801561001057600080fd5b5033600460006101000a81548173ffffffffffffffffffffffffffffffffffffffff021916908373ffffffffffffffffffffffffffffffffffffffff160217905550615d35806100616000396000f3fe60806040523480156200001157600080fd5b5060043610620001245760003560e01c8063877f866711620000b1578063a287bbea116200007b578063a287bbea146200032d578063d8daf1471462000364578063f7155345146200039a578063f893d77714620003d0578063f8a8fd6d14620003f05762000124565b8063877f866714620002815780638b6bb00f14620002b75780639590abfb14620002ed5780639b30f0dc146200030d5762000124565b8063511fbc3511620000f3578063511fbc3514620001d5578063668a2001146200020b578063758be551146200022b578063857ac06114620002615762000124565b80630103434514620001295780632945c44b146200014957806329ff405b146200017f5780634f0466bf146200019f575b600080fd5b62000147600480360381019062000141919062001dbc565b62000412565b005b62000167600480360381019062000161919062001e22565b620005c9565b60405162000176919062001ec4565b60405180910390f35b6200019d600480360381019062000197919062001f1c565b620007c7565b005b620001bd6004803603810190620001b7919062001f97565b620009bb565b604051620001cc919062002052565b60405180910390f35b620001f36004803603810190620001ed919062001f97565b62000a69565b60405162000202919062002052565b60405180910390f35b62000229600480360381019062000223919062001f97565b62000b11565b005b62000249600480360381019062000243919062001f97565b62000c8d565b60405162000258919062002144565b60405180910390f35b6200027f6004803603810190620002799190620021e5565b62000d5f565b005b6200029f600480360381019062000299919062001e22565b62000f1f565b604051620002ae919062001ec4565b60405180910390f35b620002d56004803603810190620002cf919062002295565b62001115565b604051620002e4919062002301565b60405180910390f35b6200030b60048036038101906200030591906200231e565b62001176565b005b6200032b600480360381019062000325919062001dbc565b620013f6565b005b6200034b600480360381019062000345919062001f97565b620015a8565b6040516200035b92919062002376565b60405180910390f35b6200038260048036038101906200037c919062001e22565b6200165c565b60405162000391919062002301565b60405180910390f35b620003b86004803603810190620003b2919062001f97565b620016de565b604051620003c7919062002415565b60405180910390f35b620003ee6004803603810190620003e891906200231e565b62001711565b005b620003fa62001a8d565b60405162000409919062002301565b60405180910390f35b336002600160008373ffffffffffffffffffffffffffffffffffffffff1673ffffffffffffffffffffffffffffffffffffffff168152602001908152602001600020600101541480620004a757506003600160008373ffffffffffffffffffffffffffffffffffffffff1673ffffffffffffffffffffffffffffffffffffffff16815260200190815260200160002060010154145b620004e9576040517f08c379a0000000000000000000000000000000000000000000000000000000008152600401620004e09062002482565b60405180910390fd5b8160018060008373ffffffffffffffffffffffffffffffffffffffff1673ffffffffffffffffffffffffffffffffffffffff168152602001908152602001600020600101541462000571576040517f08c379a00000000000000000000000000000000000000000000000000000000081526004016200056890620024f4565b60405180910390fd5b83600160008573ffffffffffffffffffffffffffffffffffffffff1673ffffffffffffffffffffffffffffffffffffffff1681526020019081526020016000206000019081620005c2919062002742565b5050505050565b6000336000600260008373ffffffffffffffffffffffffffffffffffffffff1673ffffffffffffffffffffffffffffffffffffffff16815260200190815260200160002080546200061a9062002545565b9050036200065f576040517f08c379a0000000000000000000000000000000000000000000000000000000008152600401620006569062002879565b60405180910390fd5b60006002858560405160200162000678929190620028dd565b60405160208183030381529060405260405162000696919062002952565b602060405180830381855afa158015620006b4573d6000803e3d6000fd5b5050506040513d601f19601f82011682018060405250810190620006d991906200299c565b90506000620007b7600260003373ffffffffffffffffffffffffffffffffffffffff1673ffffffffffffffffffffffffffffffffffffffff16815260200190815260200160002080546200072d9062002545565b80601f01602080910402602001604051908101604052809291908181526020018280546200075b9062002545565b8015620007ac5780601f106200078057610100808354040283529160200191620007ac565b820191906000526020600020905b8154815290600101906020018083116200078e57829003601f168201915b505050505062001115565b9050818114935050505092915050565b336000600260008373ffffffffffffffffffffffffffffffffffffffff1673ffffffffffffffffffffffffffffffffffffffff1681526020019081526020016000208054620008169062002545565b9050036200085b576040517f08c379a0000000000000000000000000000000000000000000000000000000008152600401620008529062002879565b60405180910390fd5b826000600160008373ffffffffffffffffffffffffffffffffffffffff1673ffffffffffffffffffffffffffffffffffffffff1681526020019081526020016000206001015414620008e4576040517f08c379a0000000000000000000000000000000000000000000000000000000008152600401620008db9062002a1e565b60405180910390fd5b84600160008673ffffffffffffffffffffffffffffffffffffffff1673ffffffffffffffffffffffffffffffffffffffff168152602001908152602001600020600001908162000935919062002742565b5082600160008673ffffffffffffffffffffffffffffffffffffffff1673ffffffffffffffffffffffffffffffffffffffff168152602001908152602001600020600101819055507f65a85354bc5ae3125c1bb8ebfec33fbeafc83983dfaae96d5cec1bb02abc4cb3604051620009ac9062002ab6565b60405180910390a15050505050565b6003602052806000526040600020600091509050806002018054620009e09062002545565b80601f016020809104026020016040519081016040528092919081815260200182805462000a0e9062002545565b801562000a5f5780601f1062000a335761010080835404028352916020019162000a5f565b820191906000526020600020905b81548152906001019060200180831162000a4157829003601f168201915b5050505050905081565b6002602052806000526040600020600091509050805462000a8a9062002545565b80601f016020809104026020016040519081016040528092919081815260200182805462000ab89062002545565b801562000b095780601f1062000add5761010080835404028352916020019162000b09565b820191906000526020600020905b81548152906001019060200180831162000aeb57829003601f168201915b505050505081565b600460009054906101000a900473ffffffffffffffffffffffffffffffffffffffff1673ffffffffffffffffffffffffffffffffffffffff163373ffffffffffffffffffffffffffffffffffffffff161462000ba4576040517f08c379a000000000000000000000000000000000000000000000000000000000815260040162000b9b9062002b28565b60405180910390fd5b806000600160008373ffffffffffffffffffffffffffffffffffffffff1673ffffffffffffffffffffffffffffffffffffffff168152602001908152602001600020600101540362000c2d576040517f08c379a000000000000000000000000000000000000000000000000000000000815260040162000c249062002a1e565b60405180910390fd5b600160008373ffffffffffffffffffffffffffffffffffffffff1673ffffffffffffffffffffffffffffffffffffffff1681526020019081526020016000206000808201600062000c7f919062001b6e565b600182016000905550505050565b6060600360008373ffffffffffffffffffffffffffffffffffffffff1673ffffffffffffffffffffffffffffffffffffffff16815260200190815260200160002060000180548060200260200160405190810160405280929190818152602001828054801562000d5357602002820191906000526020600020905b8160009054906101000a900473ffffffffffffffffffffffffffffffffffffffff1673ffffffffffffffffffffffffffffffffffffffff168152602001906001019080831162000d08575b50505050509050919050565b336003600160008373ffffffffffffffffffffffffffffffffffffffff1673ffffffffffffffffffffffffffffffffffffffff168152602001908152602001600020600101541462000de8576040517f08c379a000000000000000000000000000000000000000000000000000000000815260040162000ddf9062002bc0565b60405180910390fd5b600085853360405162000dfb9062001bb4565b62000e099392919062002bf3565b604051809103906000f08015801562000e26573d6000803e3d6000fd5b5090508073ffffffffffffffffffffffffffffffffffffffff166376a58b2a85856040518363ffffffff1660e01b815260040162000e6692919062002c60565b600060405180830381600087803b15801562000e8157600080fd5b505af115801562000e96573d6000803e3d6000fd5b50505050806000803373ffffffffffffffffffffffffffffffffffffffff1673ffffffffffffffffffffffffffffffffffffffff16815260200190815260200160002060006101000a81548173ffffffffffffffffffffffffffffffffffffffff021916908373ffffffffffffffffffffffffffffffffffffffff160217905550505050505050565b6000336000600160008373ffffffffffffffffffffffffffffffffffffffff1673ffffffffffffffffffffffffffffffffffffffff168152602001908152602001600020600101540362000faa576040517f08c379a000000000000000000000000000000000000000000000000000000000815260040162000fa19062002a1e565b60405180910390fd5b60006002858560405160200162000fc3929190620028dd565b60405160208183030381529060405260405162000fe1919062002952565b602060405180830381855afa15801562000fff573d6000803e3d6000fd5b5050506040513d601f19601f820116820180604052508101906200102491906200299c565b9050600062001105600160003373ffffffffffffffffffffffffffffffffffffffff1673ffffffffffffffffffffffffffffffffffffffff16815260200190815260200160002060000180546200107b9062002545565b80601f0160208091040260200160405190810160405280929190818152602001828054620010a99062002545565b8015620010fa5780601f10620010ce57610100808354040283529160200191620010fa565b820191906000526020600020905b815481529060010190602001808311620010dc57829003601f168201915b505050505062001115565b9050818114935050505092915050565b600060428251146200115e576040517f08c379a0000000000000000000000000000000000000000000000000000000008152600401620011559062002d03565b60405180910390fd5b60008290506000602082015190508092505050919050565b336000600260008373ffffffffffffffffffffffffffffffffffffffff1673ffffffffffffffffffffffffffffffffffffffff1681526020019081526020016000208054620011c59062002545565b9050036200120a576040517f08c379a0000000000000000000000000000000000000000000000000000000008152600401620012019062002879565b60405180910390fd5b826003600160008373ffffffffffffffffffffffffffffffffffffffff1673ffffffffffffffffffffffffffffffffffffffff168152602001908152602001600020600101541462001293576040517f08c379a00000000000000000000000000000000000000000000000000000000081526004016200128a9062002bc0565b60405180910390fd5b826003600160008373ffffffffffffffffffffffffffffffffffffffff1673ffffffffffffffffffffffffffffffffffffffff16815260200190815260200160002060010154146200131c576040517f08c379a0000000000000000000000000000000000000000000000000000000008152600401620013139062002bc0565b60405180910390fd5b60008060008773ffffffffffffffffffffffffffffffffffffffff1673ffffffffffffffffffffffffffffffffffffffff16815260200190815260200160002060009054906101000a900473ffffffffffffffffffffffffffffffffffffffff1690508073ffffffffffffffffffffffffffffffffffffffff1663f2fde38b866040518263ffffffff1660e01b8152600401620013ba919062002d25565b600060405180830381600087803b158015620013d557600080fd5b505af1158015620013ea573d6000803e3d6000fd5b50505050505050505050565b600460009054906101000a900473ffffffffffffffffffffffffffffffffffffffff1673ffffffffffffffffffffffffffffffffffffffff163373ffffffffffffffffffffffffffffffffffffffff161462001489576040517f08c379a0000000000000000000000000000000000000000000000000000000008152600401620014809062002b28565b60405180910390fd5b806000600260008373ffffffffffffffffffffffffffffffffffffffff1673ffffffffffffffffffffffffffffffffffffffff1681526020019081526020016000208054620014d89062002545565b9050146200151d576040517f08c379a0000000000000000000000000000000000000000000000000000000008152600401620015149062002d92565b60405180910390fd5b82600260008473ffffffffffffffffffffffffffffffffffffffff1673ffffffffffffffffffffffffffffffffffffffff16815260200190815260200160002090816200156b919062002742565b507f65a85354bc5ae3125c1bb8ebfec33fbeafc83983dfaae96d5cec1bb02abc4cb36040516200159b9062002e2a565b60405180910390a1505050565b6001602052806000526040600020600091509050806000018054620015cd9062002545565b80601f0160208091040260200160405190810160405280929190818152602001828054620015fb9062002545565b80156200164c5780601f1062001620576101008083540402835291602001916200164c565b820191906000526020600020905b8154815290600101906020018083116200162e57829003601f168201915b5050505050908060010154905082565b60006002838360405160200162001675929190620028dd565b60405160208183030381529060405260405162001693919062002952565b602060405180830381855afa158015620016b1573d6000803e3d6000fd5b5050506040513d601f19601f82011682018060405250810190620016d691906200299c565b905092915050565b60006020528060005260406000206000915054906101000a900473ffffffffffffffffffffffffffffffffffffffff1681565b336000600260008373ffffffffffffffffffffffffffffffffffffffff1673ffffffffffffffffffffffffffffffffffffffff1681526020019081526020016000208054620017609062002545565b905003620017a5576040517f08c379a00000000000000000000000000000000000000000000000000000000081526004016200179c9062002879565b60405180910390fd5b816002600160008373ffffffffffffffffffffffffffffffffffffffff1673ffffffffffffffffffffffffffffffffffffffff1681526020019081526020016000206001015414806200183a57506003600160008373ffffffffffffffffffffffffffffffffffffffff1673ffffffffffffffffffffffffffffffffffffffff16815260200190815260200160002060010154145b6200187c576040517f08c379a0000000000000000000000000000000000000000000000000000000008152600401620018739062002482565b60405180910390fd5b600360008573ffffffffffffffffffffffffffffffffffffffff1673ffffffffffffffffffffffffffffffffffffffff16815260200190815260200160002060010160008473ffffffffffffffffffffffffffffffffffffffff1673ffffffffffffffffffffffffffffffffffffffff16815260200190815260200160002060009054906101000a900460ff16156200194c576040517f08c379a0000000000000000000000000000000000000000000000000000000008152600401620019439062002e9c565b60405180910390fd5b600360008573ffffffffffffffffffffffffffffffffffffffff1673ffffffffffffffffffffffffffffffffffffffff168152602001908152602001600020600001839080600181540180825580915050600190039060005260206000200160009091909190916101000a81548173ffffffffffffffffffffffffffffffffffffffff021916908373ffffffffffffffffffffffffffffffffffffffff1602179055506001600360008673ffffffffffffffffffffffffffffffffffffffff1673ffffffffffffffffffffffffffffffffffffffff16815260200190815260200160002060010160008573ffffffffffffffffffffffffffffffffffffffff1673ffffffffffffffffffffffffffffffffffffffff16815260200190815260200160002060006101000a81548160ff02191690831515021790555050505050565b600062001b69600260003373ffffffffffffffffffffffffffffffffffffffff1673ffffffffffffffffffffffffffffffffffffffff168152602001908152602001600020805462001adf9062002545565b80601f016020809104026020016040519081016040528092919081815260200182805462001b0d9062002545565b801562001b5e5780601f1062001b325761010080835404028352916020019162001b5e565b820191906000526020600020905b81548152906001019060200180831162001b4057829003601f168201915b505050505062001115565b905090565b50805462001b7c9062002545565b6000825580601f1062001b90575062001bb1565b601f01602090049060005260206000209081019062001bb0919062001bc2565b5b50565b612e418062002ebf83390190565b5b8082111562001bdd57600081600090555060010162001bc3565b5090565b6000604051905090565b600080fd5b600080fd5b600080fd5b600080fd5b6000601f19601f8301169050919050565b7f4e487b7100000000000000000000000000000000000000000000000000000000600052604160045260246000fd5b62001c4a8262001bff565b810181811067ffffffffffffffff8211171562001c6c5762001c6b62001c10565b5b80604052505050565b600062001c8162001be1565b905062001c8f828262001c3f565b919050565b600067ffffffffffffffff82111562001cb25762001cb162001c10565b5b62001cbd8262001bff565b9050602081019050919050565b82818337600083830152505050565b600062001cf062001cea8462001c94565b62001c75565b90508281526020810184848401111562001d0f5762001d0e62001bfa565b5b62001d1c84828562001cca565b509392505050565b600082601f83011262001d3c5762001d3b62001bf5565b5b813562001d4e84826020860162001cd9565b91505092915050565b600073ffffffffffffffffffffffffffffffffffffffff82169050919050565b600062001d848262001d57565b9050919050565b62001d968162001d77565b811462001da257600080fd5b50565b60008135905062001db68162001d8b565b92915050565b6000806040838503121562001dd65762001dd562001beb565b5b600083013567ffffffffffffffff81111562001df75762001df662001bf0565b5b62001e058582860162001d24565b925050602062001e188582860162001da5565b9150509250929050565b6000806040838503121562001e3c5762001e3b62001beb565b5b600083013567ffffffffffffffff81111562001e5d5762001e5c62001bf0565b5b62001e6b8582860162001d24565b925050602083013567ffffffffffffffff81111562001e8f5762001e8e62001bf0565b5b62001e9d8582860162001d24565b9150509250929050565b60008115159050919050565b62001ebe8162001ea7565b82525050565b600060208201905062001edb600083018462001eb3565b92915050565b6000819050919050565b62001ef68162001ee1565b811462001f0257600080fd5b50565b60008135905062001f168162001eeb565b92915050565b60008060006060848603121562001f385762001f3762001beb565b5b600084013567ffffffffffffffff81111562001f595762001f5862001bf0565b5b62001f678682870162001d24565b935050602062001f7a8682870162001da5565b925050604062001f8d8682870162001f05565b9150509250925092565b60006020828403121562001fb05762001faf62001beb565b5b600062001fc08482850162001da5565b91505092915050565b600081519050919050565b600082825260208201905092915050565b60005b838110156200200557808201518184015260208101905062001fe8565b60008484015250505050565b60006200201e8262001fc9565b6200202a818562001fd4565b93506200203c81856020860162001fe5565b620020478162001bff565b840191505092915050565b600060208201905081810360008301526200206e818462002011565b905092915050565b600081519050919050565b600082825260208201905092915050565b6000819050602082019050919050565b620020ad8162001d77565b82525050565b6000620020c18383620020a2565b60208301905092915050565b6000602082019050919050565b6000620020e78262002076565b620020f3818562002081565b9350620021008362002092565b8060005b83811015620021375781516200211b8882620020b3565b97506200212883620020cd565b92505060018101905062002104565b5085935050505092915050565b60006020820190508181036000830152620021608184620020da565b905092915050565b600060ff82169050919050565b620021808162002168565b81146200218c57600080fd5b50565b600081359050620021a08162002175565b92915050565b600061ffff82169050919050565b620021bf81620021a6565b8114620021cb57600080fd5b50565b600081359050620021df81620021b4565b92915050565b6000806000806080858703121562002202576200220162001beb565b5b600085013567ffffffffffffffff81111562002223576200222262001bf0565b5b620022318782880162001d24565b945050602085013567ffffffffffffffff81111562002255576200225462001bf0565b5b620022638782880162001d24565b935050604062002276878288016200218f565b92505060606200228987828801620021ce565b91505092959194509250565b600060208284031215620022ae57620022ad62001beb565b5b600082013567ffffffffffffffff811115620022cf57620022ce62001bf0565b5b620022dd8482850162001d24565b91505092915050565b6000819050919050565b620022fb81620022e6565b82525050565b6000602082019050620023186000830184620022f0565b92915050565b6000806040838503121562002338576200233762001beb565b5b6000620023488582860162001da5565b92505060206200235b8582860162001da5565b9150509250929050565b620023708162001ee1565b82525050565b6000604082019050818103600083015262002392818562002011565b9050620023a3602083018462002365565b9392505050565b6000819050919050565b6000620023d5620023cf620023c98462001d57565b620023aa565b62001d57565b9050919050565b6000620023e982620023b4565b9050919050565b6000620023fd82620023dc565b9050919050565b6200240f81620023f0565b82525050565b60006020820190506200242c600083018462002404565b92915050565b7f5061727469636970616e74206973206e6f742061207465616368657200000000600082015250565b60006200246a601c8362001fd4565b9150620024778262002432565b602082019050919050565b600060208201905081810360008301526200249d816200245b565b9050919050565b7f5061727469636970616e74206973206e6f7420612073747564656e7400000000600082015250565b6000620024dc601c8362001fd4565b9150620024e982620024a4565b602082019050919050565b600060208201905081810360008301526200250f81620024cd565b9050919050565b7f4e487b7100000000000000000000000000000000000000000000000000000000600052602260045260246000fd5b600060028204905060018216806200255e57607f821691505b60208210810362002574576200257362002516565b5b50919050565b60008190508160005260206000209050919050565b60006020601f8301049050919050565b600082821b905092915050565b600060088302620025de7fffffffffffffffffffffffffffffffffffffffffffffffffffffffffffffffff826200259f565b620025ea86836200259f565b95508019841693508086168417925050509392505050565b6000620026236200261d620026178462001ee1565b620023aa565b62001ee1565b9050919050565b6000819050919050565b6200263f8362002602565b620026576200264e826200262a565b848454620025ac565b825550505050565b600090565b6200266e6200265f565b6200267b81848462002634565b505050565b5b81811015620026a3576200269760008262002664565b60018101905062002681565b5050565b601f821115620026f257620026bc816200257a565b620026c7846200258f565b81016020851015620026d7578190505b620026ef620026e6856200258f565b83018262002680565b50505b505050565b600082821c905092915050565b60006200271760001984600802620026f7565b1980831691505092915050565b600062002732838362002704565b9150826002028217905092915050565b6200274d8262001fc9565b67ffffffffffffffff81111562002769576200276862001c10565b5b62002775825462002545565b62002782828285620026a7565b600060209050601f831160018114620027ba5760008415620027a5578287015190505b620027b1858262002724565b86555062002821565b601f198416620027ca866200257a565b60005b82811015620027f457848901518255600182019150602085019450602081019050620027cd565b8683101562002814578489015162002810601f89168262002704565b8355505b6001600288020188555050505b505050505050565b7f556e697665727369747920646f6573206e6f7420657869737400000000000000600082015250565b60006200286160198362001fd4565b91506200286e8262002829565b602082019050919050565b60006020820190508181036000830152620028948162002852565b9050919050565b600081905092915050565b6000620028b38262001fc9565b620028bf81856200289b565b9350620028d181856020860162001fe5565b80840191505092915050565b6000620028eb8285620028a6565b9150620028f98284620028a6565b91508190509392505050565b600081519050919050565b600081905092915050565b6000620029288262002905565b62002934818562002910565b93506200294681856020860162001fe5565b80840191505092915050565b60006200296082846200291b565b915081905092915050565b6200297681620022e6565b81146200298257600080fd5b50565b60008151905062002996816200296b565b92915050565b600060208284031215620029b557620029b462001beb565b5b6000620029c58482850162002985565b91505092915050565b7f5061727469636970616e7420646f6573206e6f74206578697374000000000000600082015250565b600062002a06601a8362001fd4565b915062002a1382620029ce565b602082019050919050565b6000602082019050818103600083015262002a3981620029f7565b9050919050565b7f536520686120616e616469646f20756e206e7565766f2070617274696369706160008201527f6e746520636f7272656374616d656e7465000000000000000000000000000000602082015250565b600062002a9e60318362001fd4565b915062002aab8262002a40565b604082019050919050565b6000602082019050818103600083015262002ad18162002a8f565b9050919050565b7f4e6f742074686520636f6e7472616374206f776e657200000000000000000000600082015250565b600062002b1060168362001fd4565b915062002b1d8262002ad8565b602082019050919050565b6000602082019050818103600083015262002b438162002b01565b9050919050565b7f5061727469636970616e74206973206e6f7420612064656772656520436f6f7260008201527f64696e61746f7200000000000000000000000000000000000000000000000000602082015250565b600062002ba860278362001fd4565b915062002bb58262002b4a565b604082019050919050565b6000602082019050818103600083015262002bdb8162002b99565b9050919050565b62002bed8162001d77565b82525050565b6000606082019050818103600083015262002c0f818662002011565b9050818103602083015262002c25818562002011565b905062002c36604083018462002be2565b949350505050565b62002c498162002168565b82525050565b62002c5a81620021a6565b82525050565b600060408201905062002c77600083018562002c3e565b62002c86602083018462002c4f565b9392505050565b7f48657820737472696e67206d757374206265203636206368617273202830782060008201527f2b20363420686578206368617273290000000000000000000000000000000000602082015250565b600062002ceb602f8362001fd4565b915062002cf88262002c8d565b604082019050919050565b6000602082019050818103600083015262002d1e8162002cdc565b9050919050565b600060208201905062002d3c600083018462002be2565b92915050565b7f556e697665727369747920616c72656164792065786973747300000000000000600082015250565b600062002d7a60198362001fd4565b915062002d878262002d42565b602082019050919050565b6000602082019050818103600083015262002dad8162002d6b565b9050919050565b7f536520686120616e616469646f20756e61206e7565766120756e69766572736960008201527f64616420636f7272656374616d656e7465000000000000000000000000000000602082015250565b600062002e1260318362001fd4565b915062002e1f8262002db4565b604082019050919050565b6000602082019050818103600083015262002e458162002e03565b9050919050565b7f5465616368657220616c72656164792061646465640000000000000000000000600082015250565b600062002e8460158362001fd4565b915062002e918262002e4c565b602082019050919050565b6000602082019050818103600083015262002eb78162002e75565b905091905056fe60806040523480156200001157600080fd5b5060405162002e4138038062002e4183398181016040528101906200003791906200044d565b336040518060400160405280600581526020017f4d694e46540000000000000000000000000000000000000000000000000000008152506040518060400160405280600481526020017f4d4e4654000000000000000000000000000000000000000000000000000000008152508160009081620000b5919062000732565b508060019081620000c7919062000732565b505050600073ffffffffffffffffffffffffffffffffffffffff168173ffffffffffffffffffffffffffffffffffffffff16036200013f5760006040517f1e4fbdf70000000000000000000000000000000000000000000000000000000081526004016200013691906200082a565b60405180910390fd5b62000150816200018f60201b60201c565b50826008908162000162919062000732565b50816009908162000174919062000732565b5062000186816200018f60201b60201c565b50505062000847565b6000600660009054906101000a900473ffffffffffffffffffffffffffffffffffffffff16905081600660006101000a81548173ffffffffffffffffffffffffffffffffffffffff021916908373ffffffffffffffffffffffffffffffffffffffff1602179055508173ffffffffffffffffffffffffffffffffffffffff168173ffffffffffffffffffffffffffffffffffffffff167f8be0079c531659141344cd1fd0a4f28419497f9722a3daafe3b4186f6b6457e060405160405180910390a35050565b6000604051905090565b600080fd5b600080fd5b600080fd5b600080fd5b6000601f19601f8301169050919050565b7f4e487b7100000000000000000000000000000000000000000000000000000000600052604160045260246000fd5b620002be8262000273565b810181811067ffffffffffffffff82111715620002e057620002df62000284565b5b80604052505050565b6000620002f562000255565b9050620003038282620002b3565b919050565b600067ffffffffffffffff82111562000326576200032562000284565b5b620003318262000273565b9050602081019050919050565b60005b838110156200035e57808201518184015260208101905062000341565b60008484015250505050565b6000620003816200037b8462000308565b620002e9565b905082815260208101848484011115620003a0576200039f6200026e565b5b620003ad8482856200033e565b509392505050565b600082601f830112620003cd57620003cc62000269565b5b8151620003df8482602086016200036a565b91505092915050565b600073ffffffffffffffffffffffffffffffffffffffff82169050919050565b60006200041582620003e8565b9050919050565b620004278162000408565b81146200043357600080fd5b50565b60008151905062000447816200041c565b92915050565b6000806000606084860312156200046957620004686200025f565b5b600084015167ffffffffffffffff8111156200048a576200048962000264565b5b6200049886828701620003b5565b935050602084015167ffffffffffffffff811115620004bc57620004bb62000264565b5b620004ca86828701620003b5565b9250506040620004dd8682870162000436565b9150509250925092565b600081519050919050565b7f4e487b7100000000000000000000000000000000000000000000000000000000600052602260045260246000fd5b600060028204905060018216806200053a57607f821691505b60208210810362000550576200054f620004f2565b5b50919050565b60008190508160005260206000209050919050565b60006020601f8301049050919050565b600082821b905092915050565b600060088302620005ba7fffffffffffffffffffffffffffffffffffffffffffffffffffffffffffffffff826200057b565b620005c686836200057b565b95508019841693508086168417925050509392505050565b6000819050919050565b6000819050919050565b6000620006136200060d6200060784620005de565b620005e8565b620005de565b9050919050565b6000819050919050565b6200062f83620005f2565b620006476200063e826200061a565b84845462000588565b825550505050565b600090565b6200065e6200064f565b6200066b81848462000624565b505050565b5b8181101562000693576200068760008262000654565b60018101905062000671565b5050565b601f821115620006e257620006ac8162000556565b620006b7846200056b565b81016020851015620006c7578190505b620006df620006d6856200056b565b83018262000670565b50505b505050565b600082821c905092915050565b60006200070760001984600802620006e7565b1980831691505092915050565b6000620007228383620006f4565b9150826002028217905092915050565b6200073d82620004e7565b67ffffffffffffffff81111562000759576200075862000284565b5b62000765825462000521565b6200077282828562000697565b600060209050601f831160018114620007aa576000841562000795578287015190505b620007a1858262000714565b86555062000811565b601f198416620007ba8662000556565b60005b82811015620007e457848901518255600182019150602085019450602081019050620007bd565b8683101562000804578489015162000800601f891682620006f4565b8355505b6001600288020188555050505b505050505050565b620008248162000408565b82525050565b600060208201905062000841600083018462000819565b92915050565b6125ea80620008576000396000f3fe608060405234801561001057600080fd5b50600436106101375760003560e01c806370a08231116100b8578063a22cb4651161007c578063a22cb46514610329578063b88d4fde14610345578063c87b56dd14610361578063cc59560114610391578063e985e9c5146103af578063f2fde38b146103df57610137565b806370a0823114610297578063715018a6146102c757806376a58b2a146102d15780638da5cb5b146102ed57806395d89b411461030b57610137565b806323b872dd116100ff57806323b872dd146101f457806342842e0e14610210578063430fe9c11461022c57806354ba0f271461024b5780636352211e1461026757610137565b806301ffc9a71461013c578063063377211461016c57806306fdde031461018a578063081812fc146101a8578063095ea7b3146101d8575b600080fd5b61015660048036038101906101519190611beb565b6103fb565b6040516101639190611c33565b60405180910390f35b6101746104dd565b6040516101819190611cde565b60405180910390f35b61019261056b565b60405161019f9190611cde565b60405180910390f35b6101c260048036038101906101bd9190611d36565b6105fd565b6040516101cf9190611da4565b60405180910390f35b6101f260048036038101906101ed9190611deb565b610619565b005b61020e60048036038101906102099190611e2b565b61062f565b005b61022a60048036038101906102259190611e2b565b610731565b005b610234610751565b604051610242929190611eb7565b60405180910390f35b61026560048036038101906102609190611ee0565b610783565b005b610281600480360381019061027c9190611d36565b6107b2565b60405161028e9190611da4565b60405180910390f35b6102b160048036038101906102ac9190611ee0565b6107c4565b6040516102be9190611f1c565b60405180910390f35b6102cf61087e565b005b6102eb60048036038101906102e69190611f8f565b610892565b005b6102f56109ad565b6040516103029190611da4565b60405180910390f35b6103136109d7565b6040516103209190611cde565b60405180910390f35b610343600480360381019061033e9190611ffb565b610a69565b005b61035f600480360381019061035a9190612170565b610a7f565b005b61037b60048036038101906103769190611d36565b610aa4565b6040516103889190611cde565b60405180910390f35b610399610b0d565b6040516103a69190611cde565b60405180910390f35b6103c960048036038101906103c491906121f3565b610b9b565b6040516103d69190611c33565b60405180910390f35b6103f960048036038101906103f49190611ee0565b610c2f565b005b60007f80ac58cd000000000000000000000000000000000000000000000000000000007bffffffffffffffffffffffffffffffffffffffffffffffffffffffff1916827bffffffffffffffffffffffffffffffffffffffffffffffffffffffff191614806104c657507f5b5e139f000000000000000000000000000000000000000000000000000000007bffffffffffffffffffffffffffffffffffffffffffffffffffffffff1916827bffffffffffffffffffffffffffffffffffffffffffffffffffffffff1916145b806104d657506104d582610cb5565b5b9050919050565b600980546104ea90612262565b80601f016020809104026020016040519081016040528092919081815260200182805461051690612262565b80156105635780601f1061053857610100808354040283529160200191610563565b820191906000526020600020905b81548152906001019060200180831161054657829003601f168201915b505050505081565b60606000805461057a90612262565b80601f01602080910402602001604051908101604052809291908181526020018280546105a690612262565b80156105f35780601f106105c8576101008083540402835291602001916105f3565b820191906000526020600020905b8154815290600101906020018083116105d657829003601f168201915b5050505050905090565b600061060882610d1f565b5061061282610da7565b9050919050565b61062b8282610626610de4565b610dec565b5050565b600073ffffffffffffffffffffffffffffffffffffffff168273ffffffffffffffffffffffffffffffffffffffff16036106a15760006040517f64a0ae920000000000000000000000000000000000000000000000000000000081526004016106989190611da4565b60405180910390fd5b60006106b583836106b0610de4565b610dfe565b90508373ffffffffffffffffffffffffffffffffffffffff168173ffffffffffffffffffffffffffffffffffffffff161461072b578382826040517f64283d7b00000000000000000000000000000000000000000000000000000000815260040161072293929190612293565b60405180910390fd5b50505050565b61074c83838360405180602001604052806000815250610a7f565b505050565b600080600a60000160009054906101000a900460ff16600a60000160019054906101000a900461ffff16915091509091565b61078b611018565b6007600081548092919061079e906122f9565b91905055506107af8160075461109f565b50565b60006107bd82610d1f565b9050919050565b60008073ffffffffffffffffffffffffffffffffffffffff168273ffffffffffffffffffffffffffffffffffffffff16036108375760006040517f89c62b6400000000000000000000000000000000000000000000000000000000815260040161082e9190611da4565b60405180910390fd5b600360008373ffffffffffffffffffffffffffffffffffffffff1673ffffffffffffffffffffffffffffffffffffffff168152602001908152602001600020549050919050565b610886611018565b61089060006110bd565b565b60018260ff16101580156108aa5750600c8260ff1611155b6108e9576040517f08c379a00000000000000000000000000000000000000000000000000000000081526004016108e09061238d565b60405180910390fd5b61076c8161ffff161015801561090557506108348161ffff1611155b610944576040517f08c379a000000000000000000000000000000000000000000000000000000000815260040161093b906123f9565b60405180910390fd5b60405180604001604052808360ff1681526020018261ffff16815250600a60008201518160000160006101000a81548160ff021916908360ff16021790555060208201518160000160016101000a81548161ffff021916908361ffff1602179055509050505050565b6000600660009054906101000a900473ffffffffffffffffffffffffffffffffffffffff16905090565b6060600180546109e690612262565b80601f0160208091040260200160405190810160405280929190818152602001828054610a1290612262565b8015610a5f5780601f10610a3457610100808354040283529160200191610a5f565b820191906000526020600020905b815481529060010190602001808311610a4257829003601f168201915b5050505050905090565b610a7b610a74610de4565b8383611183565b5050565b610a8a84848461062f565b610a9e610a95610de4565b858585856112f2565b50505050565b6060610aaf82610d1f565b506000610aba6114a3565b90506000815111610ada5760405180602001604052806000815250610b05565b80610ae4846114ba565b604051602001610af5929190612455565b6040516020818303038152906040525b915050919050565b60088054610b1a90612262565b80601f0160208091040260200160405190810160405280929190818152602001828054610b4690612262565b8015610b935780601f10610b6857610100808354040283529160200191610b93565b820191906000526020600020905b815481529060010190602001808311610b7657829003601f168201915b505050505081565b6000600560008473ffffffffffffffffffffffffffffffffffffffff1673ffffffffffffffffffffffffffffffffffffffff16815260200190815260200160002060008373ffffffffffffffffffffffffffffffffffffffff1673ffffffffffffffffffffffffffffffffffffffff16815260200190815260200160002060009054906101000a900460ff16905092915050565b610c37611018565b600073ffffffffffffffffffffffffffffffffffffffff168173ffffffffffffffffffffffffffffffffffffffff1603610ca95760006040517f1e4fbdf7000000000000000000000000000000000000000000000000000000008152600401610ca09190611da4565b60405180910390fd5b610cb2816110bd565b50565b60007f01ffc9a7000000000000000000000000000000000000000000000000000000007bffffffffffffffffffffffffffffffffffffffffffffffffffffffff1916827bffffffffffffffffffffffffffffffffffffffffffffffffffffffff1916149050919050565b600080610d2b83611588565b9050600073ffffffffffffffffffffffffffffffffffffffff168173ffffffffffffffffffffffffffffffffffffffff1603610d9e57826040517f7e273289000000000000000000000000000000000000000000000000000000008152600401610d959190611f1c565b60405180910390fd5b80915050919050565b60006004600083815260200190815260200160002060009054906101000a900473ffffffffffffffffffffffffffffffffffffffff169050919050565b600033905090565b610df983838360016115c5565b505050565b600080610e0a84611588565b9050600073ffffffffffffffffffffffffffffffffffffffff168373ffffffffffffffffffffffffffffffffffffffff1614610e4c57610e4b81848661178a565b5b600073ffffffffffffffffffffffffffffffffffffffff168173ffffffffffffffffffffffffffffffffffffffff1614610edd57610e8e6000856000806115c5565b6001600360008373ffffffffffffffffffffffffffffffffffffffff1673ffffffffffffffffffffffffffffffffffffffff168152602001908152602001600020600082825403925050819055505b600073ffffffffffffffffffffffffffffffffffffffff168573ffffffffffffffffffffffffffffffffffffffff1614610f60576001600360008773ffffffffffffffffffffffffffffffffffffffff1673ffffffffffffffffffffffffffffffffffffffff168152602001908152602001600020600082825401925050819055505b846002600086815260200190815260200160002060006101000a81548173ffffffffffffffffffffffffffffffffffffffff021916908373ffffffffffffffffffffffffffffffffffffffff160217905550838573ffffffffffffffffffffffffffffffffffffffff168273ffffffffffffffffffffffffffffffffffffffff167fddf252ad1be2c89b69c2b068fc378daa952ba7f163c4a11628f55a4df523b3ef60405160405180910390a4809150509392505050565b611020610de4565b73ffffffffffffffffffffffffffffffffffffffff1661103e6109ad565b73ffffffffffffffffffffffffffffffffffffffff161461109d57611061610de4565b6040517f118cdaa70000000000000000000000000000000000000000000000000000000081526004016110949190611da4565b60405180910390fd5b565b6110b982826040518060200160405280600081525061184e565b5050565b6000600660009054906101000a900473ffffffffffffffffffffffffffffffffffffffff16905081600660006101000a81548173ffffffffffffffffffffffffffffffffffffffff021916908373ffffffffffffffffffffffffffffffffffffffff1602179055508173ffffffffffffffffffffffffffffffffffffffff168173ffffffffffffffffffffffffffffffffffffffff167f8be0079c531659141344cd1fd0a4f28419497f9722a3daafe3b4186f6b6457e060405160405180910390a35050565b600073ffffffffffffffffffffffffffffffffffffffff168273ffffffffffffffffffffffffffffffffffffffff16036111f457816040517f5b08ba180000000000000000000000000000000000000000000000000000000081526004016111eb9190611da4565b60405180910390fd5b80600560008573ffffffffffffffffffffffffffffffffffffffff1673ffffffffffffffffffffffffffffffffffffffff16815260200190815260200160002060008473ffffffffffffffffffffffffffffffffffffffff1673ffffffffffffffffffffffffffffffffffffffff16815260200190815260200160002060006101000a81548160ff0219169083151502179055508173ffffffffffffffffffffffffffffffffffffffff168373ffffffffffffffffffffffffffffffffffffffff167f17307eab39ab6107e8899845ad3d59bd9653f200f220920489ca2b5937696c31836040516112e59190611c33565b60405180910390a3505050565b60008373ffffffffffffffffffffffffffffffffffffffff163b111561149c578273ffffffffffffffffffffffffffffffffffffffff1663150b7a02868685856040518563ffffffff1660e01b815260040161135194939291906124ce565b6020604051808303816000875af192505050801561138d57506040513d601f19601f8201168201806040525081019061138a919061252f565b60015b611411573d80600081146113bd576040519150601f19603f3d011682016040523d82523d6000602084013e6113c2565b606091505b50600081510361140957836040517f64a0ae920000000000000000000000000000000000000000000000000000000081526004016114009190611da4565b60405180910390fd5b805181602001fd5b63150b7a0260e01b7bffffffffffffffffffffffffffffffffffffffffffffffffffffffff1916817bffffffffffffffffffffffffffffffffffffffffffffffffffffffff19161461149a57836040517f64a0ae920000000000000000000000000000000000000000000000000000000081526004016114919190611da4565b60405180910390fd5b505b5050505050565b606060405180602001604052806000815250905090565b6060600060016114c984611872565b01905060008167ffffffffffffffff8111156114e8576114e7612045565b5b6040519080825280601f01601f19166020018201604052801561151a5781602001600182028036833780820191505090505b509050600082602001820190505b60011561157d578080600190039150507f3031323334353637383961626364656600000000000000000000000000000000600a86061a8153600a85816115715761157061255c565b5b04945060008503611528575b819350505050919050565b60006002600083815260200190815260200160002060009054906101000a900473ffffffffffffffffffffffffffffffffffffffff169050919050565b80806115fe5750600073ffffffffffffffffffffffffffffffffffffffff168273ffffffffffffffffffffffffffffffffffffffff1614155b1561173257600061160e84610d1f565b9050600073ffffffffffffffffffffffffffffffffffffffff168373ffffffffffffffffffffffffffffffffffffffff161415801561167957508273ffffffffffffffffffffffffffffffffffffffff168173ffffffffffffffffffffffffffffffffffffffff1614155b801561168c575061168a8184610b9b565b155b156116ce57826040517fa9fbf51f0000000000000000000000000000000000000000000000000000000081526004016116c59190611da4565b60405180910390fd5b811561173057838573ffffffffffffffffffffffffffffffffffffffff168273ffffffffffffffffffffffffffffffffffffffff167f8c5be1e5ebec7d5bd14f71427d1e84f3dd0314c0f7b2291e5b200ac8c7c3b92560405160405180910390a45b505b836004600085815260200190815260200160002060006101000a81548173ffffffffffffffffffffffffffffffffffffffff021916908373ffffffffffffffffffffffffffffffffffffffff16021790555050505050565b6117958383836119c5565b61184957600073ffffffffffffffffffffffffffffffffffffffff168373ffffffffffffffffffffffffffffffffffffffff160361180a57806040517f7e2732890000000000000000000000000000000000000000000000000000000081526004016118019190611f1c565b60405180910390fd5b81816040517f177e802f00000000000000000000000000000000000000000000000000000000815260040161184092919061258b565b60405180910390fd5b505050565b6118588383611a86565b61186d611863610de4565b60008585856112f2565b505050565b600080600090507a184f03e93ff9f4daa797ed6e38ed64bf6a1f01000000000000000083106118d0577a184f03e93ff9f4daa797ed6e38ed64bf6a1f01000000000000000083816118c6576118c561255c565b5b0492506040810190505b6d04ee2d6d415b85acef8100000000831061190d576d04ee2d6d415b85acef810000000083816119035761190261255c565b5b0492506020810190505b662386f26fc10000831061193c57662386f26fc1000083816119325761193161255c565b5b0492506010810190505b6305f5e1008310611965576305f5e100838161195b5761195a61255c565b5b0492506008810190505b612710831061198a5761271083816119805761197f61255c565b5b0492506004810190505b606483106119ad57606483816119a3576119a261255c565b5b0492506002810190505b600a83106119bc576001810190505b80915050919050565b60008073ffffffffffffffffffffffffffffffffffffffff168373ffffffffffffffffffffffffffffffffffffffff1614158015611a7d57508273ffffffffffffffffffffffffffffffffffffffff168473ffffffffffffffffffffffffffffffffffffffff161480611a3e5750611a3d8484610b9b565b5b80611a7c57508273ffffffffffffffffffffffffffffffffffffffff16611a6483610da7565b73ffffffffffffffffffffffffffffffffffffffff16145b5b90509392505050565b600073ffffffffffffffffffffffffffffffffffffffff168273ffffffffffffffffffffffffffffffffffffffff1603611af85760006040517f64a0ae92000000000000000000000000000000000000000000000000000000008152600401611aef9190611da4565b60405180910390fd5b6000611b0683836000610dfe565b9050600073ffffffffffffffffffffffffffffffffffffffff168173ffffffffffffffffffffffffffffffffffffffff1614611b7a5760006040517f73c6ac6e000000000000000000000000000000000000000000000000000000008152600401611b719190611da4565b60405180910390fd5b505050565b6000604051905090565b600080fd5b600080fd5b60007fffffffff0000000000000000000000000000000000000000000000000000000082169050919050565b611bc881611b93565b8114611bd357600080fd5b50565b600081359050611be581611bbf565b92915050565b600060208284031215611c0157611c00611b89565b5b6000611c0f84828501611bd6565b91505092915050565b60008115159050919050565b611c2d81611c18565b82525050565b6000602082019050611c486000830184611c24565b92915050565b600081519050919050565b600082825260208201905092915050565b60005b83811015611c88578082015181840152602081019050611c6d565b60008484015250505050565b6000601f19601f8301169050919050565b6000611cb082611c4e565b611cba8185611c59565b9350611cca818560208601611c6a565b611cd381611c94565b840191505092915050565b60006020820190508181036000830152611cf88184611ca5565b905092915050565b6000819050919050565b611d1381611d00565b8114611d1e57600080fd5b50565b600081359050611d3081611d0a565b92915050565b600060208284031215611d4c57611d4b611b89565b5b6000611d5a84828501611d21565b91505092915050565b600073ffffffffffffffffffffffffffffffffffffffff82169050919050565b6000611d8e82611d63565b9050919050565b611d9e81611d83565b82525050565b6000602082019050611db96000830184611d95565b92915050565b611dc881611d83565b8114611dd357600080fd5b50565b600081359050611de581611dbf565b92915050565b60008060408385031215611e0257611e01611b89565b5b6000611e1085828601611dd6565b9250506020611e2185828601611d21565b9150509250929050565b600080600060608486031215611e4457611e43611b89565b5b6000611e5286828701611dd6565b9350506020611e6386828701611dd6565b9250506040611e7486828701611d21565b9150509250925092565b600060ff82169050919050565b611e9481611e7e565b82525050565b600061ffff82169050919050565b611eb181611e9a565b82525050565b6000604082019050611ecc6000830185611e8b565b611ed96020830184611ea8565b9392505050565b600060208284031215611ef657611ef5611b89565b5b6000611f0484828501611dd6565b91505092915050565b611f1681611d00565b82525050565b6000602082019050611f316000830184611f0d565b92915050565b611f4081611e7e565b8114611f4b57600080fd5b50565b600081359050611f5d81611f37565b92915050565b611f6c81611e9a565b8114611f7757600080fd5b50565b600081359050611f8981611f63565b92915050565b60008060408385031215611fa657611fa5611b89565b5b6000611fb485828601611f4e565b9250506020611fc585828601611f7a565b9150509250929050565b611fd881611c18565b8114611fe357600080fd5b50565b600081359050611ff581611fcf565b92915050565b6000806040838503121561201257612011611b89565b5b600061202085828601611dd6565b925050602061203185828601611fe6565b9150509250929050565b600080fd5b600080fd5b7f4e487b7100000000000000000000000000000000000000000000000000000000600052604160045260246000fd5b61207d82611c94565b810181811067ffffffffffffffff8211171561209c5761209b612045565b5b80604052505050565b60006120af611b7f565b90506120bb8282612074565b919050565b600067ffffffffffffffff8211156120db576120da612045565b5b6120e482611c94565b9050602081019050919050565b82818337600083830152505050565b600061211361210e846120c0565b6120a5565b90508281526020810184848401111561212f5761212e612040565b5b61213a8482856120f1565b509392505050565b600082601f8301126121575761215661203b565b5b8135612167848260208601612100565b91505092915050565b6000806000806080858703121561218a57612189611b89565b5b600061219887828801611dd6565b94505060206121a987828801611dd6565b93505060406121ba87828801611d21565b925050606085013567ffffffffffffffff8111156121db576121da611b8e565b5b6121e787828801612142565b91505092959194509250565b6000806040838503121561220a57612209611b89565b5b600061221885828601611dd6565b925050602061222985828601611dd6565b9150509250929050565b7f4e487b7100000000000000000000000000000000000000000000000000000000600052602260045260246000fd5b6000600282049050600182168061227a57607f821691505b60208210810361228d5761228c612233565b5b50919050565b60006060820190506122a86000830186611d95565b6122b56020830185611f0d565b6122c26040830184611d95565b949350505050565b7f4e487b7100000000000000000000000000000000000000000000000000000000600052601160045260246000fd5b600061230482611d00565b91507fffffffffffffffffffffffffffffffffffffffffffffffffffffffffffffffff8203612336576123356122ca565b5b600182019050919050565b7f696e76616c6964206d6f6e746800000000000000000000000000000000000000600082015250565b6000612377600d83611c59565b915061238282612341565b602082019050919050565b600060208201905081810360008301526123a68161236a565b9050919050565b7f696e76616c696420796561720000000000000000000000000000000000000000600082015250565b60006123e3600c83611c59565b91506123ee826123ad565b602082019050919050565b60006020820190508181036000830152612412816123d6565b9050919050565b600081905092915050565b600061242f82611c4e565b6124398185612419565b9350612449818560208601611c6a565b80840191505092915050565b60006124618285612424565b915061246d8284612424565b91508190509392505050565b600081519050919050565b600082825260208201905092915050565b60006124a082612479565b6124aa8185612484565b93506124ba818560208601611c6a565b6124c381611c94565b840191505092915050565b60006080820190506124e36000830187611d95565b6124f06020830186611d95565b6124fd6040830185611f0d565b818103606083015261250f8184612495565b905095945050505050565b60008151905061252981611bbf565b92915050565b60006020828403121561254557612544611b89565b5b60006125538482850161251a565b91505092915050565b7f4e487b7100000000000000000000000000000000000000000000000000000000600052601260045260246000fd5b60006040820190506125a06000830185611d95565b6125ad6020830184611f0d565b939250505056fea2646970667358221220bdcb8f06236e087e844852c2630857e9d5819572d260278e7af9a3d2432a4fa064736f6c63430008130033a26469706673582212205afc9f67632e7a335533e2976d119f20b85ce942c29353b47ef2a0e49737905364736f6c63430008130033",
  "immutableReferences": {},
  "source": "// SPDX-License-Identifier: MIT\r\npragma solidity ^0.8.19;\r\n\r\nimport \"./token.sol\";\r\ncontract tfg {\r\n    struct Transcript {\r\n        address[] teachers;\r\n        mapping(address => bool) teacherExists;\r\n        string hash;\r\n    }\r\n\r\n    struct Person {\r\n        string hash;\r\n        uint role; // 0:does not exists, 1:student, 2:course coordinator, 3:degree coordinator\r\n    }\r\n\r\n    mapping(address => MiNFT) public validations;\r\n    mapping(address => Person) public personToHash;\r\n    // como saber que address le corresponde a cada persona: hacer otro mapa que tenga como clave el hash y como valor el address?\r\n    mapping(address => string) public universityToHash;\r\n    mapping(address => Transcript) public studentToRecord;\r\n    address private _owner;\r\n\r\n    constructor() {\r\n        _owner = msg.sender;\r\n    }\r\n\r\n    modifier onlyOwner() {\r\n        require(msg.sender == _owner, \"Not the contract owner\");\r\n        _;\r\n    }\r\n\r\n    modifier participantExists(address participant) {\r\n        require(\r\n            personToHash[participant].role != 0,\r\n            \"Participant does not exist\"\r\n        );\r\n        _;\r\n    }\r\n\r\n    modifier participantNotExists(address participant) {\r\n        require(\r\n            personToHash[participant].role == 0,\r\n            \"Participant does not exist\"\r\n        );\r\n        _;\r\n    }\r\n\r\n    modifier participantIsStudent(address participant) {\r\n        require(\r\n            personToHash[participant].role == 1,\r\n            \"Participant is not a student\"\r\n        );\r\n        _;\r\n    }\r\n\r\n    modifier participantIsCourseCoord(address participant) {\r\n        require(\r\n            personToHash[participant].role == 2,\r\n            \"Participant is not a course Coordinator\"\r\n        );\r\n        _;\r\n    }\r\n\r\n    modifier participantIsDegreeCoord(address participant) {\r\n        require(\r\n            personToHash[participant].role == 3,\r\n            \"Participant is not a degree Coordinator\"\r\n        );\r\n        _;\r\n    }\r\n\r\n    modifier participantIsTeacher(address participant) {\r\n        require(\r\n            personToHash[participant].role == 2 ||\r\n                personToHash[participant].role == 3,\r\n            \"Participant is not a teacher\"\r\n        );\r\n        _;\r\n    }\r\n\r\n    modifier universityExists(address participant) {\r\n        require(\r\n            bytes(universityToHash[participant]).length != 0,\r\n            \"University does not exist\"\r\n        );\r\n        _;\r\n    }\r\n\r\n    modifier universityNotExists(address participant) {\r\n        require(\r\n            bytes(universityToHash[participant]).length == 0,\r\n            \"University already exists\"\r\n        );\r\n        _;\r\n    }\r\n\r\n    event ParticipantAdded(string message);\r\n\r\n    function addUniversity(\r\n        string memory hash,\r\n        address participant\r\n    ) public onlyOwner universityNotExists(participant) {\r\n        universityToHash[participant] = hash;\r\n        emit ParticipantAdded(\r\n            \"Se ha anadido una nueva universidad correctamente\"\r\n        );\r\n    }\r\n\r\n    function addParticipant(\r\n        string memory _hash,\r\n        address participant,\r\n        uint _role\r\n    ) public universityExists(msg.sender) participantNotExists(participant) {\r\n        personToHash[participant].hash = _hash;\r\n        personToHash[participant].role = _role;\r\n        emit ParticipantAdded(\r\n            \"Se ha anadido un nuevo participante correctamente\"\r\n        );\r\n    }\r\n\r\n    function calculateSHA256(\r\n        string memory user,\r\n        string memory passwd\r\n    ) public pure returns (bytes32) {\r\n        return sha256(abi.encodePacked(user, passwd));\r\n    }\r\n\r\n    function hexStringToBytes32(string memory s) public pure returns (bytes32) {\r\n        require(\r\n            bytes(s).length == 66,\r\n            \"Hex string must be 66 chars (0x + 64 hex chars)\"\r\n        );\r\n\r\n        bytes memory b = bytes(s);\r\n        bytes32 result;\r\n\r\n        assembly {\r\n            result := mload(add(b, 32))\r\n        }\r\n\r\n        return result;\r\n    }\r\n\r\n    function test() public view returns (bytes32) {\r\n        return hexStringToBytes32(universityToHash[msg.sender]);\r\n    }\r\n\r\n    function consultParticipant(\r\n        string memory user,\r\n        string memory passwd\r\n    ) public view participantExists(msg.sender) returns (bool) {\r\n        bytes32 generatedHash = sha256(abi.encodePacked(user, passwd));\r\n        bytes32 storedHash = hexStringToBytes32(personToHash[msg.sender].hash);\r\n\r\n        return storedHash == generatedHash;\r\n    }\r\n\r\n    function consultUniversity(\r\n        string memory user,\r\n        string memory passwd\r\n    ) public view universityExists(msg.sender) returns (bool) {\r\n        bytes32 generatedHash = sha256(abi.encodePacked(user, passwd));\r\n        bytes32 storedHash = hexStringToBytes32(universityToHash[msg.sender]); // Convertir string a bytes32\r\n\r\n        return storedHash == generatedHash;\r\n        /* return\r\n            keccak256(abi.encodePacked(universityToHash[msg.sender])) ==\r\n            generatedHash;\r\n\r\n        keccak256(abi.encodePacked(personToHash[msg.sender])) ==\r\n            keccak256(abi.encodePacked(user, passwd, \"random_salt_value\"));*/\r\n    }\r\n\r\n    function addTeacherToTranscript(\r\n        address student,\r\n        address profesor\r\n    ) public universityExists(msg.sender) participantIsTeacher(profesor) {\r\n        require(\r\n            !studentToRecord[student].teacherExists[profesor],\r\n            \"Teacher already added\"\r\n        );\r\n        studentToRecord[student].teachers.push(profesor);\r\n        studentToRecord[student].teacherExists[profesor] = true;\r\n    }\r\n\r\n    function getProfessors(\r\n        address student\r\n    ) public view returns (address[] memory) {\r\n        return studentToRecord[student].teachers;\r\n    }\r\n\r\n    function updateMark(\r\n        string memory hash,\r\n        address participant\r\n    )\r\n        public\r\n        participantIsTeacher(msg.sender)\r\n        participantIsStudent(participant)\r\n    {\r\n        personToHash[participant].hash = hash;\r\n    }\r\n\r\n    function removeParticipant(\r\n        address participant\r\n    ) public onlyOwner participantExists(participant) {\r\n        delete personToHash[participant];\r\n    }\r\n\r\n    function addValidation(\r\n        string memory srcCourse,\r\n        string memory dstCourse,\r\n        uint8 month,\r\n        uint16 year\r\n    ) public participantIsDegreeCoord(msg.sender) {\r\n        MiNFT nf = new MiNFT(srcCourse, dstCourse, msg.sender);\r\n        nf.setValidityPeriod(month, year);\r\n        validations[msg.sender] = nf;\r\n    }\r\n\r\n    function transferValidations(\r\n        address origin,\r\n        address destination\r\n    )\r\n        public\r\n        universityExists(msg.sender)\r\n        participantIsDegreeCoord(origin)\r\n        participantIsDegreeCoord(destination)\r\n    {\r\n        MiNFT nf = validations[origin];\r\n        nf.transferOwnership(destination);\r\n    }\r\n}\r\n",
  "sourcePath": "C:\\Users\\Agustin\\Desktop\\CarreraUCM\\TFG\\tfg\\Blockchain\\truffle\\contracts\\tfg.sol",
  "compiler": {
    "name": "solc",
    "version": "0.8.19+commit.7dd6d404.Emscripten.clang"
  },
  "schemaVersion": "3.4.16",
  "updatedAt": "2025-02-04T10:20:45.893Z",
  "networkType": "ethereum",
  "devdoc": {
    "kind": "dev",
    "methods": {},
    "version": 1
  },
  "userdoc": {
    "kind": "user",
    "methods": {},
    "version": 1
  }
}