{
  "contractName": "tfg",
  "abi": [
    {
      "inputs": [],
      "stateMutability": "nonpayable",
      "type": "constructor"
    },
    {
      "anonymous": false,
      "inputs": [
        {
          "indexed": false,
          "internalType": "string",
          "name": "message",
          "type": "string"
        }
      ],
      "name": "ParticipantAdded",
      "type": "event"
    },
    {
      "inputs": [
        {
          "internalType": "address",
          "name": "",
          "type": "address"
        }
      ],
      "name": "personToHash",
      "outputs": [
        {
          "internalType": "string",
          "name": "hash",
          "type": "string"
        },
        {
          "internalType": "uint256",
          "name": "role",
          "type": "uint256"
        }
      ],
      "stateMutability": "view",
      "type": "function",
      "constant": true
    },
    {
      "inputs": [
        {
          "internalType": "address",
          "name": "",
          "type": "address"
        }
      ],
      "name": "studentToRecord",
      "outputs": [
        {
          "internalType": "string",
          "name": "hash",
          "type": "string"
        }
      ],
      "stateMutability": "view",
      "type": "function",
      "constant": true
    },
    {
      "inputs": [
        {
          "internalType": "address",
          "name": "",
          "type": "address"
        }
      ],
      "name": "universityToHash",
      "outputs": [
        {
          "internalType": "string",
          "name": "",
          "type": "string"
        }
      ],
      "stateMutability": "view",
      "type": "function",
      "constant": true
    },
    {
      "inputs": [],
      "name": "validations",
      "outputs": [
        {
          "internalType": "contract MiNFT",
          "name": "",
          "type": "address"
        }
      ],
      "stateMutability": "view",
      "type": "function",
      "constant": true
    },
    {
      "inputs": [
        {
          "internalType": "string",
          "name": "hash",
          "type": "string"
        },
        {
          "internalType": "address",
          "name": "participant",
          "type": "address"
        }
      ],
      "name": "addUniversity",
      "outputs": [],
      "stateMutability": "nonpayable",
      "type": "function"
    },
    {
      "inputs": [
        {
          "internalType": "string",
          "name": "_hash",
          "type": "string"
        },
        {
          "internalType": "address",
          "name": "participant",
          "type": "address"
        },
        {
          "internalType": "uint256",
          "name": "_role",
          "type": "uint256"
        }
      ],
      "name": "addParticipant",
      "outputs": [],
      "stateMutability": "nonpayable",
      "type": "function"
    },
    {
      "inputs": [
        {
          "internalType": "string",
          "name": "user",
          "type": "string"
        },
        {
          "internalType": "string",
          "name": "passwd",
          "type": "string"
        }
      ],
      "name": "calculateSHA256",
      "outputs": [
        {
          "internalType": "bytes32",
          "name": "",
          "type": "bytes32"
        }
      ],
      "stateMutability": "pure",
      "type": "function",
      "constant": true
    },
    {
      "inputs": [
        {
          "internalType": "string",
          "name": "s",
          "type": "string"
        }
      ],
      "name": "hexStringToBytes32",
      "outputs": [
        {
          "internalType": "bytes32",
          "name": "",
          "type": "bytes32"
        }
      ],
      "stateMutability": "pure",
      "type": "function",
      "constant": true
    },
    {
      "inputs": [],
      "name": "test",
      "outputs": [
        {
          "internalType": "bytes32",
          "name": "",
          "type": "bytes32"
        }
      ],
      "stateMutability": "view",
      "type": "function",
      "constant": true
    },
    {
      "inputs": [
        {
          "internalType": "string",
          "name": "user",
          "type": "string"
        },
        {
          "internalType": "string",
          "name": "passwd",
          "type": "string"
        }
      ],
      "name": "consultParticipant",
      "outputs": [
        {
          "internalType": "bool",
          "name": "",
          "type": "bool"
        }
      ],
      "stateMutability": "view",
      "type": "function",
      "constant": true
    },
    {
      "inputs": [
        {
          "internalType": "string",
          "name": "user",
          "type": "string"
        },
        {
          "internalType": "string",
          "name": "passwd",
          "type": "string"
        }
      ],
      "name": "consultUniversity",
      "outputs": [
        {
          "internalType": "bool",
          "name": "",
          "type": "bool"
        }
      ],
      "stateMutability": "view",
      "type": "function",
      "constant": true
    },
    {
      "inputs": [
        {
          "internalType": "address",
          "name": "student",
          "type": "address"
        },
        {
          "internalType": "address",
          "name": "profesor",
          "type": "address"
        }
      ],
      "name": "addTeacherToTranscript",
      "outputs": [],
      "stateMutability": "nonpayable",
      "type": "function"
    },
    {
      "inputs": [
        {
          "internalType": "address",
          "name": "student",
          "type": "address"
        }
      ],
      "name": "getProfessors",
      "outputs": [
        {
          "internalType": "address[]",
          "name": "",
          "type": "address[]"
        }
      ],
      "stateMutability": "view",
      "type": "function",
      "constant": true
    },
    {
      "inputs": [
        {
          "internalType": "string",
          "name": "hash",
          "type": "string"
        },
        {
          "internalType": "address",
          "name": "participant",
          "type": "address"
        }
      ],
      "name": "updateMark",
      "outputs": [],
      "stateMutability": "nonpayable",
      "type": "function"
    },
    {
      "inputs": [
        {
          "internalType": "string",
          "name": "hash",
          "type": "string"
        },
        {
          "internalType": "address",
          "name": "participant",
          "type": "address"
        }
      ],
      "name": "updateTranscript",
      "outputs": [],
      "stateMutability": "nonpayable",
      "type": "function"
    },
    {
      "inputs": [
        {
          "internalType": "address",
          "name": "participant",
          "type": "address"
        }
      ],
      "name": "removeParticipant",
      "outputs": [],
      "stateMutability": "nonpayable",
      "type": "function"
    },
    {
      "inputs": [],
      "name": "createValidation",
      "outputs": [],
      "stateMutability": "nonpayable",
      "type": "function"
    },
    {
      "inputs": [
        {
          "internalType": "address",
          "name": "degreeCoord",
          "type": "address"
        },
        {
          "internalType": "string",
          "name": "srcCourse",
          "type": "string"
        },
        {
          "internalType": "string",
          "name": "dstCourse",
          "type": "string"
        },
        {
          "internalType": "uint8",
          "name": "month",
          "type": "uint8"
        },
        {
          "internalType": "uint16",
          "name": "year",
          "type": "uint16"
        }
      ],
      "name": "addValidation",
      "outputs": [
        {
          "internalType": "uint256",
          "name": "",
          "type": "uint256"
        }
      ],
      "stateMutability": "nonpayable",
      "type": "function"
    },
    {
      "inputs": [
        {
          "internalType": "uint256",
          "name": "id",
          "type": "uint256"
        },
        {
          "internalType": "uint8",
          "name": "month",
          "type": "uint8"
        },
        {
          "internalType": "uint16",
          "name": "year",
          "type": "uint16"
        }
      ],
      "name": "updateValidation",
      "outputs": [],
      "stateMutability": "nonpayable",
      "type": "function"
    },
    {
      "inputs": [
        {
          "internalType": "uint256",
          "name": "id",
          "type": "uint256"
        },
        {
          "internalType": "address",
          "name": "origin",
          "type": "address"
        },
        {
          "internalType": "address",
          "name": "destination",
          "type": "address"
        }
      ],
      "name": "transferValidations",
      "outputs": [],
      "stateMutability": "nonpayable",
      "type": "function"
    }
  ],
  "bytecode": "0x608060405234801561001057600080fd5b50600480546001600160a01b031916331790556134fd806100326000396000f3fe60806040523480156200001157600080fd5b5060043610620001455760003560e01c806379b247f011620000bb578063c5daf294116200007a578063c5daf29414620002f7578063d8daf1471462000301578063de17f7201462000318578063f893d7771462000345578063f8a8fd6d146200035c57600080fd5b806379b247f01462000274578063877f8667146200028b5780638b6bb00f14620002a25780639b30f0dc14620002b9578063a287bbea14620002d057600080fd5b8063511fbc351162000108578063511fbc3514620001e357806353532d0c14620001fa57806353d484721462000211578063668a20011462000237578063758be551146200024e57600080fd5b806301034345146200014a57806322c4527314620001635780632945c44b146200017a57806329ff405b14620001a65780634f0466bf14620001bd575b600080fd5b620001616200015b366004620014a3565b62000366565b005b6200016162000174366004620014a3565b62000491565b620001916200018b366004620014f7565b620004d1565b60405190151581526020015b60405180910390f35b62000161620001b736600462001562565b6200064a565b620001d4620001ce366004620015bf565b62000796565b6040516200019d919062001631565b620001d4620001f4366004620015bf565b6200083e565b620001616200020b36600462001646565b620008e0565b6200022862000222366004620016ac565b62000a1a565b6040519081526020016200019d565b6200016162000248366004620015bf565b62000b88565b620002656200025f366004620015bf565b62000c26565b6040516200019d91906200174f565b62000161620002853660046200179e565b62000c9e565b620001916200029c366004620014f7565b62000d4d565b62000228620002b3366004620017d6565b62000e23565b62000161620002ca366004620014a3565b62000e98565b620002e7620002e1366004620015bf565b62000fea565b6040516200019d92919062001817565b6200016162001096565b6200022862000312366004620014f7565b62001122565b6000546200032c906001600160a01b031681565b6040516001600160a01b0390911681526020016200019d565b62000161620003563660046200183b565b620011a1565b6200022862001349565b336000818152600160208190526040909120015460021480620003a557506001600160a01b038116600090815260016020819052604090912001546003145b620003f75760405162461bcd60e51b815260206004820152601c60248201527f5061727469636970616e74206973206e6f74206120746561636865720000000060448201526064015b60405180910390fd5b6001600160a01b0382166000908152600160208190526040909120810154839114620004665760405162461bcd60e51b815260206004820152601c60248201527f5061727469636970616e74206973206e6f7420612073747564656e74000000006044820152606401620003ee565b6001600160a01b03831660009081526001602052604090206200048a8582620018f9565b5050505050565b3360008181526002602052604090208054620004ad906200186a565b9050600003620003f75760405162461bcd60e51b8152600401620003ee90620019c6565b3360008181526002602052604081208054919291620004f0906200186a565b9050600003620005145760405162461bcd60e51b8152600401620003ee90620019c6565b6000600285856040516020016200052d929190620019fd565b60408051601f1981840301815290829052620005499162001a30565b602060405180830381855afa15801562000567573d6000803e3d6000fd5b5050506040513d601f19601f820116820180604052508101906200058c919062001a4e565b336000908152600260205260408120805492935090916200063d9190620005b3906200186a565b80601f0160208091040260200160405190810160405280929190818152602001828054620005e1906200186a565b8015620006325780601f10620006065761010080835404028352916020019162000632565b820191906000526020600020905b8154815290600101906020018083116200061457829003601f168201915b505050505062000e23565b9190911495945050505050565b336000818152600260205260409020805462000666906200186a565b90506000036200068a5760405162461bcd60e51b8152600401620003ee90620019c6565b6001600160a01b03831660009081526001602081905260409091200154839015620006c95760405162461bcd60e51b8152600401620003ee9062001a68565b6001600160a01b0384166000908152600160205260409020620006ed8682620018f9565b506001600160a01b03841660009081526001602081905260409182902001849055517f65a85354bc5ae3125c1bb8ebfec33fbeafc83983dfaae96d5cec1bb02abc4cb390620007879060208082526031908201527f536520686120616e616469646f20756e206e7565766f207061727469636970616040820152706e746520636f7272656374616d656e746560781b606082015260800190565b60405180910390a15050505050565b6003602052600090815260409020600281018054620007b5906200186a565b80601f0160208091040260200160405190810160405280929190818152602001828054620007e3906200186a565b8015620008345780601f10620008085761010080835404028352916020019162000834565b820191906000526020600020905b8154815290600101906020018083116200081657829003601f168201915b5050505050905081565b6002602052600090815260409020805462000859906200186a565b80601f016020809104026020016040519081016040528092919081815260200182805462000887906200186a565b8015620008d85780601f10620008ac57610100808354040283529160200191620008d8565b820191906000526020600020905b815481529060010190602001808311620008ba57829003601f168201915b505050505081565b3360008181526002602052604090208054620008fc906200186a565b9050600003620009205760405162461bcd60e51b8152600401620003ee90620019c6565b6001600160a01b038316600090815260016020819052604090912001548390600314620009615760405162461bcd60e51b8152600401620003ee9062001a9f565b6001600160a01b038316600090815260016020819052604090912001548390600314620009a25760405162461bcd60e51b8152600401620003ee9062001a9f565b600054604051636b11cec160e01b8152600481018890526001600160a01b038781166024830152868116604483015290911690636b11cec190606401600060405180830381600087803b158015620009f957600080fd5b505af115801562000a0e573d6000803e3d6000fd5b50505050505050505050565b6004546000906001600160a01b0316331462000a4a5760405162461bcd60e51b8152600401620003ee9062001ae6565b6001600160a01b03861660009081526001602081905260409091200154869060031462000a8b5760405162461bcd60e51b8152600401620003ee9062001a9f565b600080546040516351f71c5760e11b81526001600160a01b039091169063a3ee38ae9062000ac2908b908b908b9060040162001b16565b6020604051808303816000875af115801562000ae2573d6000803e3d6000fd5b505050506040513d601f19601f8201168201806040525081019062000b08919062001a4e565b60005460405163a7c3804560e01b81526004810183905260ff8816602482015261ffff871660448201529192506001600160a01b03169063a7c3804590606401600060405180830381600087803b15801562000b6357600080fd5b505af115801562000b78573d6000803e3d6000fd5b50929a9950505050505050505050565b6004546001600160a01b0316331462000bb55760405162461bcd60e51b8152600401620003ee9062001ae6565b6001600160a01b03811660009081526001602081905260408220015482910362000bf35760405162461bcd60e51b8152600401620003ee9062001a68565b6001600160a01b03821660009081526001602052604081209062000c18828262001370565b600182016000905550505050565b6001600160a01b03811660009081526003602090815260409182902080548351818402810184019094528084526060939283018282801562000c9257602002820191906000526020600020905b81546001600160a01b0316815260019091019060200180831162000c73575b50505050509050919050565b336000818152600160208190526040909120015460031462000cd45760405162461bcd60e51b8152600401620003ee9062001a9f565b60005460405163a7c3804560e01b81526004810186905260ff8516602482015261ffff841660448201526001600160a01b039091169063a7c3804590606401600060405180830381600087803b15801562000d2e57600080fd5b505af115801562000d43573d6000803e3d6000fd5b5050505050505050565b33600081815260016020819052604082200154909190820362000d845760405162461bcd60e51b8152600401620003ee9062001a68565b60006002858560405160200162000d9d929190620019fd565b60408051601f198184030181529082905262000db99162001a30565b602060405180830381855afa15801562000dd7573d6000803e3d6000fd5b5050506040513d601f19601f8201168201806040525081019062000dfc919062001a4e565b336000908152600160205260408120805492935090916200063d9190620005b3906200186a565b6000815160421462000e905760405162461bcd60e51b815260206004820152602f60248201527f48657820737472696e67206d757374206265203636206368617273202830782060448201526e2b203634206865782063686172732960881b6064820152608401620003ee565b506020015190565b6004546001600160a01b0316331462000ec55760405162461bcd60e51b8152600401620003ee9062001ae6565b6001600160a01b0381166000908152600260205260409020805482919062000eed906200186a565b15905062000f3e5760405162461bcd60e51b815260206004820152601960248201527f556e697665727369747920616c726561647920657869737473000000000000006044820152606401620003ee565b6001600160a01b038216600090815260026020526040902062000f628482620018f9565b507f65a85354bc5ae3125c1bb8ebfec33fbeafc83983dfaae96d5cec1bb02abc4cb360405162000fdd9060208082526031908201527f536520686120616e616469646f20756e61206e7565766120756e69766572736960408201527064616420636f7272656374616d656e746560781b606082015260800190565b60405180910390a1505050565b60016020526000908152604090208054819062001007906200186a565b80601f016020809104026020016040519081016040528092919081815260200182805462001035906200186a565b8015620010865780601f106200105a5761010080835404028352916020019162001086565b820191906000526020600020905b8154815290600101906020018083116200106857829003601f168201915b5050505050908060010154905082565b6004546001600160a01b03163314620010c35760405162461bcd60e51b8152600401620003ee9062001ae6565b33604051620010d290620013b2565b6001600160a01b039091168152602001604051809103906000f080158015620010ff573d6000803e3d6000fd5b50600080546001600160a01b0319166001600160a01b0392909216919091179055565b6000600283836040516020016200113b929190620019fd565b60408051601f1981840301815290829052620011579162001a30565b602060405180830381855afa15801562001175573d6000803e3d6000fd5b5050506040513d601f19601f820116820180604052508101906200119a919062001a4e565b9392505050565b3360008181526002602052604090208054620011bd906200186a565b9050600003620011e15760405162461bcd60e51b8152600401620003ee90620019c6565b6001600160a01b038216600090815260016020819052604090912001548290600214806200122b57506001600160a01b038116600090815260016020819052604090912001546003145b620012795760405162461bcd60e51b815260206004820152601c60248201527f5061727469636970616e74206973206e6f7420612074656163686572000000006044820152606401620003ee565b6001600160a01b038085166000908152600360209081526040808320938716835260019093019052205460ff1615620012ed5760405162461bcd60e51b815260206004820152601560248201527415195858da195c88185b1c9958591e481859191959605a1b6044820152606401620003ee565b50506001600160a01b03918216600090815260036020908152604080832080546001808201835582865284862090910180546001600160a01b03191696909716958617909655938352928401905220805460ff19169091179055565b33600090815260026020526040812080546200136b9190620005b3906200186a565b905090565b5080546200137e906200186a565b6000825580601f106200138f575050565b601f016020900490600052602060002090810190620013af9190620013c0565b50565b61196d8062001b5b83390190565b5b80821115620013d75760008155600101620013c1565b5090565b634e487b7160e01b600052604160045260246000fd5b600082601f8301126200140357600080fd5b813567ffffffffffffffff80821115620014215762001421620013db565b604051601f8301601f19908116603f011681019082821181831017156200144c576200144c620013db565b816040528381528660208588010111156200146657600080fd5b836020870160208301376000602085830101528094505050505092915050565b80356001600160a01b03811681146200149e57600080fd5b919050565b60008060408385031215620014b757600080fd5b823567ffffffffffffffff811115620014cf57600080fd5b620014dd85828601620013f1565b925050620014ee6020840162001486565b90509250929050565b600080604083850312156200150b57600080fd5b823567ffffffffffffffff808211156200152457600080fd5b6200153286838701620013f1565b935060208501359150808211156200154957600080fd5b506200155885828601620013f1565b9150509250929050565b6000806000606084860312156200157857600080fd5b833567ffffffffffffffff8111156200159057600080fd5b6200159e86828701620013f1565b935050620015af6020850162001486565b9150604084013590509250925092565b600060208284031215620015d257600080fd5b6200119a8262001486565b60005b83811015620015fa578181015183820152602001620015e0565b50506000910152565b600081518084526200161d816020860160208601620015dd565b601f01601f19169290920160200192915050565b6020815260006200119a602083018462001603565b6000806000606084860312156200165c57600080fd5b833592506200166e6020850162001486565b91506200167e6040850162001486565b90509250925092565b803560ff811681146200149e57600080fd5b803561ffff811681146200149e57600080fd5b600080600080600060a08688031215620016c557600080fd5b620016d08662001486565b9450602086013567ffffffffffffffff80821115620016ee57600080fd5b620016fc89838a01620013f1565b955060408801359150808211156200171357600080fd5b506200172288828901620013f1565b935050620017336060870162001687565b9150620017436080870162001699565b90509295509295909350565b6020808252825182820181905260009190848201906040850190845b81811015620017925783516001600160a01b0316835292840192918401916001016200176b565b50909695505050505050565b600080600060608486031215620017b457600080fd5b83359250620017c66020850162001687565b91506200167e6040850162001699565b600060208284031215620017e957600080fd5b813567ffffffffffffffff8111156200180157600080fd5b6200180f84828501620013f1565b949350505050565b6040815260006200182c604083018562001603565b90508260208301529392505050565b600080604083850312156200184f57600080fd5b6200185a8362001486565b9150620014ee6020840162001486565b600181811c908216806200187f57607f821691505b602082108103620018a057634e487b7160e01b600052602260045260246000fd5b50919050565b601f821115620018f457600081815260208120601f850160051c81016020861015620018cf5750805b601f850160051c820191505b81811015620018f057828155600101620018db565b5050505b505050565b815167ffffffffffffffff811115620019165762001916620013db565b6200192e816200192784546200186a565b84620018a6565b602080601f8311600181146200196657600084156200194d5750858301515b600019600386901b1c1916600185901b178555620018f0565b600085815260208120601f198616915b82811015620019975788860151825594840194600190910190840162001976565b5085821015620019b65787850151600019600388901b60f8161c191681555b5050505050600190811b01905550565b60208082526019908201527f556e697665727369747920646f6573206e6f7420657869737400000000000000604082015260600190565b6000835162001a11818460208801620015dd565b83519083019062001a27818360208801620015dd565b01949350505050565b6000825162001a44818460208701620015dd565b9190910192915050565b60006020828403121562001a6157600080fd5b5051919050565b6020808252601a908201527f5061727469636970616e7420646f6573206e6f74206578697374000000000000604082015260600190565b60208082526027908201527f5061727469636970616e74206973206e6f7420612064656772656520436f6f726040820152663234b730ba37b960c91b606082015260800190565b6020808252601690820152752737ba103a34329031b7b73a3930b1ba1037bbb732b960511b604082015260600190565b6001600160a01b038416815260606020820181905260009062001b3c9083018562001603565b828103604084015262001b50818562001603565b969550505050505056fe60806040523480156200001157600080fd5b506040516200196d3803806200196d833981016040819052620000349162000137565b3360405180604001604052806005815260200164135a53919560da1b815250604051806040016040528060048152602001631353919560e21b81525081600090816200008191906200020e565b5060016200009082826200020e565b5050506001600160a01b038116620000c257604051631e4fbdf760e01b81526000600482015260240160405180910390fd5b620000cd81620000e5565b506000600755620000de81620000e5565b50620002da565b600680546001600160a01b038381166001600160a01b0319831681179093556040519116919082907f8be0079c531659141344cd1fd0a4f28419497f9722a3daafe3b4186f6b6457e090600090a35050565b6000602082840312156200014a57600080fd5b81516001600160a01b03811681146200016257600080fd5b9392505050565b634e487b7160e01b600052604160045260246000fd5b600181811c908216806200019457607f821691505b602082108103620001b557634e487b7160e01b600052602260045260246000fd5b50919050565b601f8211156200020957600081815260208120601f850160051c81016020861015620001e45750805b601f850160051c820191505b818110156200020557828155600101620001f0565b5050505b505050565b81516001600160401b038111156200022a576200022a62000169565b62000242816200023b84546200017f565b84620001bb565b602080601f8311600181146200027a5760008415620002615750858301515b600019600386901b1c1916600185901b17855562000205565b600085815260208120601f198616915b82811015620002ab578886015182559484019460019091019084016200028a565b5085821015620002ca5787850151600019600388901b60f8161c191681555b5050505050600190811b01905550565b61168380620002ea6000396000f3fe608060405234801561001057600080fd5b506004361061012c5760003560e01c8063715018a6116100ad578063a7c3804511610071578063a7c38045146102b0578063b88d4fde146102c3578063c87b56dd146102d6578063e985e9c5146102e9578063f2fde38b146102fc57600080fd5b8063715018a6146102695780638da5cb5b1461027157806395d89b4114610282578063a22cb4651461028a578063a3ee38ae1461029d57600080fd5b80632b57298b116100f45780632b57298b146101c157806342842e0e1461020f5780636352211e146102225780636b11cec11461023557806370a082311461024857600080fd5b806301ffc9a71461013157806306fdde0314610159578063081812fc1461016e578063095ea7b31461019957806323b872dd146101ae575b600080fd5b61014461013f366004611091565b61030f565b60405190151581526020015b60405180910390f35b610161610361565b60405161015091906110fe565b61018161017c366004611111565b6103f3565b6040516001600160a01b039091168152602001610150565b6101ac6101a7366004611146565b61041c565b005b6101ac6101bc366004611170565b61042b565b6101f36101cf366004611111565b60009081526008602052604090206002015460ff81169161010090910461ffff1690565b6040805160ff909316835261ffff909116602083015201610150565b6101ac61021d366004611170565b6104bb565b610181610230366004611111565b6104db565b6101ac6102433660046111ac565b6104e6565b61025b6102563660046111e8565b6104f1565b604051908152602001610150565b6101ac610539565b6006546001600160a01b0316610181565b61016161054d565b6101ac610298366004611203565b61055c565b61025b6102ab3660046112eb565b610567565b6101ac6102be36600461135f565b6105d8565b6101ac6102d13660046113ae565b610752565b6101616102e4366004611111565b61076a565b6101446102f736600461142a565b6107df565b6101ac61030a3660046111e8565b61080d565b60006001600160e01b031982166380ac58cd60e01b148061034057506001600160e01b03198216635b5e139f60e01b145b8061035b57506301ffc9a760e01b6001600160e01b03198316145b92915050565b6060600080546103709061145d565b80601f016020809104026020016040519081016040528092919081815260200182805461039c9061145d565b80156103e95780601f106103be576101008083540402835291602001916103e9565b820191906000526020600020905b8154815290600101906020018083116103cc57829003601f168201915b5050505050905090565b60006103fe8261084b565b506000828152600460205260409020546001600160a01b031661035b565b610427828233610884565b5050565b6001600160a01b03821661045a57604051633250574960e11b8152600060048201526024015b60405180910390fd5b6000610467838333610891565b9050836001600160a01b0316816001600160a01b0316146104b5576040516364283d7b60e01b81526001600160a01b0380861660048301526024820184905282166044820152606401610451565b50505050565b6104d683838360405180602001604052806000815250610752565b505050565b600061035b8261084b565b6104d682828561098a565b60006001600160a01b03821661051d576040516322718ad960e21b815260006004820152602401610451565b506001600160a01b031660009081526003602052604090205490565b6105416109a5565b61054b60006109d2565b565b6060600180546103709061145d565b610427338383610a24565b60006105716109a5565b6007805490600061058183611497565b919050555061059284600754610ac3565b60075460009081526008602052604090206105ad8482611504565b5060075460009081526008602052604090206001016105cc8382611504565b50506007549392505050565b60018260ff16101580156105f05750600c8260ff1611155b61062c5760405162461bcd60e51b815260206004820152600d60248201526c0d2dcecc2d8d2c840dadedce8d609b1b6044820152606401610451565b61076c8161ffff161015801561064857506108348161ffff1611155b6106835760405162461bcd60e51b815260206004820152600c60248201526b34b73b30b634b2103cb2b0b960a11b6044820152606401610451565b6000838152600460205260409020546001600160a01b031633146107005760405162461bcd60e51b815260206004820152602e60248201527f5468697320636f6f7264696e61746f7220646f6573206e6f742068617665207460448201526d3430ba103b30b634b230ba34b7b760911b6064820152608401610451565b60408051808201825260ff938416815261ffff92831660208083019182526000968752600890529190942093516002909401805491519092166101000262ffffff199091169390921692909217179055565b61075d84848461042b565b6104b53385858585610add565b60606107758261084b565b50600061078d60408051602081019091526000815290565b905060008151116107ad57604051806020016040528060008152506107d8565b806107b784610c08565b6040516020016107c89291906115c4565b6040516020818303038152906040525b9392505050565b6001600160a01b03918216600090815260056020908152604080832093909416825291909152205460ff1690565b6108156109a5565b6001600160a01b03811661083f57604051631e4fbdf760e01b815260006004820152602401610451565b610848816109d2565b50565b6000818152600260205260408120546001600160a01b03168061035b57604051637e27328960e01b815260048101849052602401610451565b6104d68383836001610c9b565b6000828152600260205260408120546001600160a01b03908116908316156108be576108be818486610da1565b6001600160a01b038116156108fc576108db600085600080610c9b565b6001600160a01b038116600090815260036020526040902080546000190190555b6001600160a01b0385161561092b576001600160a01b0385166000908152600360205260409020805460010190555b60008481526002602052604080822080546001600160a01b0319166001600160a01b0389811691821790925591518793918516917fddf252ad1be2c89b69c2b068fc378daa952ba7f163c4a11628f55a4df523b3ef91a4949350505050565b6104d683838360405180602001604052806000815250610e05565b6006546001600160a01b0316331461054b5760405163118cdaa760e01b8152336004820152602401610451565b600680546001600160a01b038381166001600160a01b0319831681179093556040519116919082907f8be0079c531659141344cd1fd0a4f28419497f9722a3daafe3b4186f6b6457e090600090a35050565b6001600160a01b038216610a5657604051630b61174360e31b81526001600160a01b0383166004820152602401610451565b6001600160a01b03838116600081815260056020908152604080832094871680845294825291829020805460ff191686151590811790915591519182527f17307eab39ab6107e8899845ad3d59bd9653f200f220920489ca2b5937696c31910160405180910390a3505050565b610427828260405180602001604052806000815250610e10565b6001600160a01b0383163b15610c0157604051630a85bd0160e11b81526001600160a01b0384169063150b7a0290610b1f9088908890879087906004016115f3565b6020604051808303816000875af1925050508015610b5a575060408051601f3d908101601f19168201909252610b5791810190611630565b60015b610bc3573d808015610b88576040519150601f19603f3d011682016040523d82523d6000602084013e610b8d565b606091505b508051600003610bbb57604051633250574960e11b81526001600160a01b0385166004820152602401610451565b805181602001fd5b6001600160e01b03198116630a85bd0160e11b14610bff57604051633250574960e11b81526001600160a01b0385166004820152602401610451565b505b5050505050565b60606000610c1583610e28565b600101905060008167ffffffffffffffff811115610c3557610c3561123f565b6040519080825280601f01601f191660200182016040528015610c5f576020820181803683370190505b5090508181016020015b600019016f181899199a1a9b1b9c1cb0b131b232b360811b600a86061a8153600a8504945084610c6957509392505050565b8080610caf57506001600160a01b03821615155b15610d71576000610cbf8461084b565b90506001600160a01b03831615801590610ceb5750826001600160a01b0316816001600160a01b031614155b8015610cfe5750610cfc81846107df565b155b15610d275760405163a9fbf51f60e01b81526001600160a01b0384166004820152602401610451565b8115610d6f5783856001600160a01b0316826001600160a01b03167f8c5be1e5ebec7d5bd14f71427d1e84f3dd0314c0f7b2291e5b200ac8c7c3b92560405160405180910390a45b505b5050600090815260046020526040902080546001600160a01b0319166001600160a01b0392909216919091179055565b610dac838383610f00565b6104d6576001600160a01b038316610dda57604051637e27328960e01b815260048101829052602401610451565b60405163177e802f60e01b81526001600160a01b038316600482015260248101829052604401610451565b61075d848484610f66565b610e1a8383611016565b6104d6336000858585610add565b60008072184f03e93ff9f4daa797ed6e38ed64bf6a1f0160401b8310610e675772184f03e93ff9f4daa797ed6e38ed64bf6a1f0160401b830492506040015b6d04ee2d6d415b85acef81000000008310610e93576d04ee2d6d415b85acef8100000000830492506020015b662386f26fc100008310610eb157662386f26fc10000830492506010015b6305f5e1008310610ec9576305f5e100830492506008015b6127108310610edd57612710830492506004015b60648310610eef576064830492506002015b600a831061035b5760010192915050565b60006001600160a01b03831615801590610f5e5750826001600160a01b0316846001600160a01b03161480610f3a5750610f3a84846107df565b80610f5e57506000828152600460205260409020546001600160a01b038481169116145b949350505050565b6001600160a01b038216610f9057604051633250574960e11b815260006004820152602401610451565b6000610f9e83836000610891565b90506001600160a01b038116610fca57604051637e27328960e01b815260048101839052602401610451565b836001600160a01b0316816001600160a01b0316146104b5576040516364283d7b60e01b81526001600160a01b0380861660048301526024820184905282166044820152606401610451565b6001600160a01b03821661104057604051633250574960e11b815260006004820152602401610451565b600061104e83836000610891565b90506001600160a01b038116156104d6576040516339e3563760e11b815260006004820152602401610451565b6001600160e01b03198116811461084857600080fd5b6000602082840312156110a357600080fd5b81356107d88161107b565b60005b838110156110c95781810151838201526020016110b1565b50506000910152565b600081518084526110ea8160208601602086016110ae565b601f01601f19169290920160200192915050565b6020815260006107d860208301846110d2565b60006020828403121561112357600080fd5b5035919050565b80356001600160a01b038116811461114157600080fd5b919050565b6000806040838503121561115957600080fd5b6111628361112a565b946020939093013593505050565b60008060006060848603121561118557600080fd5b61118e8461112a565b925061119c6020850161112a565b9150604084013590509250925092565b6000806000606084860312156111c157600080fd5b833592506111d16020850161112a565b91506111df6040850161112a565b90509250925092565b6000602082840312156111fa57600080fd5b6107d88261112a565b6000806040838503121561121657600080fd5b61121f8361112a565b91506020830135801515811461123457600080fd5b809150509250929050565b634e487b7160e01b600052604160045260246000fd5b600067ffffffffffffffff808411156112705761127061123f565b604051601f8501601f19908116603f011681019082821181831017156112985761129861123f565b816040528093508581528686860111156112b157600080fd5b858560208301376000602087830101525050509392505050565b600082601f8301126112dc57600080fd5b6107d883833560208501611255565b60008060006060848603121561130057600080fd5b6113098461112a565b9250602084013567ffffffffffffffff8082111561132657600080fd5b611332878388016112cb565b9350604086013591508082111561134857600080fd5b50611355868287016112cb565b9150509250925092565b60008060006060848603121561137457600080fd5b83359250602084013560ff8116811461138c57600080fd5b9150604084013561ffff811681146113a357600080fd5b809150509250925092565b600080600080608085870312156113c457600080fd5b6113cd8561112a565b93506113db6020860161112a565b925060408501359150606085013567ffffffffffffffff8111156113fe57600080fd5b8501601f8101871361140f57600080fd5b61141e87823560208401611255565b91505092959194509250565b6000806040838503121561143d57600080fd5b6114468361112a565b91506114546020840161112a565b90509250929050565b600181811c9082168061147157607f821691505b60208210810361149157634e487b7160e01b600052602260045260246000fd5b50919050565b6000600182016114b757634e487b7160e01b600052601160045260246000fd5b5060010190565b601f8211156104d657600081815260208120601f850160051c810160208610156114e55750805b601f850160051c820191505b81811015610bff578281556001016114f1565b815167ffffffffffffffff81111561151e5761151e61123f565b6115328161152c845461145d565b846114be565b602080601f831160018114611567576000841561154f5750858301515b600019600386901b1c1916600185901b178555610bff565b600085815260208120601f198616915b8281101561159657888601518255948401946001909101908401611577565b50858210156115b45787850151600019600388901b60f8161c191681555b5050505050600190811b01905550565b600083516115d68184602088016110ae565b8351908301906115ea8183602088016110ae565b01949350505050565b6001600160a01b0385811682528416602082015260408101839052608060608201819052600090611626908301846110d2565b9695505050505050565b60006020828403121561164257600080fd5b81516107d88161107b56fea264697066735822122099fd8a8577f9be6250b86e7d2e7931dee81377047190f964757ff950fa10898364736f6c63430008130033a2646970667358221220a5a4aefecefde32222791d08f2ab401ae0594e2da08bfe504974a41c922c85c064736f6c63430008130033",
  "immutableReferences": {},
  "source": "// SPDX-License-Identifier: MIT\r\npragma solidity ^0.8.19;\r\n\r\nimport \"./token.sol\";\r\ncontract tfg {\r\n    struct Transcript {\r\n        address[] teachers;\r\n        mapping(address => bool) teacherExists;\r\n        string hash;\r\n    }\r\n\r\n    struct Person {\r\n        string hash;\r\n        uint role; // 0:does not exists, 1:student, 2:course coordinator, 3:degree coordinator\r\n    }\r\n\r\n    MiNFT public validations;\r\n    mapping(address => Person) public personToHash;\r\n    // como saber que address le corresponde a cada persona: hacer otro mapa que tenga como clave el hash y como valor el address?\r\n    mapping(address => string) public universityToHash;\r\n    mapping(address => Transcript) public studentToRecord;\r\n    address private _owner;\r\n\r\n    constructor() {\r\n        _owner = msg.sender;\r\n    }\r\n\r\n    modifier onlyOwner() {\r\n        require(msg.sender == _owner, \"Not the contract owner\");\r\n        _;\r\n    }\r\n\r\n    modifier participantExists(address participant) {\r\n        require(\r\n            personToHash[participant].role != 0,\r\n            \"Participant does not exist\"\r\n        );\r\n        _;\r\n    }\r\n\r\n    modifier participantNotExists(address participant) {\r\n        require(\r\n            personToHash[participant].role == 0,\r\n            \"Participant does not exist\"\r\n        );\r\n        _;\r\n    }\r\n\r\n    modifier participantIsStudent(address participant) {\r\n        require(\r\n            personToHash[participant].role == 1,\r\n            \"Participant is not a student\"\r\n        );\r\n        _;\r\n    }\r\n\r\n    modifier participantIsCourseCoord(address participant) {\r\n        require(\r\n            personToHash[participant].role == 2,\r\n            \"Participant is not a course Coordinator\"\r\n        );\r\n        _;\r\n    }\r\n\r\n    modifier participantIsDegreeCoord(address participant) {\r\n        require(\r\n            personToHash[participant].role == 3,\r\n            \"Participant is not a degree Coordinator\"\r\n        );\r\n        _;\r\n    }\r\n\r\n    modifier participantIsTeacher(address participant) {\r\n        require(\r\n            personToHash[participant].role == 2 ||\r\n                personToHash[participant].role == 3,\r\n            \"Participant is not a teacher\"\r\n        );\r\n        _;\r\n    }\r\n\r\n    modifier universityExists(address participant) {\r\n        require(\r\n            bytes(universityToHash[participant]).length != 0,\r\n            \"University does not exist\"\r\n        );\r\n        _;\r\n    }\r\n\r\n    modifier universityNotExists(address participant) {\r\n        require(\r\n            bytes(universityToHash[participant]).length == 0,\r\n            \"University already exists\"\r\n        );\r\n        _;\r\n    }\r\n\r\n    event ParticipantAdded(string message);\r\n\r\n    function addUniversity(\r\n        string memory hash,\r\n        address participant\r\n    ) public onlyOwner universityNotExists(participant) {\r\n        universityToHash[participant] = hash;\r\n        emit ParticipantAdded(\r\n            \"Se ha anadido una nueva universidad correctamente\"\r\n        );\r\n    }\r\n\r\n    function addParticipant(\r\n        string memory _hash,\r\n        address participant,\r\n        uint _role\r\n    ) public universityExists(msg.sender) participantNotExists(participant) {\r\n        personToHash[participant].hash = _hash;\r\n        personToHash[participant].role = _role;\r\n        emit ParticipantAdded(\r\n            \"Se ha anadido un nuevo participante correctamente\"\r\n        );\r\n    }\r\n\r\n    function calculateSHA256(\r\n        string memory user,\r\n        string memory passwd\r\n    ) public pure returns (bytes32) {\r\n        return sha256(abi.encodePacked(user, passwd));\r\n    }\r\n\r\n    function hexStringToBytes32(string memory s) public pure returns (bytes32) {\r\n        require(\r\n            bytes(s).length == 66,\r\n            \"Hex string must be 66 chars (0x + 64 hex chars)\"\r\n        );\r\n\r\n        bytes memory b = bytes(s);\r\n        bytes32 result;\r\n\r\n        assembly {\r\n            result := mload(add(b, 32))\r\n        }\r\n\r\n        return result;\r\n    }\r\n\r\n    function test() public view returns (bytes32) {\r\n        return hexStringToBytes32(universityToHash[msg.sender]);\r\n    }\r\n\r\n    function consultParticipant(\r\n        string memory user,\r\n        string memory passwd\r\n    ) public view participantExists(msg.sender) returns (bool) {\r\n        bytes32 generatedHash = sha256(abi.encodePacked(user, passwd));\r\n        bytes32 storedHash = hexStringToBytes32(personToHash[msg.sender].hash);\r\n\r\n        return storedHash == generatedHash;\r\n    }\r\n\r\n    function consultUniversity(\r\n        string memory user,\r\n        string memory passwd\r\n    ) public view universityExists(msg.sender) returns (bool) {\r\n        bytes32 generatedHash = sha256(abi.encodePacked(user, passwd));\r\n        bytes32 storedHash = hexStringToBytes32(universityToHash[msg.sender]); // Convertir string a bytes32\r\n\r\n        return storedHash == generatedHash;\r\n        /* return\r\n            keccak256(abi.encodePacked(universityToHash[msg.sender])) ==\r\n            generatedHash;\r\n\r\n        keccak256(abi.encodePacked(personToHash[msg.sender])) ==\r\n            keccak256(abi.encodePacked(user, passwd, \"random_salt_value\"));*/\r\n    }\r\n\r\n    function addTeacherToTranscript(\r\n        address student,\r\n        address profesor\r\n    ) public universityExists(msg.sender) participantIsTeacher(profesor) {\r\n        require(\r\n            !studentToRecord[student].teacherExists[profesor],\r\n            \"Teacher already added\"\r\n        );\r\n        studentToRecord[student].teachers.push(profesor);\r\n        studentToRecord[student].teacherExists[profesor] = true;\r\n    }\r\n\r\n    function getProfessors(\r\n        address student\r\n    ) public view returns (address[] memory) {\r\n        return studentToRecord[student].teachers;\r\n    }\r\n\r\n    function updateMark(\r\n        string memory hash,\r\n        address participant\r\n    )\r\n        public\r\n        participantIsTeacher(msg.sender)\r\n        participantIsStudent(participant)\r\n    {\r\n        personToHash[participant].hash = hash;\r\n    }\r\n\r\n    function updateTranscript(\r\n        string memory hash,\r\n        address participant\r\n    ) public universityExists(msg.sender) participantIsStudent(participant) {\r\n        personToHash[participant].hash = hash;\r\n    }\r\n\r\n    function removeParticipant(\r\n        address participant\r\n    ) public onlyOwner participantExists(participant) {\r\n        delete personToHash[participant];\r\n    }\r\n\r\n    function createValidation() public onlyOwner {\r\n        validations = new MiNFT(msg.sender);\r\n    }\r\n\r\n    function addValidation(\r\n        address degreeCoord,\r\n        string memory srcCourse,\r\n        string memory dstCourse,\r\n        uint8 month,\r\n        uint16 year\r\n    ) public onlyOwner participantIsDegreeCoord(degreeCoord) returns (uint) {\r\n        uint id = validations.mintNFT(degreeCoord, srcCourse, dstCourse);\r\n        validations.setValidityPeriod(id, month, year);\r\n        return id;\r\n    }\r\n\r\n    function updateValidation(\r\n        uint id,\r\n        uint8 month,\r\n        uint16 year\r\n    ) public participantIsDegreeCoord(msg.sender) {\r\n        validations.setValidityPeriod(id, month, year);\r\n    }\r\n\r\n    function transferValidations(\r\n        uint id,\r\n        address origin,\r\n        address destination\r\n    )\r\n        public\r\n        universityExists(msg.sender)\r\n        participantIsDegreeCoord(origin)\r\n        participantIsDegreeCoord(destination)\r\n    {\r\n        validations.transferValidity(id, origin, destination);\r\n    }\r\n}\r\n",
  "sourcePath": "C:\\Users\\Agustin\\Desktop\\CarreraUCM\\TFG\\tfg\\Blockchain\\truffle\\contracts\\tfg.sol",
  "compiler": {
    "name": "solc",
    "version": "0.8.19+commit.7dd6d404.Emscripten.clang"
  },
  "schemaVersion": "3.4.16",
  "updatedAt": "2025-02-04T18:58:04.028Z",
  "networkType": "ethereum",
  "devdoc": {
    "kind": "dev",
    "methods": {},
    "version": 1
  },
  "userdoc": {
    "kind": "user",
    "methods": {},
    "version": 1
  }
}