{
  "contractName": "tfg",
  "abi": [
    {
      "inputs": [],
      "stateMutability": "nonpayable",
      "type": "constructor"
    },
    {
      "anonymous": false,
      "inputs": [
        {
          "indexed": false,
          "internalType": "string",
          "name": "message",
          "type": "string"
        }
      ],
      "name": "ParticipantAdded",
      "type": "event"
    },
    {
      "inputs": [
        {
          "internalType": "address",
          "name": "",
          "type": "address"
        }
      ],
      "name": "personToHash",
      "outputs": [
        {
          "internalType": "string",
          "name": "hash",
          "type": "string"
        },
        {
          "internalType": "uint256",
          "name": "role",
          "type": "uint256"
        }
      ],
      "stateMutability": "view",
      "type": "function"
    },
    {
      "inputs": [
        {
          "internalType": "address",
          "name": "",
          "type": "address"
        }
      ],
      "name": "studentToRecord",
      "outputs": [
        {
          "internalType": "string",
          "name": "hash",
          "type": "string"
        }
      ],
      "stateMutability": "view",
      "type": "function"
    },
    {
      "inputs": [
        {
          "internalType": "address",
          "name": "",
          "type": "address"
        }
      ],
      "name": "universityToHash",
      "outputs": [
        {
          "internalType": "string",
          "name": "",
          "type": "string"
        }
      ],
      "stateMutability": "view",
      "type": "function"
    },
    {
      "inputs": [],
      "name": "validations",
      "outputs": [
        {
          "internalType": "contract MiNFT",
          "name": "",
          "type": "address"
        }
      ],
      "stateMutability": "view",
      "type": "function"
    },
    {
      "inputs": [
        {
          "internalType": "string",
          "name": "hash",
          "type": "string"
        },
        {
          "internalType": "address",
          "name": "participant",
          "type": "address"
        }
      ],
      "name": "addUniversity",
      "outputs": [],
      "stateMutability": "nonpayable",
      "type": "function"
    },
    {
      "inputs": [
        {
          "internalType": "string",
          "name": "_hash",
          "type": "string"
        },
        {
          "internalType": "address",
          "name": "participant",
          "type": "address"
        },
        {
          "internalType": "uint256",
          "name": "_role",
          "type": "uint256"
        }
      ],
      "name": "addParticipant",
      "outputs": [],
      "stateMutability": "nonpayable",
      "type": "function"
    },
    {
      "inputs": [
        {
          "internalType": "string",
          "name": "user",
          "type": "string"
        },
        {
          "internalType": "string",
          "name": "passwd",
          "type": "string"
        }
      ],
      "name": "calculateSHA256",
      "outputs": [
        {
          "internalType": "bytes32",
          "name": "",
          "type": "bytes32"
        }
      ],
      "stateMutability": "pure",
      "type": "function"
    },
    {
      "inputs": [
        {
          "internalType": "string",
          "name": "s",
          "type": "string"
        }
      ],
      "name": "stringToBytes32",
      "outputs": [
        {
          "internalType": "bytes32",
          "name": "",
          "type": "bytes32"
        }
      ],
      "stateMutability": "pure",
      "type": "function"
    },
    {
      "inputs": [
        {
          "internalType": "bytes32",
          "name": "_bytes32",
          "type": "bytes32"
        }
      ],
      "name": "bytes32ToString",
      "outputs": [
        {
          "internalType": "string",
          "name": "",
          "type": "string"
        }
      ],
      "stateMutability": "pure",
      "type": "function"
    },
    {
      "inputs": [],
      "name": "test",
      "outputs": [
        {
          "internalType": "bytes32",
          "name": "",
          "type": "bytes32"
        }
      ],
      "stateMutability": "view",
      "type": "function"
    },
    {
      "inputs": [
        {
          "internalType": "string",
          "name": "user",
          "type": "string"
        },
        {
          "internalType": "string",
          "name": "passwd",
          "type": "string"
        }
      ],
      "name": "consultParticipant",
      "outputs": [
        {
          "internalType": "bool",
          "name": "",
          "type": "bool"
        }
      ],
      "stateMutability": "view",
      "type": "function"
    },
    {
      "inputs": [
        {
          "internalType": "string",
          "name": "user",
          "type": "string"
        },
        {
          "internalType": "string",
          "name": "passwd",
          "type": "string"
        }
      ],
      "name": "consultUniversity",
      "outputs": [
        {
          "internalType": "bool",
          "name": "",
          "type": "bool"
        }
      ],
      "stateMutability": "view",
      "type": "function"
    },
    {
      "inputs": [
        {
          "internalType": "address",
          "name": "student",
          "type": "address"
        },
        {
          "internalType": "address",
          "name": "profesor",
          "type": "address"
        }
      ],
      "name": "addTeacherToTranscript",
      "outputs": [],
      "stateMutability": "nonpayable",
      "type": "function"
    },
    {
      "inputs": [
        {
          "internalType": "address",
          "name": "student",
          "type": "address"
        }
      ],
      "name": "getAllowedTeachers",
      "outputs": [
        {
          "internalType": "address[]",
          "name": "",
          "type": "address[]"
        }
      ],
      "stateMutability": "view",
      "type": "function"
    },
    {
      "inputs": [
        {
          "internalType": "string",
          "name": "hash",
          "type": "string"
        },
        {
          "internalType": "address",
          "name": "participant",
          "type": "address"
        }
      ],
      "name": "updateMark",
      "outputs": [],
      "stateMutability": "nonpayable",
      "type": "function"
    },
    {
      "inputs": [
        {
          "internalType": "string",
          "name": "hash",
          "type": "string"
        },
        {
          "internalType": "address",
          "name": "participant",
          "type": "address"
        }
      ],
      "name": "updateTranscript",
      "outputs": [],
      "stateMutability": "nonpayable",
      "type": "function"
    },
    {
      "inputs": [
        {
          "internalType": "address",
          "name": "participant",
          "type": "address"
        }
      ],
      "name": "removeParticipant",
      "outputs": [],
      "stateMutability": "nonpayable",
      "type": "function"
    },
    {
      "inputs": [],
      "name": "createValidation",
      "outputs": [],
      "stateMutability": "nonpayable",
      "type": "function"
    },
    {
      "inputs": [
        {
          "internalType": "address",
          "name": "degreeCoord",
          "type": "address"
        },
        {
          "internalType": "string",
          "name": "srcCourse",
          "type": "string"
        },
        {
          "internalType": "string",
          "name": "dstCourse",
          "type": "string"
        },
        {
          "internalType": "uint8",
          "name": "month",
          "type": "uint8"
        },
        {
          "internalType": "uint16",
          "name": "year",
          "type": "uint16"
        }
      ],
      "name": "addValidation",
      "outputs": [
        {
          "internalType": "uint256",
          "name": "",
          "type": "uint256"
        }
      ],
      "stateMutability": "nonpayable",
      "type": "function"
    },
    {
      "inputs": [
        {
          "internalType": "uint256",
          "name": "id",
          "type": "uint256"
        },
        {
          "internalType": "uint8",
          "name": "month",
          "type": "uint8"
        },
        {
          "internalType": "uint16",
          "name": "year",
          "type": "uint16"
        }
      ],
      "name": "updateValidation",
      "outputs": [],
      "stateMutability": "nonpayable",
      "type": "function"
    },
    {
      "inputs": [
        {
          "internalType": "uint256",
          "name": "id",
          "type": "uint256"
        },
        {
          "internalType": "address",
          "name": "origin",
          "type": "address"
        },
        {
          "internalType": "address",
          "name": "destination",
          "type": "address"
        }
      ],
      "name": "transferValidations",
      "outputs": [],
      "stateMutability": "nonpayable",
      "type": "function"
    }
  ],
  "bytecode": "0x608060405234801561001057600080fd5b50600480546001600160a01b03191633179055613a5f806100326000396000f3fe60806040523480156200001157600080fd5b5060043610620001515760003560e01c8063877f866711620000c7578063c5daf2941162000086578063c5daf2941462000303578063cfb51928146200030d578063d8daf1471462000324578063de17f720146200033b578063f893d7771462000368578063f8a8fd6d146200037f57600080fd5b8063877f866714620002715780639201de5514620002885780639b30f0dc146200029f578063a287bbea14620002b6578063ad504b9814620002dd57600080fd5b8063511fbc351162000114578063511fbc3514620001ef57806353532d0c146200020657806353d48472146200021d578063668a2001146200024357806379b247f0146200025a57600080fd5b806301034345146200015657806322c45273146200016f5780632945c44b146200018657806329ff405b14620001b25780634f0466bf14620001c9575b600080fd5b6200016d6200016736600462001922565b62000389565b005b6200016d6200018036600462001922565b620004b4565b6200019d6200019736600462001976565b620004f4565b60405190151581526020015b60405180910390f35b6200016d620001c3366004620019e1565b62000679565b620001e0620001da36600462001a3e565b620007c5565b604051620001a9919062001ab0565b620001e06200020036600462001a3e565b6200086d565b6200016d6200021736600462001ac5565b6200090f565b620002346200022e36600462001b2b565b62000a49565b604051908152602001620001a9565b6200016d6200025436600462001a3e565b62000bc0565b6200016d6200026b36600462001bce565b62000c5e565b6200019d6200028236600462001976565b62000d13565b620001e06200029936600462001c06565b62000df8565b6200016d620002b036600462001922565b62000f96565b620002cd620002c736600462001a3e565b620010e8565b604051620001a992919062001c20565b620002f4620002ee36600462001a3e565b62001194565b604051620001a9919062001c44565b6200016d6200120c565b620002346200031e36600462001c93565b62001298565b620002346200033536600462001976565b620013a9565b6000546200034f906001600160a01b031681565b6040516001600160a01b039091168152602001620001a9565b6200016d6200037936600462001cd4565b6200142a565b62000234620015d2565b336000818152600160208190526040909120015460021480620003c857506001600160a01b038116600090815260016020819052604090912001546003145b6200041a5760405162461bcd60e51b815260206004820152601c60248201527f5061727469636970616e74206973206e6f74206120746561636865720000000060448201526064015b60405180910390fd5b6001600160a01b0382166000908152600160208190526040909120810154839114620004895760405162461bcd60e51b815260206004820152601c60248201527f5061727469636970616e74206973206e6f7420612073747564656e7400000000604482015260640162000411565b6001600160a01b0383166000908152600160205260409020620004ad858262001d92565b5050505050565b3360008181526002602052604090208054620004d09062001d03565b90506000036200041a5760405162461bcd60e51b8152600401620004119062001e5f565b3360008181526002602052604081208054919291620005139062001d03565b9050600003620005375760405162461bcd60e51b8152600401620004119062001e5f565b6000600285856040516020016200055092919062001e96565b60408051601f19818403018152908290526200056c9162001ec9565b602060405180830381855afa1580156200058a573d6000803e3d6000fd5b5050506040513d601f19601f82011682018060405250810190620005af919062001ee7565b90506000620005be8262000df8565b33600090815260026020526040902080549192506200066f91839190620005e59062001d03565b80601f0160208091040260200160405190810160405280929190818152602001828054620006139062001d03565b8015620006645780601f10620006385761010080835404028352916020019162000664565b820191906000526020600020905b8154815290600101906020018083116200064657829003601f168201915b505050505062001683565b9695505050505050565b3360008181526002602052604090208054620006959062001d03565b9050600003620006b95760405162461bcd60e51b8152600401620004119062001e5f565b6001600160a01b03831660009081526001602081905260409091200154839015620006f85760405162461bcd60e51b8152600401620004119062001f01565b6001600160a01b03841660009081526001602052604090206200071c868262001d92565b506001600160a01b03841660009081526001602081905260409182902001849055517f65a85354bc5ae3125c1bb8ebfec33fbeafc83983dfaae96d5cec1bb02abc4cb390620007b69060208082526031908201527f536520686120616e616469646f20756e206e7565766f207061727469636970616040820152706e746520636f7272656374616d656e746560781b606082015260800190565b60405180910390a15050505050565b6003602052600090815260409020600281018054620007e49062001d03565b80601f0160208091040260200160405190810160405280929190818152602001828054620008129062001d03565b8015620008635780601f10620008375761010080835404028352916020019162000863565b820191906000526020600020905b8154815290600101906020018083116200084557829003601f168201915b5050505050905081565b60026020526000908152604090208054620008889062001d03565b80601f0160208091040260200160405190810160405280929190818152602001828054620008b69062001d03565b8015620009075780601f10620008db5761010080835404028352916020019162000907565b820191906000526020600020905b815481529060010190602001808311620008e957829003601f168201915b505050505081565b33600081815260026020526040902080546200092b9062001d03565b90506000036200094f5760405162461bcd60e51b8152600401620004119062001e5f565b6001600160a01b038316600090815260016020819052604090912001548390600314620009905760405162461bcd60e51b8152600401620004119062001f38565b6001600160a01b038316600090815260016020819052604090912001548390600314620009d15760405162461bcd60e51b8152600401620004119062001f38565b600054604051636b11cec160e01b8152600481018890526001600160a01b038781166024830152868116604483015290911690636b11cec190606401600060405180830381600087803b15801562000a2857600080fd5b505af115801562000a3d573d6000803e3d6000fd5b50505050505050505050565b6004546000906001600160a01b0316331462000a795760405162461bcd60e51b8152600401620004119062001f7f565b6001600160a01b03861660009081526001602081905260409091200154869060031462000aba5760405162461bcd60e51b8152600401620004119062001f38565b600080546040516351f71c5760e11b81526001600160a01b039091169063a3ee38ae9062000af1908b908b908b9060040162001faf565b6020604051808303816000875af115801562000b11573d6000803e3d6000fd5b505050506040513d601f19601f8201168201806040525081019062000b37919062001ee7565b60005460405163399159d960e01b81526001600160a01b038b811660048301526024820184905260ff8916604483015261ffff8816606483015292935091169063399159d990608401600060405180830381600087803b15801562000b9b57600080fd5b505af115801562000bb0573d6000803e3d6000fd5b50929a9950505050505050505050565b6004546001600160a01b0316331462000bed5760405162461bcd60e51b8152600401620004119062001f7f565b6001600160a01b03811660009081526001602081905260408220015482910362000c2b5760405162461bcd60e51b8152600401620004119062001f01565b6001600160a01b03821660009081526001602052604081209062000c508282620017f4565b600182016000905550505050565b336000818152600160208190526040909120015460031462000c945760405162461bcd60e51b8152600401620004119062001f38565b60005460405163399159d960e01b81523360048201526024810186905260ff8516604482015261ffff841660648201526001600160a01b039091169063399159d990608401600060405180830381600087803b15801562000cf457600080fd5b505af115801562000d09573d6000803e3d6000fd5b5050505050505050565b33600081815260016020819052604082200154909190820362000d4a5760405162461bcd60e51b8152600401620004119062001f01565b60006002858560405160200162000d6392919062001e96565b60408051601f198184030181529082905262000d7f9162001ec9565b602060405180830381855afa15801562000d9d573d6000803e3d6000fd5b5050506040513d601f19601f8201168201806040525081019062000dc2919062001ee7565b9050600062000dd18262000df8565b33600090815260016020526040902080549192506200066f91839190620005e59062001d03565b604080518181526060818101835291600091906020820181803683370190505060408051808201909152601081526f181899199a1a9b1b9c1cb0b131b232b360811b602082015290915060005b602081101562000f6a5781600486836020811062000e675762000e6762001fe9565b835191901a90911c60ff1690811062000e845762000e8462001fe9565b01602001516001600160f81b0319168362000ea183600262002015565b8151811062000eb45762000eb462001fe9565b60200101906001600160f81b031916908160001a9053508185826020811062000ee15762000ee162001fe9565b1a60f81b60f81c600f1660ff168151811062000f015762000f0162001fe9565b01602001516001600160f81b0319168362000f1e83600262002015565b62000f2b9060016200202f565b8151811062000f3e5762000f3e62001fe9565b60200101906001600160f81b031916908160001a9053508062000f618162002045565b91505062000e45565b508160405160200162000f7e919062002061565b60405160208183030381529060405292505050919050565b6004546001600160a01b0316331462000fc35760405162461bcd60e51b8152600401620004119062001f7f565b6001600160a01b0381166000908152600260205260409020805482919062000feb9062001d03565b1590506200103c5760405162461bcd60e51b815260206004820152601960248201527f556e697665727369747920616c72656164792065786973747300000000000000604482015260640162000411565b6001600160a01b038216600090815260026020526040902062001060848262001d92565b507f65a85354bc5ae3125c1bb8ebfec33fbeafc83983dfaae96d5cec1bb02abc4cb3604051620010db9060208082526031908201527f536520686120616e616469646f20756e61206e7565766120756e69766572736960408201527064616420636f7272656374616d656e746560781b606082015260800190565b60405180910390a1505050565b600160205260009081526040902080548190620011059062001d03565b80601f0160208091040260200160405190810160405280929190818152602001828054620011339062001d03565b8015620011845780601f10620011585761010080835404028352916020019162001184565b820191906000526020600020905b8154815290600101906020018083116200116657829003601f168201915b5050505050908060010154905082565b6001600160a01b0381166000908152600360209081526040918290208054835181840281018401909452808452606093928301828280156200120057602002820191906000526020600020905b81546001600160a01b03168152600190910190602001808311620011e1575b50505050509050919050565b6004546001600160a01b03163314620012395760405162461bcd60e51b8152600401620004119062001f7f565b33604051620012489062001836565b6001600160a01b039091168152602001604051809103906000f08015801562001275573d6000803e3d6000fd5b50600080546001600160a01b0319166001600160a01b0392909216919091179055565b60008151604214620012e45760405162461bcd60e51b8152602060048201526014602482015273092dcecc2d8d2c840d2dce0eae840d8cadccee8d60631b604482015260640162000411565b816000805b6020811015620013a1576200130081600862002015565b62001347846200131284600262002015565b6200131f9060036200202f565b8151811062001332576200133262001fe9565b01602001516001600160f81b031916620016e0565b60ff1662001369856200135c85600262002015565b6200131f9060026200202f565b620013799060ff16601062002015565b6200138591906200202f565b901c919091179080620013988162002045565b915050620012e9565b509392505050565b600060028383604051602001620013c292919062001e96565b60408051601f1981840301815290829052620013de9162001ec9565b602060405180830381855afa158015620013fc573d6000803e3d6000fd5b5050506040513d601f19601f8201168201806040525081019062001421919062001ee7565b90505b92915050565b3360008181526002602052604090208054620014469062001d03565b90506000036200146a5760405162461bcd60e51b8152600401620004119062001e5f565b6001600160a01b03821660009081526001602081905260409091200154829060021480620014b457506001600160a01b038116600090815260016020819052604090912001546003145b620015025760405162461bcd60e51b815260206004820152601c60248201527f5061727469636970616e74206973206e6f742061207465616368657200000000604482015260640162000411565b6001600160a01b038085166000908152600360209081526040808320938716835260019093019052205460ff1615620015765760405162461bcd60e51b815260206004820152601560248201527415195858da195c88185b1c9958591e481859191959605a1b604482015260640162000411565b50506001600160a01b03918216600090815260036020908152604080832080546001808201835582865284862090910180546001600160a01b03191696909716958617909655938352928401905220805460ff19169091179055565b33600090815260016020526040812080546200167e9190620015f49062001d03565b80601f0160208091040260200160405190810160405280929190818152602001828054620016229062001d03565b8015620016735780601f10620016475761010080835404028352916020019162001673565b820191906000526020600020905b8154815290600101906020018083116200165557829003601f168201915b505050505062001298565b905090565b60008160405160200162001698919062001ec9565b6040516020818303038152906040528051906020012083604051602001620016c1919062001ec9565b6040516020818303038152906040528051906020012014905092915050565b6000600360fc1b6001600160f81b03198316108015906200170f5750603960f81b6001600160f81b0319831611155b15620017265762001424603060f884901c6200208d565b606160f81b6001600160f81b0319831610801590620017535750603360f91b6001600160f81b0319831611155b156200176a5762001424605760f884901c6200208d565b604160f81b6001600160f81b0319831610801590620017975750602360f91b6001600160f81b0319831611155b15620017ae5762001424603760f884901c6200208d565b60405162461bcd60e51b815260206004820152601560248201527424b73b30b634b2103432bc1031b430b930b1ba32b960591b604482015260640162000411565b919050565b508054620018029062001d03565b6000825580601f1062001813575050565b601f01602090049060005260206000209081019062001833919062001844565b50565b61198080620020aa83390190565b5b808211156200185b576000815560010162001845565b5090565b634e487b7160e01b600052604160045260246000fd5b600082601f8301126200188757600080fd5b813567ffffffffffffffff80821115620018a557620018a56200185f565b604051601f8301601f19908116603f01168101908282118183101715620018d057620018d06200185f565b81604052838152866020858801011115620018ea57600080fd5b836020870160208301376000602085830101528094505050505092915050565b80356001600160a01b0381168114620017ef57600080fd5b600080604083850312156200193657600080fd5b823567ffffffffffffffff8111156200194e57600080fd5b6200195c8582860162001875565b9250506200196d602084016200190a565b90509250929050565b600080604083850312156200198a57600080fd5b823567ffffffffffffffff80821115620019a357600080fd5b620019b18683870162001875565b93506020850135915080821115620019c857600080fd5b50620019d78582860162001875565b9150509250929050565b600080600060608486031215620019f757600080fd5b833567ffffffffffffffff81111562001a0f57600080fd5b62001a1d8682870162001875565b93505062001a2e602085016200190a565b9150604084013590509250925092565b60006020828403121562001a5157600080fd5b62001421826200190a565b60005b8381101562001a7957818101518382015260200162001a5f565b50506000910152565b6000815180845262001a9c81602086016020860162001a5c565b601f01601f19169290920160200192915050565b60208152600062001421602083018462001a82565b60008060006060848603121562001adb57600080fd5b8335925062001aed602085016200190a565b915062001afd604085016200190a565b90509250925092565b803560ff81168114620017ef57600080fd5b803561ffff81168114620017ef57600080fd5b600080600080600060a0868803121562001b4457600080fd5b62001b4f866200190a565b9450602086013567ffffffffffffffff8082111562001b6d57600080fd5b62001b7b89838a0162001875565b9550604088013591508082111562001b9257600080fd5b5062001ba18882890162001875565b93505062001bb26060870162001b06565b915062001bc26080870162001b18565b90509295509295909350565b60008060006060848603121562001be457600080fd5b8335925062001bf66020850162001b06565b915062001afd6040850162001b18565b60006020828403121562001c1957600080fd5b5035919050565b60408152600062001c35604083018562001a82565b90508260208301529392505050565b6020808252825182820181905260009190848201906040850190845b8181101562001c875783516001600160a01b03168352928401929184019160010162001c60565b50909695505050505050565b60006020828403121562001ca657600080fd5b813567ffffffffffffffff81111562001cbe57600080fd5b62001ccc8482850162001875565b949350505050565b6000806040838503121562001ce857600080fd5b62001cf3836200190a565b91506200196d602084016200190a565b600181811c9082168062001d1857607f821691505b60208210810362001d3957634e487b7160e01b600052602260045260246000fd5b50919050565b601f82111562001d8d57600081815260208120601f850160051c8101602086101562001d685750805b601f850160051c820191505b8181101562001d895782815560010162001d74565b5050505b505050565b815167ffffffffffffffff81111562001daf5762001daf6200185f565b62001dc78162001dc0845462001d03565b8462001d3f565b602080601f83116001811462001dff576000841562001de65750858301515b600019600386901b1c1916600185901b17855562001d89565b600085815260208120601f198616915b8281101562001e305788860151825594840194600190910190840162001e0f565b508582101562001e4f5787850151600019600388901b60f8161c191681555b5050505050600190811b01905550565b60208082526019908201527f556e697665727369747920646f6573206e6f7420657869737400000000000000604082015260600190565b6000835162001eaa81846020880162001a5c565b83519083019062001ec081836020880162001a5c565b01949350505050565b6000825162001edd81846020870162001a5c565b9190910192915050565b60006020828403121562001efa57600080fd5b5051919050565b6020808252601a908201527f5061727469636970616e7420646f6573206e6f74206578697374000000000000604082015260600190565b60208082526027908201527f5061727469636970616e74206973206e6f7420612064656772656520436f6f726040820152663234b730ba37b960c91b606082015260800190565b6020808252601690820152752737ba103a34329031b7b73a3930b1ba1037bbb732b960511b604082015260600190565b6001600160a01b038416815260606020820181905260009062001fd59083018562001a82565b82810360408401526200066f818562001a82565b634e487b7160e01b600052603260045260246000fd5b634e487b7160e01b600052601160045260246000fd5b808202811582820484141762001424576200142462001fff565b8082018082111562001424576200142462001fff565b6000600182016200205a576200205a62001fff565b5060010190565b61060f60f31b8152600082516200208081600285016020870162001a5c565b9190910160020192915050565b60ff828116828216039081111562001424576200142462001fff56fe60806040523480156200001157600080fd5b506040516200198038038062001980833981016040819052620000349162000137565b3360405180604001604052806005815260200164135a53919560da1b815250604051806040016040528060048152602001631353919560e21b81525081600090816200008191906200020e565b5060016200009082826200020e565b5050506001600160a01b038116620000c257604051631e4fbdf760e01b81526000600482015260240160405180910390fd5b620000cd81620000e5565b506000600755620000de81620000e5565b50620002da565b600680546001600160a01b038381166001600160a01b0319831681179093556040519116919082907f8be0079c531659141344cd1fd0a4f28419497f9722a3daafe3b4186f6b6457e090600090a35050565b6000602082840312156200014a57600080fd5b81516001600160a01b03811681146200016257600080fd5b9392505050565b634e487b7160e01b600052604160045260246000fd5b600181811c908216806200019457607f821691505b602082108103620001b557634e487b7160e01b600052602260045260246000fd5b50919050565b601f8211156200020957600081815260208120601f850160051c81016020861015620001e45750805b601f850160051c820191505b818110156200020557828155600101620001f0565b5050505b505050565b81516001600160401b038111156200022a576200022a62000169565b62000242816200023b84546200017f565b84620001bb565b602080601f8311600181146200027a5760008415620002615750858301515b600019600386901b1c1916600185901b17855562000205565b600085815260208120601f198616915b82811015620002ab578886015182559484019460019091019084016200028a565b5085821015620002ca5787850151600019600388901b60f8161c191681555b5050505050600190811b01905550565b61169680620002ea6000396000f3fe608060405234801561001057600080fd5b506004361061012c5760003560e01c806370a08231116100ad578063a3ee38ae11610071578063a3ee38ae146102b0578063b88d4fde146102c3578063c87b56dd146102d6578063e985e9c5146102e9578063f2fde38b146102fc57600080fd5b806370a082311461025b578063715018a61461027c5780638da5cb5b1461028457806395d89b4114610295578063a22cb4651461029d57600080fd5b80632b57298b116100f45780632b57298b146101c1578063399159d91461020f57806342842e0e146102225780636352211e146102355780636b11cec11461024857600080fd5b806301ffc9a71461013157806306fdde0314610159578063081812fc1461016e578063095ea7b31461019957806323b872dd146101ae575b600080fd5b61014461013f366004611095565b61030f565b60405190151581526020015b60405180910390f35b610161610361565b6040516101509190611102565b61018161017c366004611115565b6103f3565b6040516001600160a01b039091168152602001610150565b6101ac6101a736600461114a565b61041c565b005b6101ac6101bc366004611174565b61042b565b6101f36101cf366004611115565b60009081526008602052604090206002015460ff81169161010090910461ffff1690565b6040805160ff909316835261ffff909116602083015201610150565b6101ac61021d3660046111b0565b6104bb565b6101ac610230366004611174565b610639565b610181610243366004611115565b610659565b6101ac61025636600461120e565b610664565b61026e61026936600461124a565b61066f565b604051908152602001610150565b6101ac6106b7565b6006546001600160a01b0316610181565b6101616106cb565b6101ac6102ab366004611265565b6106da565b61026e6102be36600461134d565b6106e5565b6101ac6102d13660046113c1565b610756565b6101616102e4366004611115565b61076e565b6101446102f736600461143d565b6107e3565b6101ac61030a36600461124a565b610811565b60006001600160e01b031982166380ac58cd60e01b148061034057506001600160e01b03198216635b5e139f60e01b145b8061035b57506301ffc9a760e01b6001600160e01b03198316145b92915050565b60606000805461037090611470565b80601f016020809104026020016040519081016040528092919081815260200182805461039c90611470565b80156103e95780601f106103be576101008083540402835291602001916103e9565b820191906000526020600020905b8154815290600101906020018083116103cc57829003601f168201915b5050505050905090565b60006103fe8261084f565b506000828152600460205260409020546001600160a01b031661035b565b610427828233610888565b5050565b6001600160a01b03821661045a57604051633250574960e11b8152600060048201526024015b60405180910390fd5b6000610467838333610895565b9050836001600160a01b0316816001600160a01b0316146104b5576040516364283d7b60e01b81526001600160a01b0380861660048301526024820184905282166044820152606401610451565b50505050565b60018260ff16101580156104d35750600c8260ff1611155b61050f5760405162461bcd60e51b815260206004820152600d60248201526c0d2dcecc2d8d2c840dadedce8d609b1b6044820152606401610451565b61076c8161ffff161015801561052b57506108348161ffff1611155b6105665760405162461bcd60e51b815260206004820152600c60248201526b34b73b30b634b2103cb2b0b960a11b6044820152606401610451565b6000838152600460205260409020546001600160a01b038581169116146105e65760405162461bcd60e51b815260206004820152602e60248201527f5468697320636f6f7264696e61746f7220646f6573206e6f742068617665207460448201526d3430ba103b30b634b230ba34b7b760911b6064820152608401610451565b60408051808201825260ff938416815261ffff92831660208083019182526000968752600890529190942093516002909401805491519092166101000262ffffff19909116939092169290921717905550565b61065483838360405180602001604052806000815250610756565b505050565b600061035b8261084f565b61065482828561098e565b60006001600160a01b03821661069b576040516322718ad960e21b815260006004820152602401610451565b506001600160a01b031660009081526003602052604090205490565b6106bf6109a9565b6106c960006109d6565b565b60606001805461037090611470565b610427338383610a28565b60006106ef6109a9565b600780549060006106ff836114aa565b919050555061071084600754610ac7565b600754600090815260086020526040902061072b8482611517565b50600754600090815260086020526040902060010161074a8382611517565b50506007549392505050565b61076184848461042b565b6104b53385858585610ae1565b60606107798261084f565b50600061079160408051602081019091526000815290565b905060008151116107b157604051806020016040528060008152506107dc565b806107bb84610c0c565b6040516020016107cc9291906115d7565b6040516020818303038152906040525b9392505050565b6001600160a01b03918216600090815260056020908152604080832093909416825291909152205460ff1690565b6108196109a9565b6001600160a01b03811661084357604051631e4fbdf760e01b815260006004820152602401610451565b61084c816109d6565b50565b6000818152600260205260408120546001600160a01b03168061035b57604051637e27328960e01b815260048101849052602401610451565b6106548383836001610c9f565b6000828152600260205260408120546001600160a01b03908116908316156108c2576108c2818486610da5565b6001600160a01b03811615610900576108df600085600080610c9f565b6001600160a01b038116600090815260036020526040902080546000190190555b6001600160a01b0385161561092f576001600160a01b0385166000908152600360205260409020805460010190555b60008481526002602052604080822080546001600160a01b0319166001600160a01b0389811691821790925591518793918516917fddf252ad1be2c89b69c2b068fc378daa952ba7f163c4a11628f55a4df523b3ef91a4949350505050565b61065483838360405180602001604052806000815250610e09565b6006546001600160a01b031633146106c95760405163118cdaa760e01b8152336004820152602401610451565b600680546001600160a01b038381166001600160a01b0319831681179093556040519116919082907f8be0079c531659141344cd1fd0a4f28419497f9722a3daafe3b4186f6b6457e090600090a35050565b6001600160a01b038216610a5a57604051630b61174360e31b81526001600160a01b0383166004820152602401610451565b6001600160a01b03838116600081815260056020908152604080832094871680845294825291829020805460ff191686151590811790915591519182527f17307eab39ab6107e8899845ad3d59bd9653f200f220920489ca2b5937696c31910160405180910390a3505050565b610427828260405180602001604052806000815250610e14565b6001600160a01b0383163b15610c0557604051630a85bd0160e11b81526001600160a01b0384169063150b7a0290610b23908890889087908790600401611606565b6020604051808303816000875af1925050508015610b5e575060408051601f3d908101601f19168201909252610b5b91810190611643565b60015b610bc7573d808015610b8c576040519150601f19603f3d011682016040523d82523d6000602084013e610b91565b606091505b508051600003610bbf57604051633250574960e11b81526001600160a01b0385166004820152602401610451565b805181602001fd5b6001600160e01b03198116630a85bd0160e11b14610c0357604051633250574960e11b81526001600160a01b0385166004820152602401610451565b505b5050505050565b60606000610c1983610e2c565b600101905060008167ffffffffffffffff811115610c3957610c396112a1565b6040519080825280601f01601f191660200182016040528015610c63576020820181803683370190505b5090508181016020015b600019016f181899199a1a9b1b9c1cb0b131b232b360811b600a86061a8153600a8504945084610c6d57509392505050565b8080610cb357506001600160a01b03821615155b15610d75576000610cc38461084f565b90506001600160a01b03831615801590610cef5750826001600160a01b0316816001600160a01b031614155b8015610d025750610d0081846107e3565b155b15610d2b5760405163a9fbf51f60e01b81526001600160a01b0384166004820152602401610451565b8115610d735783856001600160a01b0316826001600160a01b03167f8c5be1e5ebec7d5bd14f71427d1e84f3dd0314c0f7b2291e5b200ac8c7c3b92560405160405180910390a45b505b5050600090815260046020526040902080546001600160a01b0319166001600160a01b0392909216919091179055565b610db0838383610f04565b610654576001600160a01b038316610dde57604051637e27328960e01b815260048101829052602401610451565b60405163177e802f60e01b81526001600160a01b038316600482015260248101829052604401610451565b610761848484610f6a565b610e1e838361101a565b610654336000858585610ae1565b60008072184f03e93ff9f4daa797ed6e38ed64bf6a1f0160401b8310610e6b5772184f03e93ff9f4daa797ed6e38ed64bf6a1f0160401b830492506040015b6d04ee2d6d415b85acef81000000008310610e97576d04ee2d6d415b85acef8100000000830492506020015b662386f26fc100008310610eb557662386f26fc10000830492506010015b6305f5e1008310610ecd576305f5e100830492506008015b6127108310610ee157612710830492506004015b60648310610ef3576064830492506002015b600a831061035b5760010192915050565b60006001600160a01b03831615801590610f625750826001600160a01b0316846001600160a01b03161480610f3e5750610f3e84846107e3565b80610f6257506000828152600460205260409020546001600160a01b038481169116145b949350505050565b6001600160a01b038216610f9457604051633250574960e11b815260006004820152602401610451565b6000610fa283836000610895565b90506001600160a01b038116610fce57604051637e27328960e01b815260048101839052602401610451565b836001600160a01b0316816001600160a01b0316146104b5576040516364283d7b60e01b81526001600160a01b0380861660048301526024820184905282166044820152606401610451565b6001600160a01b03821661104457604051633250574960e11b815260006004820152602401610451565b600061105283836000610895565b90506001600160a01b03811615610654576040516339e3563760e11b815260006004820152602401610451565b6001600160e01b03198116811461084c57600080fd5b6000602082840312156110a757600080fd5b81356107dc8161107f565b60005b838110156110cd5781810151838201526020016110b5565b50506000910152565b600081518084526110ee8160208601602086016110b2565b601f01601f19169290920160200192915050565b6020815260006107dc60208301846110d6565b60006020828403121561112757600080fd5b5035919050565b80356001600160a01b038116811461114557600080fd5b919050565b6000806040838503121561115d57600080fd5b6111668361112e565b946020939093013593505050565b60008060006060848603121561118957600080fd5b6111928461112e565b92506111a06020850161112e565b9150604084013590509250925092565b600080600080608085870312156111c657600080fd5b6111cf8561112e565b935060208501359250604085013560ff811681146111ec57600080fd5b9150606085013561ffff8116811461120357600080fd5b939692955090935050565b60008060006060848603121561122357600080fd5b833592506112336020850161112e565b91506112416040850161112e565b90509250925092565b60006020828403121561125c57600080fd5b6107dc8261112e565b6000806040838503121561127857600080fd5b6112818361112e565b91506020830135801515811461129657600080fd5b809150509250929050565b634e487b7160e01b600052604160045260246000fd5b600067ffffffffffffffff808411156112d2576112d26112a1565b604051601f8501601f19908116603f011681019082821181831017156112fa576112fa6112a1565b8160405280935085815286868601111561131357600080fd5b858560208301376000602087830101525050509392505050565b600082601f83011261133e57600080fd5b6107dc838335602085016112b7565b60008060006060848603121561136257600080fd5b61136b8461112e565b9250602084013567ffffffffffffffff8082111561138857600080fd5b6113948783880161132d565b935060408601359150808211156113aa57600080fd5b506113b78682870161132d565b9150509250925092565b600080600080608085870312156113d757600080fd5b6113e08561112e565b93506113ee6020860161112e565b925060408501359150606085013567ffffffffffffffff81111561141157600080fd5b8501601f8101871361142257600080fd5b611431878235602084016112b7565b91505092959194509250565b6000806040838503121561145057600080fd5b6114598361112e565b91506114676020840161112e565b90509250929050565b600181811c9082168061148457607f821691505b6020821081036114a457634e487b7160e01b600052602260045260246000fd5b50919050565b6000600182016114ca57634e487b7160e01b600052601160045260246000fd5b5060010190565b601f82111561065457600081815260208120601f850160051c810160208610156114f85750805b601f850160051c820191505b81811015610c0357828155600101611504565b815167ffffffffffffffff811115611531576115316112a1565b6115458161153f8454611470565b846114d1565b602080601f83116001811461157a57600084156115625750858301515b600019600386901b1c1916600185901b178555610c03565b600085815260208120601f198616915b828110156115a95788860151825594840194600190910190840161158a565b50858210156115c75787850151600019600388901b60f8161c191681555b5050505050600190811b01905550565b600083516115e98184602088016110b2565b8351908301906115fd8183602088016110b2565b01949350505050565b6001600160a01b0385811682528416602082015260408101839052608060608201819052600090611639908301846110d6565b9695505050505050565b60006020828403121561165557600080fd5b81516107dc8161107f56fea2646970667358221220d69a401d065fdc6d25cb1416f6b8313e3522d39d8fa9c392ea54b85fe6efaa8464736f6c63430008130033a26469706673582212205af3c161bcc074e8117bcd165f1e33a14a5573084d90c0747f28f1587827e8bf64736f6c63430008130033",
  "immutableReferences": {},
  "source": "// SPDX-License-Identifier: MIT\r\npragma solidity ^0.8.19;\r\n\r\nimport \"./token.sol\";\r\ncontract tfg {\r\n    struct Transcript {\r\n        address[] teachers;\r\n        mapping(address => bool) teacherExists;\r\n        string hash;\r\n    }\r\n\r\n    struct Person {\r\n        string hash;\r\n        uint role; // 0:does not exists, 1:student, 2:course coordinator, 3:degree coordinator\r\n    }\r\n\r\n    MiNFT public validations;\r\n    mapping(address => Person) public personToHash;\r\n    // como saber que address le corresponde a cada persona: hacer otro mapa que tenga como clave el hash y como valor el address?\r\n    mapping(address => string) public universityToHash;\r\n    mapping(address => Transcript) public studentToRecord;\r\n    address private _owner;\r\n\r\n    constructor() {\r\n        _owner = msg.sender;\r\n    }\r\n\r\n    modifier onlyOwner() {\r\n        require(msg.sender == _owner, \"Not the contract owner\");\r\n        _;\r\n    }\r\n\r\n    modifier participantExists(address participant) {\r\n        require(\r\n            personToHash[participant].role != 0,\r\n            \"Participant does not exist\"\r\n        );\r\n        _;\r\n    }\r\n\r\n    modifier participantNotExists(address participant) {\r\n        require(\r\n            personToHash[participant].role == 0,\r\n            \"Participant does not exist\"\r\n        );\r\n        _;\r\n    }\r\n\r\n    modifier participantIsStudent(address participant) {\r\n        require(\r\n            personToHash[participant].role == 1,\r\n            \"Participant is not a student\"\r\n        );\r\n        _;\r\n    }\r\n\r\n    modifier participantIsCourseCoord(address participant) {\r\n        require(\r\n            personToHash[participant].role == 2,\r\n            \"Participant is not a course Coordinator\"\r\n        );\r\n        _;\r\n    }\r\n\r\n    modifier participantIsDegreeCoord(address participant) {\r\n        require(\r\n            personToHash[participant].role == 3,\r\n            \"Participant is not a degree Coordinator\"\r\n        );\r\n        _;\r\n    }\r\n\r\n    modifier participantIsTeacher(address participant) {\r\n        require(\r\n            personToHash[participant].role == 2 ||\r\n                personToHash[participant].role == 3,\r\n            \"Participant is not a teacher\"\r\n        );\r\n        _;\r\n    }\r\n\r\n    modifier universityExists(address participant) {\r\n        require(\r\n            bytes(universityToHash[participant]).length != 0,\r\n            \"University does not exist\"\r\n        );\r\n        _;\r\n    }\r\n\r\n    modifier universityNotExists(address participant) {\r\n        require(\r\n            bytes(universityToHash[participant]).length == 0,\r\n            \"University already exists\"\r\n        );\r\n        _;\r\n    }\r\n\r\n    event ParticipantAdded(string message);\r\n\r\n    function addUniversity(\r\n        string memory hash,\r\n        address participant\r\n    ) public onlyOwner universityNotExists(participant) {\r\n        universityToHash[participant] = hash;\r\n        emit ParticipantAdded(\r\n            \"Se ha anadido una nueva universidad correctamente\"\r\n        );\r\n    }\r\n\r\n    function addParticipant(\r\n        string memory _hash,\r\n        address participant,\r\n        uint _role\r\n    ) public universityExists(msg.sender) participantNotExists(participant) {\r\n        personToHash[participant].hash = _hash;\r\n        personToHash[participant].role = _role;\r\n        emit ParticipantAdded(\r\n            \"Se ha anadido un nuevo participante correctamente\"\r\n        );\r\n    }\r\n\r\n    function calculateSHA256(\r\n        string memory user,\r\n        string memory passwd\r\n    ) public pure returns (bytes32) {\r\n        return sha256(abi.encodePacked(user, passwd));\r\n    }\r\n\r\n    function stringToBytes32(string memory s) public pure returns (bytes32) {\r\n        require(bytes(s).length == 66, \"Invalid input length\"); // \"0x\" + 64 hex chars\r\n\r\n        bytes memory b = bytes(s);\r\n        bytes32 result;\r\n\r\n        for (uint i = 0; i < 32; i++) {\r\n            result |=\r\n                bytes32(\r\n                    uint256(hexCharToByte(b[2 + i * 2])) *\r\n                        16 +\r\n                        uint256(hexCharToByte(b[3 + i * 2]))\r\n                ) >>\r\n                (i * 8);\r\n        }\r\n        return result;\r\n    }\r\n\r\n    function hexCharToByte(bytes1 c) private pure returns (uint8) {\r\n        if (c >= \"0\" && c <= \"9\") {\r\n            return uint8(c) - 48;\r\n        } else if (c >= \"a\" && c <= \"f\") {\r\n            return uint8(c) - 87;\r\n        } else if (c >= \"A\" && c <= \"F\") {\r\n            return uint8(c) - 55;\r\n        } else {\r\n            revert(\"Invalid hex character\");\r\n        }\r\n    }\r\n\r\n    function bytes32ToString(\r\n        bytes32 _bytes32\r\n    ) public pure returns (string memory) {\r\n        bytes memory s = new bytes(64);\r\n        bytes memory hexChars = \"0123456789abcdef\";\r\n\r\n        for (uint i = 0; i < 32; i++) {\r\n            s[i * 2] = hexChars[uint8(_bytes32[i]) >> 4]; // High nibble\r\n            s[i * 2 + 1] = hexChars[uint8(_bytes32[i]) & 0x0f]; // Low nibble\r\n        }\r\n\r\n        return string(abi.encodePacked(\"0x\", s));\r\n    }\r\n\r\n    function test() public view returns (bytes32) {\r\n        return stringToBytes32(personToHash[msg.sender].hash);\r\n    }\r\n\r\n    function compareStrings(\r\n        string memory a,\r\n        string memory b\r\n    ) private pure returns (bool) {\r\n        return keccak256(abi.encodePacked(a)) == keccak256(abi.encodePacked(b));\r\n    }\r\n    function consultParticipant(\r\n        string memory user,\r\n        string memory passwd\r\n    ) public view participantExists(msg.sender) returns (bool) {\r\n        bytes32 generatedHash = sha256(abi.encodePacked(user, passwd));\r\n        string memory storedHash = bytes32ToString(generatedHash);\r\n\r\n        return compareStrings(storedHash, personToHash[msg.sender].hash);\r\n    }\r\n\r\n    function consultUniversity(\r\n        string memory user,\r\n        string memory passwd\r\n    ) public view universityExists(msg.sender) returns (bool) {\r\n        bytes32 generatedHash = sha256(abi.encodePacked(user, passwd));\r\n        string memory storedHash = bytes32ToString(generatedHash);\r\n\r\n        return compareStrings(storedHash, universityToHash[msg.sender]); // Convertir string a bytes32\r\n\r\n        /* return\r\n            keccak256(abi.encodePacked(universityToHash[msg.sender])) ==\r\n            generatedHash;\r\n\r\n        keccak256(abi.encodePacked(personToHash[msg.sender])) ==\r\n            keccak256(abi.encodePacked(user, passwd, \"random_salt_value\"));*/\r\n    }\r\n\r\n    function addTeacherToTranscript(\r\n        address student,\r\n        address profesor\r\n    ) public universityExists(msg.sender) participantIsTeacher(profesor) {\r\n        require(\r\n            !studentToRecord[student].teacherExists[profesor],\r\n            \"Teacher already added\"\r\n        );\r\n        studentToRecord[student].teachers.push(profesor);\r\n        studentToRecord[student].teacherExists[profesor] = true;\r\n    }\r\n\r\n    function getAllowedTeachers(\r\n        address student\r\n    ) public view returns (address[] memory) {\r\n        return studentToRecord[student].teachers;\r\n    }\r\n\r\n    function updateMark(\r\n        string memory hash,\r\n        address participant\r\n    )\r\n        public\r\n        participantIsTeacher(msg.sender)\r\n        participantIsStudent(participant)\r\n    {\r\n        personToHash[participant].hash = hash;\r\n    }\r\n\r\n    function updateTranscript(\r\n        string memory hash,\r\n        address participant\r\n    ) public universityExists(msg.sender) participantIsStudent(participant) {\r\n        personToHash[participant].hash = hash;\r\n    }\r\n\r\n    function removeParticipant(\r\n        address participant\r\n    ) public onlyOwner participantExists(participant) {\r\n        delete personToHash[participant];\r\n    }\r\n\r\n    function createValidation() public onlyOwner {\r\n        validations = new MiNFT(msg.sender);\r\n    }\r\n\r\n    function addValidation(\r\n        address degreeCoord,\r\n        string memory srcCourse,\r\n        string memory dstCourse,\r\n        uint8 month,\r\n        uint16 year\r\n    ) public onlyOwner participantIsDegreeCoord(degreeCoord) returns (uint) {\r\n        uint id = validations.mintNFT(degreeCoord, srcCourse, dstCourse);\r\n\r\n        validations.setValidityPeriod(degreeCoord, id, month, year);\r\n        return id;\r\n    }\r\n\r\n    function updateValidation(\r\n        uint id,\r\n        uint8 month,\r\n        uint16 year\r\n    ) public participantIsDegreeCoord(msg.sender) {\r\n        validations.setValidityPeriod(msg.sender, id, month, year);\r\n    }\r\n\r\n    function transferValidations(\r\n        uint id,\r\n        address origin,\r\n        address destination\r\n    )\r\n        public\r\n        universityExists(msg.sender)\r\n        participantIsDegreeCoord(origin)\r\n        participantIsDegreeCoord(destination)\r\n    {\r\n        validations.transferValidity(id, origin, destination);\r\n    }\r\n}\r\n",
  "sourcePath": "C:\\Users\\Agustin\\Desktop\\CarreraUCM\\TFG\\tfg\\Blockchain\\truffle\\contracts\\tfg.sol",
  "compiler": {
    "name": "solc",
    "version": "0.8.19+commit.7dd6d404.Emscripten.clang"
  },
  "schemaVersion": "3.4.16",
  "updatedAt": "2025-02-08T12:10:11.417Z",
  "devdoc": {
    "kind": "dev",
    "methods": {},
    "version": 1
  },
  "userdoc": {
    "kind": "user",
    "methods": {},
    "version": 1
  }
}