{
  "contractName": "tfg",
  "abi": [
    {
      "inputs": [],
      "stateMutability": "nonpayable",
      "type": "constructor"
    },
    {
      "anonymous": false,
      "inputs": [
        {
          "indexed": false,
          "internalType": "string",
          "name": "message",
          "type": "string"
        }
      ],
      "name": "ParticipantAdded",
      "type": "event"
    },
    {
      "inputs": [
        {
          "internalType": "address",
          "name": "",
          "type": "address"
        }
      ],
      "name": "personToHash",
      "outputs": [
        {
          "internalType": "string",
          "name": "",
          "type": "string"
        }
      ],
      "stateMutability": "view",
      "type": "function",
      "constant": true
    },
    {
      "inputs": [
        {
          "internalType": "address",
          "name": "",
          "type": "address"
        }
      ],
      "name": "studentToRecord",
      "outputs": [
        {
          "internalType": "string",
          "name": "hash",
          "type": "string"
        }
      ],
      "stateMutability": "view",
      "type": "function",
      "constant": true
    },
    {
      "inputs": [
        {
          "internalType": "address",
          "name": "",
          "type": "address"
        }
      ],
      "name": "universityToHash",
      "outputs": [
        {
          "internalType": "string",
          "name": "",
          "type": "string"
        }
      ],
      "stateMutability": "view",
      "type": "function",
      "constant": true
    },
    {
      "inputs": [
        {
          "internalType": "string",
          "name": "hash",
          "type": "string"
        },
        {
          "internalType": "address",
          "name": "participant",
          "type": "address"
        }
      ],
      "name": "addUniversity",
      "outputs": [],
      "stateMutability": "nonpayable",
      "type": "function"
    },
    {
      "inputs": [
        {
          "internalType": "string",
          "name": "hash",
          "type": "string"
        },
        {
          "internalType": "address",
          "name": "participant",
          "type": "address"
        }
      ],
      "name": "addParticipant",
      "outputs": [],
      "stateMutability": "nonpayable",
      "type": "function"
    },
    {
      "inputs": [
        {
          "internalType": "string",
          "name": "user",
          "type": "string"
        },
        {
          "internalType": "string",
          "name": "passwd",
          "type": "string"
        }
      ],
      "name": "calculateSHA256",
      "outputs": [
        {
          "internalType": "bytes32",
          "name": "",
          "type": "bytes32"
        }
      ],
      "stateMutability": "pure",
      "type": "function",
      "constant": true
    },
    {
      "inputs": [
        {
          "internalType": "string",
          "name": "user",
          "type": "string"
        },
        {
          "internalType": "string",
          "name": "passwd",
          "type": "string"
        }
      ],
      "name": "consultParticipant",
      "outputs": [
        {
          "internalType": "bool",
          "name": "",
          "type": "bool"
        }
      ],
      "stateMutability": "view",
      "type": "function",
      "constant": true
    },
    {
      "inputs": [
        {
          "internalType": "address",
          "name": "student",
          "type": "address"
        },
        {
          "internalType": "address",
          "name": "profesor",
          "type": "address"
        }
      ],
      "name": "addProfesor",
      "outputs": [],
      "stateMutability": "nonpayable",
      "type": "function"
    },
    {
      "inputs": [
        {
          "internalType": "address",
          "name": "student",
          "type": "address"
        }
      ],
      "name": "getProfessors",
      "outputs": [
        {
          "internalType": "address[]",
          "name": "",
          "type": "address[]"
        }
      ],
      "stateMutability": "view",
      "type": "function",
      "constant": true
    },
    {
      "inputs": [
        {
          "internalType": "string",
          "name": "hash",
          "type": "string"
        },
        {
          "internalType": "address",
          "name": "participant",
          "type": "address"
        }
      ],
      "name": "update",
      "outputs": [],
      "stateMutability": "nonpayable",
      "type": "function"
    },
    {
      "inputs": [
        {
          "internalType": "address",
          "name": "participant",
          "type": "address"
        }
      ],
      "name": "removeParticipant",
      "outputs": [],
      "stateMutability": "nonpayable",
      "type": "function"
    }
  ],
  "bytecode": "0x608060405234801561001057600080fd5b5033600360006101000a81548173ffffffffffffffffffffffffffffffffffffffff021916908373ffffffffffffffffffffffffffffffffffffffff160217905550611c82806100616000396000f3fe608060405234801561001057600080fd5b50600436106100a95760003560e01c8063758be55111610071578063758be55114610162578063877f8667146101925780639b30f0dc146101c2578063a287bbea146101de578063d8daf1471461020e578063f5b5df481461023e576100a9565b80630ae610f8146100ae5780632cff89c9146100ca5780634f0466bf146100e6578063511fbc3514610116578063668a200114610146575b600080fd5b6100c860048036038101906100c39190611001565b61025a565b005b6100e460048036038101906100df9190611187565b6104f6565b005b61010060048036038101906100fb91906111e3565b610665565b60405161010d919061128f565b60405180910390f35b610130600480360381019061012b91906111e3565b61070b565b60405161013d919061128f565b60405180910390f35b610160600480360381019061015b91906111e3565b6107ab565b005b61017c600480360381019061017791906111e3565b610888565b604051610189919061136f565b60405180910390f35b6101ac60048036038101906101a79190611391565b610958565b6040516101b99190611424565b60405180910390f35b6101dc60048036038101906101d79190611187565b610acd565b005b6101f860048036038101906101f391906111e3565b610c73565b604051610205919061128f565b60405180910390f35b61022860048036038101906102239190611391565b610d13565b6040516102359190611458565b60405180910390f35b61025860048036038101906102539190611187565b610d8e565b005b600360009054906101000a900473ffffffffffffffffffffffffffffffffffffffff1673ffffffffffffffffffffffffffffffffffffffff163373ffffffffffffffffffffffffffffffffffffffff16146102ea576040517f08c379a00000000000000000000000000000000000000000000000000000000081526004016102e1906114bf565b60405180910390fd5b600260008373ffffffffffffffffffffffffffffffffffffffff1673ffffffffffffffffffffffffffffffffffffffff16815260200190815260200160002060010160008273ffffffffffffffffffffffffffffffffffffffff1673ffffffffffffffffffffffffffffffffffffffff16815260200190815260200160002060009054906101000a900460ff16156103b7576040517f08c379a00000000000000000000000000000000000000000000000000000000081526004016103ae9061152b565b60405180910390fd5b600260008373ffffffffffffffffffffffffffffffffffffffff1673ffffffffffffffffffffffffffffffffffffffff168152602001908152602001600020600001819080600181540180825580915050600190039060005260206000200160009091909190916101000a81548173ffffffffffffffffffffffffffffffffffffffff021916908373ffffffffffffffffffffffffffffffffffffffff1602179055506001600260008473ffffffffffffffffffffffffffffffffffffffff1673ffffffffffffffffffffffffffffffffffffffff16815260200190815260200160002060010160008373ffffffffffffffffffffffffffffffffffffffff1673ffffffffffffffffffffffffffffffffffffffff16815260200190815260200160002060006101000a81548160ff0219169083151502179055505050565b600360009054906101000a900473ffffffffffffffffffffffffffffffffffffffff1673ffffffffffffffffffffffffffffffffffffffff163373ffffffffffffffffffffffffffffffffffffffff1614610586576040517f08c379a000000000000000000000000000000000000000000000000000000000815260040161057d906114bf565b60405180910390fd5b8060008060008373ffffffffffffffffffffffffffffffffffffffff1673ffffffffffffffffffffffffffffffffffffffff16815260200190815260200160002080546105d29061157a565b905003610614576040517f08c379a000000000000000000000000000000000000000000000000000000000815260040161060b906115f7565b60405180910390fd5b826000808473ffffffffffffffffffffffffffffffffffffffff1673ffffffffffffffffffffffffffffffffffffffff168152602001908152602001600020908161065f91906117cd565b50505050565b60026020528060005260406000206000915090508060020180546106889061157a565b80601f01602080910402602001604051908101604052809291908181526020018280546106b49061157a565b80156107015780601f106106d657610100808354040283529160200191610701565b820191906000526020600020905b8154815290600101906020018083116106e457829003601f168201915b5050505050905081565b6001602052806000526040600020600091509050805461072a9061157a565b80601f01602080910402602001604051908101604052809291908181526020018280546107569061157a565b80156107a35780601f10610778576101008083540402835291602001916107a3565b820191906000526020600020905b81548152906001019060200180831161078657829003601f168201915b505050505081565b600360009054906101000a900473ffffffffffffffffffffffffffffffffffffffff1673ffffffffffffffffffffffffffffffffffffffff163373ffffffffffffffffffffffffffffffffffffffff161461083b576040517f08c379a0000000000000000000000000000000000000000000000000000000008152600401610832906114bf565b60405180910390fd5b6000808273ffffffffffffffffffffffffffffffffffffffff1673ffffffffffffffffffffffffffffffffffffffff16815260200190815260200160002060006108859190610f32565b50565b6060600260008373ffffffffffffffffffffffffffffffffffffffff1673ffffffffffffffffffffffffffffffffffffffff16815260200190815260200160002060000180548060200260200160405190810160405280929190818152602001828054801561094c57602002820191906000526020600020905b8160009054906101000a900473ffffffffffffffffffffffffffffffffffffffff1673ffffffffffffffffffffffffffffffffffffffff1681526020019060010190808311610902575b50505050509050919050565b60003360008060008373ffffffffffffffffffffffffffffffffffffffff1673ffffffffffffffffffffffffffffffffffffffff16815260200190815260200160002080546109a69061157a565b9050036109e8576040517f08c379a00000000000000000000000000000000000000000000000000000000081526004016109df906115f7565b60405180910390fd5b6000600285856040516020016109ff9291906118db565b604051602081830303815290604052604051610a1b9190611946565b602060405180830381855afa158015610a38573d6000803e3d6000fd5b5050506040513d601f19601f82011682018060405250810190610a5b9190611989565b9050806000803373ffffffffffffffffffffffffffffffffffffffff1673ffffffffffffffffffffffffffffffffffffffff168152602001908152602001600020604051602001610aac9190611a39565b60405160208183030381529060405280519060200120149250505092915050565b600360009054906101000a900473ffffffffffffffffffffffffffffffffffffffff1673ffffffffffffffffffffffffffffffffffffffff163373ffffffffffffffffffffffffffffffffffffffff1614610b5d576040517f08c379a0000000000000000000000000000000000000000000000000000000008152600401610b54906114bf565b60405180910390fd5b806000600160008373ffffffffffffffffffffffffffffffffffffffff1673ffffffffffffffffffffffffffffffffffffffff1681526020019081526020016000208054610baa9061157a565b905014610bec576040517f08c379a0000000000000000000000000000000000000000000000000000000008152600401610be390611a9c565b60405180910390fd5b82600160008473ffffffffffffffffffffffffffffffffffffffff1673ffffffffffffffffffffffffffffffffffffffff1681526020019081526020016000209081610c3891906117cd565b507f65a85354bc5ae3125c1bb8ebfec33fbeafc83983dfaae96d5cec1bb02abc4cb3604051610c6690611b2e565b60405180910390a1505050565b60006020528060005260406000206000915090508054610c929061157a565b80601f0160208091040260200160405190810160405280929190818152602001828054610cbe9061157a565b8015610d0b5780601f10610ce057610100808354040283529160200191610d0b565b820191906000526020600020905b815481529060010190602001808311610cee57829003601f168201915b505050505081565b600060028383604051602001610d2a9291906118db565b604051602081830303815290604052604051610d469190611946565b602060405180830381855afa158015610d63573d6000803e3d6000fd5b5050506040513d601f19601f82011682018060405250810190610d869190611989565b905092915050565b336000600160008373ffffffffffffffffffffffffffffffffffffffff1673ffffffffffffffffffffffffffffffffffffffff1681526020019081526020016000208054610ddb9061157a565b905003610e1d576040517f08c379a0000000000000000000000000000000000000000000000000000000008152600401610e1490611b9a565b60405180910390fd5b8160008060008373ffffffffffffffffffffffffffffffffffffffff1673ffffffffffffffffffffffffffffffffffffffff1681526020019081526020016000208054610e699061157a565b905014610eab576040517f08c379a0000000000000000000000000000000000000000000000000000000008152600401610ea2906115f7565b60405180910390fd5b836000808573ffffffffffffffffffffffffffffffffffffffff1673ffffffffffffffffffffffffffffffffffffffff1681526020019081526020016000209081610ef691906117cd565b507f65a85354bc5ae3125c1bb8ebfec33fbeafc83983dfaae96d5cec1bb02abc4cb3604051610f2490611c2c565b60405180910390a150505050565b508054610f3e9061157a565b6000825580601f10610f505750610f6f565b601f016020900490600052602060002090810190610f6e9190610f72565b5b50565b5b80821115610f8b576000816000905550600101610f73565b5090565b6000604051905090565b600080fd5b600080fd5b600073ffffffffffffffffffffffffffffffffffffffff82169050919050565b6000610fce82610fa3565b9050919050565b610fde81610fc3565b8114610fe957600080fd5b50565b600081359050610ffb81610fd5565b92915050565b6000806040838503121561101857611017610f99565b5b600061102685828601610fec565b925050602061103785828601610fec565b9150509250929050565b600080fd5b600080fd5b6000601f19601f8301169050919050565b7f4e487b7100000000000000000000000000000000000000000000000000000000600052604160045260246000fd5b6110948261104b565b810181811067ffffffffffffffff821117156110b3576110b261105c565b5b80604052505050565b60006110c6610f8f565b90506110d2828261108b565b919050565b600067ffffffffffffffff8211156110f2576110f161105c565b5b6110fb8261104b565b9050602081019050919050565b82818337600083830152505050565b600061112a611125846110d7565b6110bc565b90508281526020810184848401111561114657611145611046565b5b611151848285611108565b509392505050565b600082601f83011261116e5761116d611041565b5b813561117e848260208601611117565b91505092915050565b6000806040838503121561119e5761119d610f99565b5b600083013567ffffffffffffffff8111156111bc576111bb610f9e565b5b6111c885828601611159565b92505060206111d985828601610fec565b9150509250929050565b6000602082840312156111f9576111f8610f99565b5b600061120784828501610fec565b91505092915050565b600081519050919050565b600082825260208201905092915050565b60005b8381101561124a57808201518184015260208101905061122f565b60008484015250505050565b600061126182611210565b61126b818561121b565b935061127b81856020860161122c565b6112848161104b565b840191505092915050565b600060208201905081810360008301526112a98184611256565b905092915050565b600081519050919050565b600082825260208201905092915050565b6000819050602082019050919050565b6112e681610fc3565b82525050565b60006112f883836112dd565b60208301905092915050565b6000602082019050919050565b600061131c826112b1565b61132681856112bc565b9350611331836112cd565b8060005b8381101561136257815161134988826112ec565b975061135483611304565b925050600181019050611335565b5085935050505092915050565b600060208201905081810360008301526113898184611311565b905092915050565b600080604083850312156113a8576113a7610f99565b5b600083013567ffffffffffffffff8111156113c6576113c5610f9e565b5b6113d285828601611159565b925050602083013567ffffffffffffffff8111156113f3576113f2610f9e565b5b6113ff85828601611159565b9150509250929050565b60008115159050919050565b61141e81611409565b82525050565b60006020820190506114396000830184611415565b92915050565b6000819050919050565b6114528161143f565b82525050565b600060208201905061146d6000830184611449565b92915050565b7f4e6f742074686520636f6e7472616374206f776e657200000000000000000000600082015250565b60006114a960168361121b565b91506114b482611473565b602082019050919050565b600060208201905081810360008301526114d88161149c565b9050919050565b7f50726f6665736f72207961206578697374650000000000000000000000000000600082015250565b600061151560128361121b565b9150611520826114df565b602082019050919050565b6000602082019050818103600083015261154481611508565b9050919050565b7f4e487b7100000000000000000000000000000000000000000000000000000000600052602260045260246000fd5b6000600282049050600182168061159257607f821691505b6020821081036115a5576115a461154b565b5b50919050565b7f5061727469636970616e7420646f6573206e6f74206578697374000000000000600082015250565b60006115e1601a8361121b565b91506115ec826115ab565b602082019050919050565b60006020820190508181036000830152611610816115d4565b9050919050565b60008190508160005260206000209050919050565b60006020601f8301049050919050565b600082821b905092915050565b6000600883026116797fffffffffffffffffffffffffffffffffffffffffffffffffffffffffffffffff8261163c565b611683868361163c565b95508019841693508086168417925050509392505050565b6000819050919050565b6000819050919050565b60006116ca6116c56116c08461169b565b6116a5565b61169b565b9050919050565b6000819050919050565b6116e4836116af565b6116f86116f0826116d1565b848454611649565b825550505050565b600090565b61170d611700565b6117188184846116db565b505050565b5b8181101561173c57611731600082611705565b60018101905061171e565b5050565b601f8211156117815761175281611617565b61175b8461162c565b8101602085101561176a578190505b61177e6117768561162c565b83018261171d565b50505b505050565b600082821c905092915050565b60006117a460001984600802611786565b1980831691505092915050565b60006117bd8383611793565b9150826002028217905092915050565b6117d682611210565b67ffffffffffffffff8111156117ef576117ee61105c565b5b6117f9825461157a565b611804828285611740565b600060209050601f8311600181146118375760008415611825578287015190505b61182f85826117b1565b865550611897565b601f19841661184586611617565b60005b8281101561186d57848901518255600182019150602085019450602081019050611848565b8683101561188a5784890151611886601f891682611793565b8355505b6001600288020188555050505b505050505050565b600081905092915050565b60006118b582611210565b6118bf818561189f565b93506118cf81856020860161122c565b80840191505092915050565b60006118e782856118aa565b91506118f382846118aa565b91508190509392505050565b600081519050919050565b600081905092915050565b6000611920826118ff565b61192a818561190a565b935061193a81856020860161122c565b80840191505092915050565b60006119528284611915565b915081905092915050565b6119668161143f565b811461197157600080fd5b50565b6000815190506119838161195d565b92915050565b60006020828403121561199f5761199e610f99565b5b60006119ad84828501611974565b91505092915050565b600081546119c38161157a565b6119cd818661189f565b945060018216600081146119e857600181146119fd57611a30565b60ff1983168652811515820286019350611a30565b611a0685611617565b60005b83811015611a2857815481890152600182019150602081019050611a09565b838801955050505b50505092915050565b6000611a4582846119b6565b915081905092915050565b7f556e697665727369747920616c72656164792065786973747300000000000000600082015250565b6000611a8660198361121b565b9150611a9182611a50565b602082019050919050565b60006020820190508181036000830152611ab581611a79565b9050919050565b7f536520686120616e616469646f20756e61206e7565766120756e69766572736960008201527f64616420636f7272656374616d656e7465000000000000000000000000000000602082015250565b6000611b1860318361121b565b9150611b2382611abc565b604082019050919050565b60006020820190508181036000830152611b4781611b0b565b9050919050565b7f556e697665727369747920646f6573206e6f7420657869737400000000000000600082015250565b6000611b8460198361121b565b9150611b8f82611b4e565b602082019050919050565b60006020820190508181036000830152611bb381611b77565b9050919050565b7f536520686120616e616469646f20756e206e7565766f2070617274696369706160008201527f6e746520636f7272656374616d656e7465000000000000000000000000000000602082015250565b6000611c1660318361121b565b9150611c2182611bba565b604082019050919050565b60006020820190508181036000830152611c4581611c09565b905091905056fea26469706673582212201edb47e1ca933b6573c9a842325f7497a1d6a24792a18bdf87057400cd13d4b264736f6c63430008130033",
  "immutableReferences": {},
  "source": "// SPDX-License-Identifier: MIT\r\npragma solidity ^0.8.19;\r\n\r\ncontract tfg {\r\n    struct Expediente {\r\n        address[] profesores;\r\n        mapping(address => bool) profesorExiste;\r\n        string hash;\r\n    }\r\n\r\n    mapping(address => string) public personToHash;\r\n    mapping(address => string) public universityToHash;\r\n    mapping(address => Expediente) public studentToRecord;\r\n    address private _owner;\r\n\r\n    constructor() {\r\n        _owner = msg.sender;\r\n    }\r\n\r\n    modifier onlyOwner() {\r\n        require(msg.sender == _owner, \"Not the contract owner\");\r\n        _;\r\n    }\r\n\r\n    modifier participantExists(address participant) {\r\n        require(\r\n            bytes(personToHash[participant]).length != 0,\r\n            \"Participant does not exist\"\r\n        );\r\n        _;\r\n    }\r\n\r\n    modifier participantNotExists(address participant) {\r\n        require(\r\n            bytes(personToHash[participant]).length == 0,\r\n            \"Participant does not exist\"\r\n        );\r\n        _;\r\n    }\r\n\r\n    modifier universityExists(address participant) {\r\n        require(\r\n            bytes(universityToHash[participant]).length != 0,\r\n            \"University does not exist\"\r\n        );\r\n        _;\r\n    }\r\n\r\n    modifier universityNotExists(address participant) {\r\n        require(\r\n            bytes(universityToHash[participant]).length == 0,\r\n            \"University already exists\"\r\n        );\r\n        _;\r\n    }\r\n\r\n    event ParticipantAdded(string message);\r\n\r\n    function addUniversity(\r\n        string memory hash,\r\n        address participant\r\n    ) public onlyOwner universityNotExists(participant) {\r\n        universityToHash[participant] = hash;\r\n        emit ParticipantAdded(\r\n            \"Se ha anadido una nueva universidad correctamente\"\r\n        );\r\n    }\r\n\r\n    function addParticipant(\r\n        string memory hash,\r\n        address participant\r\n    ) public universityExists(msg.sender) participantNotExists(participant) {\r\n        personToHash[participant] = hash;\r\n        emit ParticipantAdded(\r\n            \"Se ha anadido un nuevo participante correctamente\"\r\n        );\r\n    }\r\n\r\n    function calculateSHA256(\r\n        string memory user,\r\n        string memory passwd\r\n    ) public pure returns (bytes32) {\r\n        return sha256(abi.encodePacked(user, passwd));\r\n    }\r\n\r\n    function consultParticipant(\r\n        string memory user,\r\n        string memory passwd\r\n    ) public view participantExists(msg.sender) returns (bool) {\r\n        bytes32 generatedHash = sha256(abi.encodePacked(user, passwd));\r\n        return\r\n            keccak256(abi.encodePacked(personToHash[msg.sender])) ==\r\n            generatedHash;\r\n\r\n        /*keccak256(abi.encodePacked(personToHash[msg.sender])) ==\r\n            keccak256(abi.encodePacked(user, passwd, \"random_salt_value\"));*/\r\n    }\r\n\r\n    function addProfesor(address student, address profesor) public onlyOwner {\r\n        require(\r\n            !studentToRecord[student].profesorExiste[profesor],\r\n            \"Profesor ya existe\"\r\n        );\r\n        studentToRecord[student].profesores.push(profesor);\r\n        studentToRecord[student].profesorExiste[profesor] = true;\r\n    }\r\n\r\n    function getProfessors(\r\n        address student\r\n    ) public view returns (address[] memory) {\r\n        return studentToRecord[student].profesores;\r\n    }\r\n\r\n    function update(\r\n        string memory hash,\r\n        address participant\r\n    ) public onlyOwner participantExists(participant) {\r\n        personToHash[participant] = hash;\r\n    }\r\n\r\n    function removeParticipant(address participant) public onlyOwner {\r\n        delete personToHash[participant];\r\n    }\r\n}\r\n",
  "sourcePath": "C:\\Users\\Agustin\\Desktop\\CarreraUCM\\TFG\\pruebaTruffle\\contracts\\tfg.sol",
  "compiler": {
    "name": "solc",
    "version": "0.8.19+commit.7dd6d404.Emscripten.clang"
  },
  "schemaVersion": "3.4.16",
  "updatedAt": "2025-01-29T19:44:18.718Z",
  "networkType": "ethereum",
  "devdoc": {
    "kind": "dev",
    "methods": {},
    "version": 1
  },
  "userdoc": {
    "kind": "user",
    "methods": {},
    "version": 1
  }
}