{
  "contractName": "MiNFT",
  "abi": [
    {
      "inputs": [
        {
          "internalType": "address",
          "name": "owner",
          "type": "address"
        }
      ],
      "stateMutability": "nonpayable",
      "type": "constructor"
    },
    {
      "inputs": [
        {
          "internalType": "address",
          "name": "sender",
          "type": "address"
        },
        {
          "internalType": "uint256",
          "name": "tokenId",
          "type": "uint256"
        },
        {
          "internalType": "address",
          "name": "owner",
          "type": "address"
        }
      ],
      "name": "ERC721IncorrectOwner",
      "type": "error"
    },
    {
      "inputs": [
        {
          "internalType": "address",
          "name": "operator",
          "type": "address"
        },
        {
          "internalType": "uint256",
          "name": "tokenId",
          "type": "uint256"
        }
      ],
      "name": "ERC721InsufficientApproval",
      "type": "error"
    },
    {
      "inputs": [
        {
          "internalType": "address",
          "name": "approver",
          "type": "address"
        }
      ],
      "name": "ERC721InvalidApprover",
      "type": "error"
    },
    {
      "inputs": [
        {
          "internalType": "address",
          "name": "operator",
          "type": "address"
        }
      ],
      "name": "ERC721InvalidOperator",
      "type": "error"
    },
    {
      "inputs": [
        {
          "internalType": "address",
          "name": "owner",
          "type": "address"
        }
      ],
      "name": "ERC721InvalidOwner",
      "type": "error"
    },
    {
      "inputs": [
        {
          "internalType": "address",
          "name": "receiver",
          "type": "address"
        }
      ],
      "name": "ERC721InvalidReceiver",
      "type": "error"
    },
    {
      "inputs": [
        {
          "internalType": "address",
          "name": "sender",
          "type": "address"
        }
      ],
      "name": "ERC721InvalidSender",
      "type": "error"
    },
    {
      "inputs": [
        {
          "internalType": "uint256",
          "name": "tokenId",
          "type": "uint256"
        }
      ],
      "name": "ERC721NonexistentToken",
      "type": "error"
    },
    {
      "inputs": [
        {
          "internalType": "address",
          "name": "owner",
          "type": "address"
        }
      ],
      "name": "OwnableInvalidOwner",
      "type": "error"
    },
    {
      "inputs": [
        {
          "internalType": "address",
          "name": "account",
          "type": "address"
        }
      ],
      "name": "OwnableUnauthorizedAccount",
      "type": "error"
    },
    {
      "anonymous": false,
      "inputs": [
        {
          "indexed": true,
          "internalType": "address",
          "name": "owner",
          "type": "address"
        },
        {
          "indexed": true,
          "internalType": "address",
          "name": "approved",
          "type": "address"
        },
        {
          "indexed": true,
          "internalType": "uint256",
          "name": "tokenId",
          "type": "uint256"
        }
      ],
      "name": "Approval",
      "type": "event"
    },
    {
      "anonymous": false,
      "inputs": [
        {
          "indexed": true,
          "internalType": "address",
          "name": "owner",
          "type": "address"
        },
        {
          "indexed": true,
          "internalType": "address",
          "name": "operator",
          "type": "address"
        },
        {
          "indexed": false,
          "internalType": "bool",
          "name": "approved",
          "type": "bool"
        }
      ],
      "name": "ApprovalForAll",
      "type": "event"
    },
    {
      "anonymous": false,
      "inputs": [
        {
          "indexed": true,
          "internalType": "address",
          "name": "previousOwner",
          "type": "address"
        },
        {
          "indexed": true,
          "internalType": "address",
          "name": "newOwner",
          "type": "address"
        }
      ],
      "name": "OwnershipTransferred",
      "type": "event"
    },
    {
      "anonymous": false,
      "inputs": [
        {
          "indexed": true,
          "internalType": "address",
          "name": "from",
          "type": "address"
        },
        {
          "indexed": true,
          "internalType": "address",
          "name": "to",
          "type": "address"
        },
        {
          "indexed": true,
          "internalType": "uint256",
          "name": "tokenId",
          "type": "uint256"
        }
      ],
      "name": "Transfer",
      "type": "event"
    },
    {
      "inputs": [
        {
          "internalType": "address",
          "name": "to",
          "type": "address"
        },
        {
          "internalType": "uint256",
          "name": "tokenId",
          "type": "uint256"
        }
      ],
      "name": "approve",
      "outputs": [],
      "stateMutability": "nonpayable",
      "type": "function"
    },
    {
      "inputs": [
        {
          "internalType": "address",
          "name": "owner",
          "type": "address"
        }
      ],
      "name": "balanceOf",
      "outputs": [
        {
          "internalType": "uint256",
          "name": "",
          "type": "uint256"
        }
      ],
      "stateMutability": "view",
      "type": "function"
    },
    {
      "inputs": [
        {
          "internalType": "uint256",
          "name": "tokenId",
          "type": "uint256"
        }
      ],
      "name": "getApproved",
      "outputs": [
        {
          "internalType": "address",
          "name": "",
          "type": "address"
        }
      ],
      "stateMutability": "view",
      "type": "function"
    },
    {
      "inputs": [
        {
          "internalType": "address",
          "name": "owner",
          "type": "address"
        },
        {
          "internalType": "address",
          "name": "operator",
          "type": "address"
        }
      ],
      "name": "isApprovedForAll",
      "outputs": [
        {
          "internalType": "bool",
          "name": "",
          "type": "bool"
        }
      ],
      "stateMutability": "view",
      "type": "function"
    },
    {
      "inputs": [],
      "name": "name",
      "outputs": [
        {
          "internalType": "string",
          "name": "",
          "type": "string"
        }
      ],
      "stateMutability": "view",
      "type": "function"
    },
    {
      "inputs": [],
      "name": "owner",
      "outputs": [
        {
          "internalType": "address",
          "name": "",
          "type": "address"
        }
      ],
      "stateMutability": "view",
      "type": "function"
    },
    {
      "inputs": [
        {
          "internalType": "uint256",
          "name": "tokenId",
          "type": "uint256"
        }
      ],
      "name": "ownerOf",
      "outputs": [
        {
          "internalType": "address",
          "name": "",
          "type": "address"
        }
      ],
      "stateMutability": "view",
      "type": "function"
    },
    {
      "inputs": [],
      "name": "renounceOwnership",
      "outputs": [],
      "stateMutability": "nonpayable",
      "type": "function"
    },
    {
      "inputs": [
        {
          "internalType": "address",
          "name": "from",
          "type": "address"
        },
        {
          "internalType": "address",
          "name": "to",
          "type": "address"
        },
        {
          "internalType": "uint256",
          "name": "tokenId",
          "type": "uint256"
        }
      ],
      "name": "safeTransferFrom",
      "outputs": [],
      "stateMutability": "nonpayable",
      "type": "function"
    },
    {
      "inputs": [
        {
          "internalType": "address",
          "name": "from",
          "type": "address"
        },
        {
          "internalType": "address",
          "name": "to",
          "type": "address"
        },
        {
          "internalType": "uint256",
          "name": "tokenId",
          "type": "uint256"
        },
        {
          "internalType": "bytes",
          "name": "data",
          "type": "bytes"
        }
      ],
      "name": "safeTransferFrom",
      "outputs": [],
      "stateMutability": "nonpayable",
      "type": "function"
    },
    {
      "inputs": [
        {
          "internalType": "address",
          "name": "operator",
          "type": "address"
        },
        {
          "internalType": "bool",
          "name": "approved",
          "type": "bool"
        }
      ],
      "name": "setApprovalForAll",
      "outputs": [],
      "stateMutability": "nonpayable",
      "type": "function"
    },
    {
      "inputs": [
        {
          "internalType": "bytes4",
          "name": "interfaceId",
          "type": "bytes4"
        }
      ],
      "name": "supportsInterface",
      "outputs": [
        {
          "internalType": "bool",
          "name": "",
          "type": "bool"
        }
      ],
      "stateMutability": "view",
      "type": "function"
    },
    {
      "inputs": [],
      "name": "symbol",
      "outputs": [
        {
          "internalType": "string",
          "name": "",
          "type": "string"
        }
      ],
      "stateMutability": "view",
      "type": "function"
    },
    {
      "inputs": [
        {
          "internalType": "uint256",
          "name": "tokenId",
          "type": "uint256"
        }
      ],
      "name": "tokenURI",
      "outputs": [
        {
          "internalType": "string",
          "name": "",
          "type": "string"
        }
      ],
      "stateMutability": "view",
      "type": "function"
    },
    {
      "inputs": [
        {
          "internalType": "address",
          "name": "from",
          "type": "address"
        },
        {
          "internalType": "address",
          "name": "to",
          "type": "address"
        },
        {
          "internalType": "uint256",
          "name": "tokenId",
          "type": "uint256"
        }
      ],
      "name": "transferFrom",
      "outputs": [],
      "stateMutability": "nonpayable",
      "type": "function"
    },
    {
      "inputs": [
        {
          "internalType": "address",
          "name": "newOwner",
          "type": "address"
        }
      ],
      "name": "transferOwnership",
      "outputs": [],
      "stateMutability": "nonpayable",
      "type": "function"
    },
    {
      "inputs": [
        {
          "internalType": "address",
          "name": "sender",
          "type": "address"
        },
        {
          "internalType": "address",
          "name": "to",
          "type": "address"
        },
        {
          "internalType": "string",
          "name": "_srcCourse",
          "type": "string"
        },
        {
          "internalType": "string",
          "name": "_dstCourse",
          "type": "string"
        }
      ],
      "name": "mintNFT",
      "outputs": [
        {
          "internalType": "uint256",
          "name": "",
          "type": "uint256"
        }
      ],
      "stateMutability": "nonpayable",
      "type": "function"
    },
    {
      "inputs": [
        {
          "internalType": "address",
          "name": "sender",
          "type": "address"
        },
        {
          "internalType": "uint256",
          "name": "id",
          "type": "uint256"
        },
        {
          "internalType": "uint8",
          "name": "_month",
          "type": "uint8"
        },
        {
          "internalType": "uint16",
          "name": "_year",
          "type": "uint16"
        }
      ],
      "name": "setValidityPeriod",
      "outputs": [],
      "stateMutability": "nonpayable",
      "type": "function"
    },
    {
      "inputs": [
        {
          "internalType": "uint256",
          "name": "id",
          "type": "uint256"
        }
      ],
      "name": "getDate",
      "outputs": [
        {
          "internalType": "uint8",
          "name": "",
          "type": "uint8"
        },
        {
          "internalType": "uint16",
          "name": "",
          "type": "uint16"
        }
      ],
      "stateMutability": "view",
      "type": "function"
    },
    {
      "inputs": [
        {
          "internalType": "uint256",
          "name": "id",
          "type": "uint256"
        },
        {
          "internalType": "address",
          "name": "origin",
          "type": "address"
        },
        {
          "internalType": "address",
          "name": "destination",
          "type": "address"
        }
      ],
      "name": "transferValidity",
      "outputs": [],
      "stateMutability": "nonpayable",
      "type": "function"
    }
  ],
  "bytecode": "0x60806040523480156200001157600080fd5b50604051620019db380380620019db83398101604081905262000034916200012c565b8060405180604001604052806005815260200164135a53919560da1b815250604051806040016040528060048152602001631353919560e21b815250816000908162000081919062000203565b50600162000090828262000203565b5050506001600160a01b038116620000c257604051631e4fbdf760e01b81526000600482015260240160405180910390fd5b620000cd81620000da565b50506000600755620002cf565b600680546001600160a01b038381166001600160a01b0319831681179093556040519116919082907f8be0079c531659141344cd1fd0a4f28419497f9722a3daafe3b4186f6b6457e090600090a35050565b6000602082840312156200013f57600080fd5b81516001600160a01b03811681146200015757600080fd5b9392505050565b634e487b7160e01b600052604160045260246000fd5b600181811c908216806200018957607f821691505b602082108103620001aa57634e487b7160e01b600052602260045260246000fd5b50919050565b601f821115620001fe57600081815260208120601f850160051c81016020861015620001d95750805b601f850160051c820191505b81811015620001fa57828155600101620001e5565b5050505b505050565b81516001600160401b038111156200021f576200021f6200015e565b620002378162000230845462000174565b84620001b0565b602080601f8311600181146200026f5760008415620002565750858301515b600019600386901b1c1916600185901b178555620001fa565b600085815260208120601f198616915b82811015620002a0578886015182559484019460019091019084016200027f565b5085821015620002bf5787850151600019600388901b60f8161c191681555b5050505050600190811b01905550565b6116fc80620002df6000396000f3fe608060405234801561001057600080fd5b506004361061012c5760003560e01c80636b11cec1116100ad578063a22cb46511610071578063a22cb465146102b0578063b88d4fde146102c3578063c87b56dd146102d6578063e985e9c5146102e9578063f2fde38b146102fc57600080fd5b80636b11cec11461026957806370a082311461027c578063715018a61461028f5780638da5cb5b1461029757806395d89b41146102a857600080fd5b806323b872dd116100f457806323b872dd146101cf5780632b57298b146101e2578063399159d91461023057806342842e0e146102435780636352211e1461025657600080fd5b806301ffc9a71461013157806306fdde0314610159578063081812fc1461016e578063095ea7b314610199578063222f3740146101ae575b600080fd5b61014461013f3660046110f6565b61030f565b60405190151581526020015b60405180910390f35b610161610361565b6040516101509190611163565b61018161017c366004611176565b6103f3565b6040516001600160a01b039091168152602001610150565b6101ac6101a73660046111ab565b61041c565b005b6101c16101bc366004611281565b61042b565b604051908152602001610150565b6101ac6101dd366004611306565b610502565b6102146101f0366004611176565b60009081526008602052604090206002015460ff81169161010090910461ffff1690565b6040805160ff909316835261ffff909116602083015201610150565b6101ac61023e366004611342565b61058d565b6101ac610251366004611306565b61070b565b610181610264366004611176565b61072b565b6101ac6102773660046113a0565b610736565b6101c161028a3660046113dc565b610741565b6101ac610789565b6006546001600160a01b0316610181565b61016161079d565b6101ac6102be3660046113f7565b6107ac565b6101ac6102d1366004611433565b6107b7565b6101616102e4366004611176565b6107cf565b6101446102f73660046114a3565b610844565b6101ac61030a3660046113dc565b610872565b60006001600160e01b031982166380ac58cd60e01b148061034057506001600160e01b03198216635b5e139f60e01b145b8061035b57506301ffc9a760e01b6001600160e01b03198316145b92915050565b606060008054610370906114d6565b80601f016020809104026020016040519081016040528092919081815260200182805461039c906114d6565b80156103e95780601f106103be576101008083540402835291602001916103e9565b820191906000526020600020905b8154815290600101906020018083116103cc57829003601f168201915b5050505050905090565b60006103fe826108b0565b506000828152600460205260409020546001600160a01b031661035b565b6104278282336108e9565b5050565b6000846001600160a01b03166104496006546001600160a01b031690565b6001600160a01b03161461049a5760405162461bcd60e51b81526020600482015260136024820152722737ba103a34329039bab832b91027bbb732b960691b60448201526064015b60405180910390fd5b600780549060006104aa83611510565b91905055506104bb846007546108f6565b60075460009081526008602052604090206104d6848261157d565b5060075460009081526008602052604090206001016104f5838261157d565b5050600754949350505050565b6001600160a01b03821661052c57604051633250574960e11b815260006004820152602401610491565b6000610539838333610910565b9050836001600160a01b0316816001600160a01b031614610587576040516364283d7b60e01b81526001600160a01b0380861660048301526024820184905282166044820152606401610491565b50505050565b60018260ff16101580156105a55750600c8260ff1611155b6105e15760405162461bcd60e51b815260206004820152600d60248201526c0d2dcecc2d8d2c840dadedce8d609b1b6044820152606401610491565b61076c8161ffff16101580156105fd57506108348161ffff1611155b6106385760405162461bcd60e51b815260206004820152600c60248201526b34b73b30b634b2103cb2b0b960a11b6044820152606401610491565b836001600160a01b031661064b8461072b565b6001600160a01b0316146106b85760405162461bcd60e51b815260206004820152602e60248201527f5468697320636f6f7264696e61746f7220646f6573206e6f742068617665207460448201526d3430ba103b30b634b230ba34b7b760911b6064820152608401610491565b60408051808201825260ff938416815261ffff92831660208083019182526000968752600890529190942093516002909401805491519092166101000262ffffff19909116939092169290921717905550565b610726838383604051806020016040528060008152506107b7565b505050565b600061035b826108b0565b610726828285610a09565b60006001600160a01b03821661076d576040516322718ad960e21b815260006004820152602401610491565b506001600160a01b031660009081526003602052604090205490565b610791610a24565b61079b6000610a51565b565b606060018054610370906114d6565b610427338383610aa3565b6107c2848484610502565b6105873385858585610b42565b60606107da826108b0565b5060006107f260408051602081019091526000815290565b90506000815111610812576040518060200160405280600081525061083d565b8061081c84610c6d565b60405160200161082d92919061163d565b6040516020818303038152906040525b9392505050565b6001600160a01b03918216600090815260056020908152604080832093909416825291909152205460ff1690565b61087a610a24565b6001600160a01b0381166108a457604051631e4fbdf760e01b815260006004820152602401610491565b6108ad81610a51565b50565b6000818152600260205260408120546001600160a01b03168061035b57604051637e27328960e01b815260048101849052602401610491565b6107268383836001610d00565b610427828260405180602001604052806000815250610e06565b6000828152600260205260408120546001600160a01b039081169083161561093d5761093d818486610e1e565b6001600160a01b0381161561097b5761095a600085600080610d00565b6001600160a01b038116600090815260036020526040902080546000190190555b6001600160a01b038516156109aa576001600160a01b0385166000908152600360205260409020805460010190555b60008481526002602052604080822080546001600160a01b0319166001600160a01b0389811691821790925591518793918516917fddf252ad1be2c89b69c2b068fc378daa952ba7f163c4a11628f55a4df523b3ef91a4949350505050565b61072683838360405180602001604052806000815250610e82565b6006546001600160a01b0316331461079b5760405163118cdaa760e01b8152336004820152602401610491565b600680546001600160a01b038381166001600160a01b0319831681179093556040519116919082907f8be0079c531659141344cd1fd0a4f28419497f9722a3daafe3b4186f6b6457e090600090a35050565b6001600160a01b038216610ad557604051630b61174360e31b81526001600160a01b0383166004820152602401610491565b6001600160a01b03838116600081815260056020908152604080832094871680845294825291829020805460ff191686151590811790915591519182527f17307eab39ab6107e8899845ad3d59bd9653f200f220920489ca2b5937696c31910160405180910390a3505050565b6001600160a01b0383163b15610c6657604051630a85bd0160e11b81526001600160a01b0384169063150b7a0290610b8490889088908790879060040161166c565b6020604051808303816000875af1925050508015610bbf575060408051601f3d908101601f19168201909252610bbc918101906116a9565b60015b610c28573d808015610bed576040519150601f19603f3d011682016040523d82523d6000602084013e610bf2565b606091505b508051600003610c2057604051633250574960e11b81526001600160a01b0385166004820152602401610491565b805181602001fd5b6001600160e01b03198116630a85bd0160e11b14610c6457604051633250574960e11b81526001600160a01b0385166004820152602401610491565b505b5050505050565b60606000610c7a83610e8d565b600101905060008167ffffffffffffffff811115610c9a57610c9a6111d5565b6040519080825280601f01601f191660200182016040528015610cc4576020820181803683370190505b5090508181016020015b600019016f181899199a1a9b1b9c1cb0b131b232b360811b600a86061a8153600a8504945084610cce57509392505050565b8080610d1457506001600160a01b03821615155b15610dd6576000610d24846108b0565b90506001600160a01b03831615801590610d505750826001600160a01b0316816001600160a01b031614155b8015610d635750610d618184610844565b155b15610d8c5760405163a9fbf51f60e01b81526001600160a01b0384166004820152602401610491565b8115610dd45783856001600160a01b0316826001600160a01b03167f8c5be1e5ebec7d5bd14f71427d1e84f3dd0314c0f7b2291e5b200ac8c7c3b92560405160405180910390a45b505b5050600090815260046020526040902080546001600160a01b0319166001600160a01b0392909216919091179055565b610e108383610f65565b610726336000858585610b42565b610e29838383610fca565b610726576001600160a01b038316610e5757604051637e27328960e01b815260048101829052602401610491565b60405163177e802f60e01b81526001600160a01b038316600482015260248101829052604401610491565b6107c2848484611030565b60008072184f03e93ff9f4daa797ed6e38ed64bf6a1f0160401b8310610ecc5772184f03e93ff9f4daa797ed6e38ed64bf6a1f0160401b830492506040015b6d04ee2d6d415b85acef81000000008310610ef8576d04ee2d6d415b85acef8100000000830492506020015b662386f26fc100008310610f1657662386f26fc10000830492506010015b6305f5e1008310610f2e576305f5e100830492506008015b6127108310610f4257612710830492506004015b60648310610f54576064830492506002015b600a831061035b5760010192915050565b6001600160a01b038216610f8f57604051633250574960e11b815260006004820152602401610491565b6000610f9d83836000610910565b90506001600160a01b03811615610726576040516339e3563760e11b815260006004820152602401610491565b60006001600160a01b038316158015906110285750826001600160a01b0316846001600160a01b0316148061100457506110048484610844565b8061102857506000828152600460205260409020546001600160a01b038481169116145b949350505050565b6001600160a01b03821661105a57604051633250574960e11b815260006004820152602401610491565b600061106883836000610910565b90506001600160a01b03811661109457604051637e27328960e01b815260048101839052602401610491565b836001600160a01b0316816001600160a01b031614610587576040516364283d7b60e01b81526001600160a01b0380861660048301526024820184905282166044820152606401610491565b6001600160e01b0319811681146108ad57600080fd5b60006020828403121561110857600080fd5b813561083d816110e0565b60005b8381101561112e578181015183820152602001611116565b50506000910152565b6000815180845261114f816020860160208601611113565b601f01601f19169290920160200192915050565b60208152600061083d6020830184611137565b60006020828403121561118857600080fd5b5035919050565b80356001600160a01b03811681146111a657600080fd5b919050565b600080604083850312156111be57600080fd5b6111c78361118f565b946020939093013593505050565b634e487b7160e01b600052604160045260246000fd5b600067ffffffffffffffff80841115611206576112066111d5565b604051601f8501601f19908116603f0116810190828211818310171561122e5761122e6111d5565b8160405280935085815286868601111561124757600080fd5b858560208301376000602087830101525050509392505050565b600082601f83011261127257600080fd5b61083d838335602085016111eb565b6000806000806080858703121561129757600080fd5b6112a08561118f565b93506112ae6020860161118f565b9250604085013567ffffffffffffffff808211156112cb57600080fd5b6112d788838901611261565b935060608701359150808211156112ed57600080fd5b506112fa87828801611261565b91505092959194509250565b60008060006060848603121561131b57600080fd5b6113248461118f565b92506113326020850161118f565b9150604084013590509250925092565b6000806000806080858703121561135857600080fd5b6113618561118f565b935060208501359250604085013560ff8116811461137e57600080fd5b9150606085013561ffff8116811461139557600080fd5b939692955090935050565b6000806000606084860312156113b557600080fd5b833592506113c56020850161118f565b91506113d36040850161118f565b90509250925092565b6000602082840312156113ee57600080fd5b61083d8261118f565b6000806040838503121561140a57600080fd5b6114138361118f565b91506020830135801515811461142857600080fd5b809150509250929050565b6000806000806080858703121561144957600080fd5b6114528561118f565b93506114606020860161118f565b925060408501359150606085013567ffffffffffffffff81111561148357600080fd5b8501601f8101871361149457600080fd5b6112fa878235602084016111eb565b600080604083850312156114b657600080fd5b6114bf8361118f565b91506114cd6020840161118f565b90509250929050565b600181811c908216806114ea57607f821691505b60208210810361150a57634e487b7160e01b600052602260045260246000fd5b50919050565b60006001820161153057634e487b7160e01b600052601160045260246000fd5b5060010190565b601f82111561072657600081815260208120601f850160051c8101602086101561155e5750805b601f850160051c820191505b81811015610c645782815560010161156a565b815167ffffffffffffffff811115611597576115976111d5565b6115ab816115a584546114d6565b84611537565b602080601f8311600181146115e057600084156115c85750858301515b600019600386901b1c1916600185901b178555610c64565b600085815260208120601f198616915b8281101561160f578886015182559484019460019091019084016115f0565b508582101561162d5787850151600019600388901b60f8161c191681555b5050505050600190811b01905550565b6000835161164f818460208801611113565b835190830190611663818360208801611113565b01949350505050565b6001600160a01b038581168252841660208201526040810183905260806060820181905260009061169f90830184611137565b9695505050505050565b6000602082840312156116bb57600080fd5b815161083d816110e056fea2646970667358221220b933e4cab9eb5fca68db1350cd6230830c6e923682ffffe2556b2f79d8a6806364736f6c63430008130033",
  "immutableReferences": {},
  "source": "// SPDX-License-Identifier: MIT\npragma solidity ^0.8.19;\n\nimport \"./ERC721.sol\";\nimport \"./Ownable.sol\";\n\ncontract MiNFT is ERC721, Ownable {\n    struct Date {\n        uint8 month; // 1-12\n        uint16 year; // 2024, 2025, etc.\n    }\n\n    struct Validation {\n        string srcCourse;\n        string dstCourse;\n        Date period;\n    }\n\n    uint256 private _tokenIdCounter;\n\n    mapping(uint => Validation) private validities;\n\n    constructor(address owner) ERC721(\"MiNFT\", \"MNFT\") Ownable(owner) {\n        _tokenIdCounter = 0;\n    }\n\n    function mintNFT(\n        address sender,\n        address to,\n        string memory _srcCourse,\n        string memory _dstCourse\n    ) public returns (uint) {\n        require(owner() == sender, \"Not the super Owner\");\n        _tokenIdCounter++;\n        _safeMint(to, _tokenIdCounter);\n        validities[_tokenIdCounter].srcCourse = _srcCourse;\n        validities[_tokenIdCounter].dstCourse = _dstCourse;\n        return _tokenIdCounter;\n    }\n\n    function setValidityPeriod(\n        address sender,\n        uint id,\n        uint8 _month,\n        uint16 _year\n    ) public {\n        require(_month >= 1 && _month <= 12, \"invalid month\");\n        require(_year >= 1900 && _year <= 2100, \"invalid year\");\n        require(\n            ownerOf(id) == sender,\n            \"This coordinator does not have that validation\"\n        );\n\n        validities[id].period = Date(_month, _year);\n    }\n\n    function getDate(uint id) public view returns (uint8, uint16) {\n        return (validities[id].period.month, validities[id].period.year);\n    }\n\n    function transferValidity(\n        uint id,\n        address origin,\n        address destination\n    ) public {\n        _safeTransfer(origin, destination, id);\n    }\n}\n",
  "sourcePath": "/app/contracts/token.sol",
  "compiler": {
    "name": "solc",
    "version": "0.8.19+commit.7dd6d404.Emscripten.clang"
  },
  "schemaVersion": "3.4.16",
  "updatedAt": "2025-02-20T19:53:17.265Z",
  "devdoc": {
    "errors": {
      "ERC721IncorrectOwner(address,uint256,address)": [
        {
          "details": "Indicates an error related to the ownership over a particular token. Used in transfers.",
          "params": {
            "owner": "Address of the current owner of a token.",
            "sender": "Address whose tokens are being transferred.",
            "tokenId": "Identifier number of a token."
          }
        }
      ],
      "ERC721InsufficientApproval(address,uint256)": [
        {
          "details": "Indicates a failure with the `operator`s approval. Used in transfers.",
          "params": {
            "operator": "Address that may be allowed to operate on tokens without being their owner.",
            "tokenId": "Identifier number of a token."
          }
        }
      ],
      "ERC721InvalidApprover(address)": [
        {
          "details": "Indicates a failure with the `approver` of a token to be approved. Used in approvals.",
          "params": {
            "approver": "Address initiating an approval operation."
          }
        }
      ],
      "ERC721InvalidOperator(address)": [
        {
          "details": "Indicates a failure with the `operator` to be approved. Used in approvals.",
          "params": {
            "operator": "Address that may be allowed to operate on tokens without being their owner."
          }
        }
      ],
      "ERC721InvalidOwner(address)": [
        {
          "details": "Indicates that an address can't be an owner. For example, `address(0)` is a forbidden owner in ERC-20. Used in balance queries.",
          "params": {
            "owner": "Address of the current owner of a token."
          }
        }
      ],
      "ERC721InvalidReceiver(address)": [
        {
          "details": "Indicates a failure with the token `receiver`. Used in transfers.",
          "params": {
            "receiver": "Address to which tokens are being transferred."
          }
        }
      ],
      "ERC721InvalidSender(address)": [
        {
          "details": "Indicates a failure with the token `sender`. Used in transfers.",
          "params": {
            "sender": "Address whose tokens are being transferred."
          }
        }
      ],
      "ERC721NonexistentToken(uint256)": [
        {
          "details": "Indicates a `tokenId` whose `owner` is the zero address.",
          "params": {
            "tokenId": "Identifier number of a token."
          }
        }
      ],
      "OwnableInvalidOwner(address)": [
        {
          "details": "The owner is not a valid owner account. (eg. `address(0)`)"
        }
      ],
      "OwnableUnauthorizedAccount(address)": [
        {
          "details": "The caller account is not authorized to perform an operation."
        }
      ]
    },
    "events": {
      "Approval(address,address,uint256)": {
        "details": "Emitted when `owner` enables `approved` to manage the `tokenId` token."
      },
      "ApprovalForAll(address,address,bool)": {
        "details": "Emitted when `owner` enables or disables (`approved`) `operator` to manage all of its assets."
      },
      "Transfer(address,address,uint256)": {
        "details": "Emitted when `tokenId` token is transferred from `from` to `to`."
      }
    },
    "kind": "dev",
    "methods": {
      "approve(address,uint256)": {
        "details": "See {IERC721-approve}."
      },
      "balanceOf(address)": {
        "details": "See {IERC721-balanceOf}."
      },
      "getApproved(uint256)": {
        "details": "See {IERC721-getApproved}."
      },
      "isApprovedForAll(address,address)": {
        "details": "See {IERC721-isApprovedForAll}."
      },
      "name()": {
        "details": "See {IERC721Metadata-name}."
      },
      "owner()": {
        "details": "Returns the address of the current owner."
      },
      "ownerOf(uint256)": {
        "details": "See {IERC721-ownerOf}."
      },
      "renounceOwnership()": {
        "details": "Leaves the contract without owner. It will not be possible to call `onlyOwner` functions. Can only be called by the current owner. NOTE: Renouncing ownership will leave the contract without an owner, thereby disabling any functionality that is only available to the owner."
      },
      "safeTransferFrom(address,address,uint256)": {
        "details": "See {IERC721-safeTransferFrom}."
      },
      "safeTransferFrom(address,address,uint256,bytes)": {
        "details": "See {IERC721-safeTransferFrom}."
      },
      "setApprovalForAll(address,bool)": {
        "details": "See {IERC721-setApprovalForAll}."
      },
      "supportsInterface(bytes4)": {
        "details": "See {IERC165-supportsInterface}."
      },
      "symbol()": {
        "details": "See {IERC721Metadata-symbol}."
      },
      "tokenURI(uint256)": {
        "details": "See {IERC721Metadata-tokenURI}."
      },
      "transferFrom(address,address,uint256)": {
        "details": "See {IERC721-transferFrom}."
      },
      "transferOwnership(address)": {
        "details": "Transfers ownership of the contract to a new account (`newOwner`). Can only be called by the current owner."
      }
    },
    "version": 1
  },
  "userdoc": {
    "kind": "user",
    "methods": {},
    "version": 1
  }
}