{
  "contractName": "Prueba2",
  "abi": [
    {
      "inputs": [],
      "stateMutability": "nonpayable",
      "type": "constructor"
    },
    {
      "anonymous": false,
      "inputs": [
        {
          "indexed": false,
          "internalType": "string",
          "name": "message",
          "type": "string"
        }
      ],
      "name": "ParticipantAdded",
      "type": "event"
    },
    {
      "inputs": [
        {
          "internalType": "address",
          "name": "",
          "type": "address"
        }
      ],
      "name": "personToHash",
      "outputs": [
        {
          "internalType": "string",
          "name": "",
          "type": "string"
        }
      ],
      "stateMutability": "view",
      "type": "function"
    },
    {
      "inputs": [
        {
          "internalType": "address",
          "name": "",
          "type": "address"
        }
      ],
      "name": "studentToRecord",
      "outputs": [
        {
          "internalType": "string",
          "name": "hash",
          "type": "string"
        }
      ],
      "stateMutability": "view",
      "type": "function"
    },
    {
      "inputs": [
        {
          "internalType": "address",
          "name": "",
          "type": "address"
        }
      ],
      "name": "universityToHash",
      "outputs": [
        {
          "internalType": "string",
          "name": "",
          "type": "string"
        }
      ],
      "stateMutability": "view",
      "type": "function"
    },
    {
      "inputs": [
        {
          "internalType": "string",
          "name": "hash",
          "type": "string"
        },
        {
          "internalType": "address",
          "name": "participant",
          "type": "address"
        }
      ],
      "name": "addUniversity",
      "outputs": [],
      "stateMutability": "nonpayable",
      "type": "function"
    },
    {
      "inputs": [
        {
          "internalType": "string",
          "name": "hash",
          "type": "string"
        },
        {
          "internalType": "address",
          "name": "participant",
          "type": "address"
        }
      ],
      "name": "addParticipant",
      "outputs": [],
      "stateMutability": "nonpayable",
      "type": "function"
    },
    {
      "inputs": [
        {
          "internalType": "string",
          "name": "user",
          "type": "string"
        },
        {
          "internalType": "string",
          "name": "passwd",
          "type": "string"
        }
      ],
      "name": "calculateHash",
      "outputs": [
        {
          "internalType": "bytes32",
          "name": "",
          "type": "bytes32"
        }
      ],
      "stateMutability": "pure",
      "type": "function"
    },
    {
      "inputs": [
        {
          "internalType": "string",
          "name": "user",
          "type": "string"
        },
        {
          "internalType": "string",
          "name": "passwd",
          "type": "string"
        }
      ],
      "name": "consultParticipant",
      "outputs": [
        {
          "internalType": "bool",
          "name": "",
          "type": "bool"
        }
      ],
      "stateMutability": "view",
      "type": "function"
    },
    {
      "inputs": [
        {
          "internalType": "address",
          "name": "student",
          "type": "address"
        },
        {
          "internalType": "address",
          "name": "profesor",
          "type": "address"
        }
      ],
      "name": "addProfesor",
      "outputs": [],
      "stateMutability": "nonpayable",
      "type": "function"
    },
    {
      "inputs": [
        {
          "internalType": "address",
          "name": "student",
          "type": "address"
        }
      ],
      "name": "getProfesores",
      "outputs": [
        {
          "internalType": "address[]",
          "name": "",
          "type": "address[]"
        }
      ],
      "stateMutability": "view",
      "type": "function"
    },
    {
      "inputs": [
        {
          "internalType": "string",
          "name": "hash",
          "type": "string"
        },
        {
          "internalType": "address",
          "name": "participant",
          "type": "address"
        }
      ],
      "name": "update",
      "outputs": [],
      "stateMutability": "nonpayable",
      "type": "function"
    },
    {
      "inputs": [
        {
          "internalType": "address",
          "name": "participant",
          "type": "address"
        }
      ],
      "name": "removeParticipant",
      "outputs": [],
      "stateMutability": "nonpayable",
      "type": "function"
    }
  ],
  "bytecode": "0x608060405234801561000f575f80fd5b503360035f6101000a81548173ffffffffffffffffffffffffffffffffffffffff021916908373ffffffffffffffffffffffffffffffffffffffff160217905550611b388061005d5f395ff3fe608060405234801561000f575f80fd5b50600436106100a7575f3560e01c8063877f86671161006f578063877f86671461015f5780639b30f0dc1461018f578063a287bbea146101ab578063a3631ad5146101db578063f5b5df481461020b578063ff25ef1014610227576100a7565b80630ae610f8146100ab5780632cff89c9146100c75780634f0466bf146100e3578063511fbc3514610113578063668a200114610143575b5f80fd5b6100c560048036038101906100c09190610f12565b610257565b005b6100e160048036038101906100dc919061108c565b6104e2565b005b6100fd60048036038101906100f891906110e6565b61064b565b60405161010a919061118b565b60405180910390f35b61012d600480360381019061012891906110e6565b6106ec565b60405161013a919061118b565b60405180910390f35b61015d600480360381019061015891906110e6565b610787565b005b610179600480360381019061017491906111ab565b610860565b604051610186919061123b565b60405180910390f35b6101a960048036038101906101a4919061108c565b610981565b005b6101c560048036038101906101c091906110e6565b610b1f565b6040516101d2919061118b565b60405180910390f35b6101f560048036038101906101f091906110e6565b610bb9565b604051610202919061130b565b60405180910390f35b6102256004803603810190610220919061108c565b610c83565b005b610241600480360381019061023c91906111ab565b610e1d565b60405161024e9190611343565b60405180910390f35b60035f9054906101000a900473ffffffffffffffffffffffffffffffffffffffff1673ffffffffffffffffffffffffffffffffffffffff163373ffffffffffffffffffffffffffffffffffffffff16146102e6576040517f08c379a00000000000000000000000000000000000000000000000000000000081526004016102dd906113a6565b60405180910390fd5b60025f8373ffffffffffffffffffffffffffffffffffffffff1673ffffffffffffffffffffffffffffffffffffffff1681526020019081526020015f206001015f8273ffffffffffffffffffffffffffffffffffffffff1673ffffffffffffffffffffffffffffffffffffffff1681526020019081526020015f205f9054906101000a900460ff16156103ae576040517f08c379a00000000000000000000000000000000000000000000000000000000081526004016103a59061140e565b60405180910390fd5b60025f8373ffffffffffffffffffffffffffffffffffffffff1673ffffffffffffffffffffffffffffffffffffffff1681526020019081526020015f205f0181908060018154018082558091505060019003905f5260205f20015f9091909190916101000a81548173ffffffffffffffffffffffffffffffffffffffff021916908373ffffffffffffffffffffffffffffffffffffffff160217905550600160025f8473ffffffffffffffffffffffffffffffffffffffff1673ffffffffffffffffffffffffffffffffffffffff1681526020019081526020015f206001015f8373ffffffffffffffffffffffffffffffffffffffff1673ffffffffffffffffffffffffffffffffffffffff1681526020019081526020015f205f6101000a81548160ff0219169083151502179055505050565b60035f9054906101000a900473ffffffffffffffffffffffffffffffffffffffff1673ffffffffffffffffffffffffffffffffffffffff163373ffffffffffffffffffffffffffffffffffffffff1614610571576040517f08c379a0000000000000000000000000000000000000000000000000000000008152600401610568906113a6565b60405180910390fd5b805f805f8373ffffffffffffffffffffffffffffffffffffffff1673ffffffffffffffffffffffffffffffffffffffff1681526020019081526020015f2080546105ba90611459565b9050036105fc576040517f08c379a00000000000000000000000000000000000000000000000000000000081526004016105f3906114d3565b60405180910390fd5b825f808473ffffffffffffffffffffffffffffffffffffffff1673ffffffffffffffffffffffffffffffffffffffff1681526020019081526020015f2090816106459190611697565b50505050565b6002602052805f5260405f205f9150905080600201805461066b90611459565b80601f016020809104026020016040519081016040528092919081815260200182805461069790611459565b80156106e25780601f106106b9576101008083540402835291602001916106e2565b820191905f5260205f20905b8154815290600101906020018083116106c557829003601f168201915b5050505050905081565b6001602052805f5260405f205f91509050805461070890611459565b80601f016020809104026020016040519081016040528092919081815260200182805461073490611459565b801561077f5780601f106107565761010080835404028352916020019161077f565b820191905f5260205f20905b81548152906001019060200180831161076257829003601f168201915b505050505081565b60035f9054906101000a900473ffffffffffffffffffffffffffffffffffffffff1673ffffffffffffffffffffffffffffffffffffffff163373ffffffffffffffffffffffffffffffffffffffff1614610816576040517f08c379a000000000000000000000000000000000000000000000000000000000815260040161080d906113a6565b60405180910390fd5b5f808273ffffffffffffffffffffffffffffffffffffffff1673ffffffffffffffffffffffffffffffffffffffff1681526020019081526020015f205f61085d9190610e4f565b50565b5f335f805f8373ffffffffffffffffffffffffffffffffffffffff1673ffffffffffffffffffffffffffffffffffffffff1681526020019081526020015f2080546108aa90611459565b9050036108ec576040517f08c379a00000000000000000000000000000000000000000000000000000000081526004016108e3906114d3565b60405180910390fd5b83836040516020016108ff9291906117ea565b604051602081830303815290604052805190602001205f803373ffffffffffffffffffffffffffffffffffffffff1673ffffffffffffffffffffffffffffffffffffffff1681526020019081526020015f206040516020016109619190611898565b604051602081830303815290604052805190602001201491505092915050565b60035f9054906101000a900473ffffffffffffffffffffffffffffffffffffffff1673ffffffffffffffffffffffffffffffffffffffff163373ffffffffffffffffffffffffffffffffffffffff1614610a10576040517f08c379a0000000000000000000000000000000000000000000000000000000008152600401610a07906113a6565b60405180910390fd5b5f60015f8373ffffffffffffffffffffffffffffffffffffffff1673ffffffffffffffffffffffffffffffffffffffff1681526020019081526020015f208054610a5990611459565b905014610a9b576040517f08c379a0000000000000000000000000000000000000000000000000000000008152600401610a92906118f8565b60405180910390fd5b8160015f8373ffffffffffffffffffffffffffffffffffffffff1673ffffffffffffffffffffffffffffffffffffffff1681526020019081526020015f209081610ae59190611697565b507f65a85354bc5ae3125c1bb8ebfec33fbeafc83983dfaae96d5cec1bb02abc4cb3604051610b1390611986565b60405180910390a15050565b5f602052805f5260405f205f915090508054610b3a90611459565b80601f0160208091040260200160405190810160405280929190818152602001828054610b6690611459565b8015610bb15780601f10610b8857610100808354040283529160200191610bb1565b820191905f5260205f20905b815481529060010190602001808311610b9457829003601f168201915b505050505081565b606060025f8373ffffffffffffffffffffffffffffffffffffffff1673ffffffffffffffffffffffffffffffffffffffff1681526020019081526020015f205f01805480602002602001604051908101604052809291908181526020018280548015610c7757602002820191905f5260205f20905b815f9054906101000a900473ffffffffffffffffffffffffffffffffffffffff1673ffffffffffffffffffffffffffffffffffffffff1681526020019060010190808311610c2e575b50505050509050919050565b805f60015f8373ffffffffffffffffffffffffffffffffffffffff1673ffffffffffffffffffffffffffffffffffffffff1681526020019081526020015f208054610ccd90611459565b905003610d0f576040517f08c379a0000000000000000000000000000000000000000000000000000000008152600401610d06906119ee565b60405180910390fd5b5f805f8473ffffffffffffffffffffffffffffffffffffffff1673ffffffffffffffffffffffffffffffffffffffff1681526020019081526020015f208054610d5790611459565b905014610d99576040517f08c379a0000000000000000000000000000000000000000000000000000000008152600401610d9090611a56565b60405180910390fd5b825f808473ffffffffffffffffffffffffffffffffffffffff1673ffffffffffffffffffffffffffffffffffffffff1681526020019081526020015f209081610de29190611697565b507f65a85354bc5ae3125c1bb8ebfec33fbeafc83983dfaae96d5cec1bb02abc4cb3604051610e1090611ae4565b60405180910390a1505050565b5f8282604051602001610e319291906117ea565b60405160208183030381529060405280519060200120905092915050565b508054610e5b90611459565b5f825580601f10610e6c5750610e89565b601f0160209004905f5260205f2090810190610e889190610e8c565b5b50565b5b80821115610ea3575f815f905550600101610e8d565b5090565b5f604051905090565b5f80fd5b5f80fd5b5f73ffffffffffffffffffffffffffffffffffffffff82169050919050565b5f610ee182610eb8565b9050919050565b610ef181610ed7565b8114610efb575f80fd5b50565b5f81359050610f0c81610ee8565b92915050565b5f8060408385031215610f2857610f27610eb0565b5b5f610f3585828601610efe565b9250506020610f4685828601610efe565b9150509250929050565b5f80fd5b5f80fd5b5f601f19601f8301169050919050565b7f4e487b71000000000000000000000000000000000000000000000000000000005f52604160045260245ffd5b610f9e82610f58565b810181811067ffffffffffffffff82111715610fbd57610fbc610f68565b5b80604052505050565b5f610fcf610ea7565b9050610fdb8282610f95565b919050565b5f67ffffffffffffffff821115610ffa57610ff9610f68565b5b61100382610f58565b9050602081019050919050565b828183375f83830152505050565b5f61103061102b84610fe0565b610fc6565b90508281526020810184848401111561104c5761104b610f54565b5b611057848285611010565b509392505050565b5f82601f83011261107357611072610f50565b5b813561108384826020860161101e565b91505092915050565b5f80604083850312156110a2576110a1610eb0565b5b5f83013567ffffffffffffffff8111156110bf576110be610eb4565b5b6110cb8582860161105f565b92505060206110dc85828601610efe565b9150509250929050565b5f602082840312156110fb576110fa610eb0565b5b5f61110884828501610efe565b91505092915050565b5f81519050919050565b5f82825260208201905092915050565b5f5b8381101561114857808201518184015260208101905061112d565b5f8484015250505050565b5f61115d82611111565b611167818561111b565b935061117781856020860161112b565b61118081610f58565b840191505092915050565b5f6020820190508181035f8301526111a38184611153565b905092915050565b5f80604083850312156111c1576111c0610eb0565b5b5f83013567ffffffffffffffff8111156111de576111dd610eb4565b5b6111ea8582860161105f565b925050602083013567ffffffffffffffff81111561120b5761120a610eb4565b5b6112178582860161105f565b9150509250929050565b5f8115159050919050565b61123581611221565b82525050565b5f60208201905061124e5f83018461122c565b92915050565b5f81519050919050565b5f82825260208201905092915050565b5f819050602082019050919050565b61128681610ed7565b82525050565b5f611297838361127d565b60208301905092915050565b5f602082019050919050565b5f6112b982611254565b6112c3818561125e565b93506112ce8361126e565b805f5b838110156112fe5781516112e5888261128c565b97506112f0836112a3565b9250506001810190506112d1565b5085935050505092915050565b5f6020820190508181035f83015261132381846112af565b905092915050565b5f819050919050565b61133d8161132b565b82525050565b5f6020820190506113565f830184611334565b92915050565b7f4e6f742074686520636f6e7472616374206f776e6572000000000000000000005f82015250565b5f61139060168361111b565b915061139b8261135c565b602082019050919050565b5f6020820190508181035f8301526113bd81611384565b9050919050565b7f50726f6665736f722079612065786973746500000000000000000000000000005f82015250565b5f6113f860128361111b565b9150611403826113c4565b602082019050919050565b5f6020820190508181035f830152611425816113ec565b9050919050565b7f4e487b71000000000000000000000000000000000000000000000000000000005f52602260045260245ffd5b5f600282049050600182168061147057607f821691505b6020821081036114835761148261142c565b5b50919050565b7f5061727469636970616e7420646f6573206e6f742065786973740000000000005f82015250565b5f6114bd601a8361111b565b91506114c882611489565b602082019050919050565b5f6020820190508181035f8301526114ea816114b1565b9050919050565b5f819050815f5260205f209050919050565b5f6020601f8301049050919050565b5f82821b905092915050565b5f6008830261154d7fffffffffffffffffffffffffffffffffffffffffffffffffffffffffffffffff82611512565b6115578683611512565b95508019841693508086168417925050509392505050565b5f819050919050565b5f819050919050565b5f61159b6115966115918461156f565b611578565b61156f565b9050919050565b5f819050919050565b6115b483611581565b6115c86115c0826115a2565b84845461151e565b825550505050565b5f90565b6115dc6115d0565b6115e78184846115ab565b505050565b5b8181101561160a576115ff5f826115d4565b6001810190506115ed565b5050565b601f82111561164f57611620816114f1565b61162984611503565b81016020851015611638578190505b61164c61164485611503565b8301826115ec565b50505b505050565b5f82821c905092915050565b5f61166f5f1984600802611654565b1980831691505092915050565b5f6116878383611660565b9150826002028217905092915050565b6116a082611111565b67ffffffffffffffff8111156116b9576116b8610f68565b5b6116c38254611459565b6116ce82828561160e565b5f60209050601f8311600181146116ff575f84156116ed578287015190505b6116f7858261167c565b86555061175e565b601f19841661170d866114f1565b5f5b828110156117345784890151825560018201915060208501945060208101905061170f565b86831015611751578489015161174d601f891682611660565b8355505b6001600288020188555050505b505050505050565b5f81905092915050565b5f61177a82611111565b6117848185611766565b935061179481856020860161112b565b80840191505092915050565b7f72616e646f6d5f73616c745f76616c75650000000000000000000000000000005f82015250565b5f6117d4601183611766565b91506117df826117a0565b601182019050919050565b5f6117f58285611770565b91506118018284611770565b915061180c826117c8565b91508190509392505050565b5f815461182481611459565b61182e8186611766565b9450600182165f8114611848576001811461185d5761188f565b60ff198316865281151582028601935061188f565b611866856114f1565b5f5b8381101561188757815481890152600182019150602081019050611868565b838801955050505b50505092915050565b5f6118a38284611818565b915081905092915050565b7f556e697665727369747920616c726561647920657869737473000000000000005f82015250565b5f6118e260198361111b565b91506118ed826118ae565b602082019050919050565b5f6020820190508181035f83015261190f816118d6565b9050919050565b7f536520686120616e616469646f20756e61206e7565766120756e6976657273695f8201527f64616420636f7272656374616d656e7465000000000000000000000000000000602082015250565b5f61197060318361111b565b915061197b82611916565b604082019050919050565b5f6020820190508181035f83015261199d81611964565b9050919050565b7f556e697665727369747920646f6573206e6f74206578697374000000000000005f82015250565b5f6119d860198361111b565b91506119e3826119a4565b602082019050919050565b5f6020820190508181035f830152611a05816119cc565b9050919050565b7f5061727469636970616e7420616c7265616479206578697374730000000000005f82015250565b5f611a40601a8361111b565b9150611a4b82611a0c565b602082019050919050565b5f6020820190508181035f830152611a6d81611a34565b9050919050565b7f536520686120616e616469646f20756e206e7565766f207061727469636970615f8201527f6e746520636f7272656374616d656e7465000000000000000000000000000000602082015250565b5f611ace60318361111b565b9150611ad982611a74565b604082019050919050565b5f6020820190508181035f830152611afb81611ac2565b905091905056fea264697066735822122053d38081deaa569fcc66308bd7edb40fbc15bf077f9181c70856965252863eec64736f6c63430008150033",
  "immutableReferences": {},
  "source": "// SPDX-License-Identifier: MIT\r\npragma solidity 0.8.21;\r\n\r\ncontract Prueba2 {\r\n    struct Expediente {\r\n        address[] profesores;\r\n        mapping(address => bool) profesorExiste;\r\n        string hash;\r\n    }\r\n\r\n    mapping(address => string) public personToHash;\r\n    mapping(address => string) public universityToHash;\r\n    mapping(address => Expediente) public studentToRecord;\r\n    address private _owner;\r\n\r\n    constructor() {\r\n        _owner = msg.sender;\r\n    }\r\n\r\n    modifier onlyOwner() {\r\n        require(msg.sender == _owner, \"Not the contract owner\");\r\n        _;\r\n    }\r\n\r\n    modifier participantExists(address participant) {\r\n        require(\r\n            bytes(personToHash[participant]).length != 0,\r\n            \"Participant does not exist\"\r\n        );\r\n        _;\r\n    }\r\n\r\n    modifier universityExists(address participant) {\r\n        require(\r\n            bytes(universityToHash[participant]).length != 0,\r\n            \"University does not exist\"\r\n        );\r\n        _;\r\n    }\r\n\r\n    event ParticipantAdded(string message);\r\n\r\n    function addUniversity(\r\n        string memory hash,\r\n        address participant\r\n    ) public onlyOwner {\r\n        require(\r\n            bytes(universityToHash[participant]).length == 0,\r\n            \"University already exists\"\r\n        );\r\n        universityToHash[participant] = hash;\r\n        emit ParticipantAdded(\r\n            \"Se ha anadido una nueva universidad correctamente\"\r\n        );\r\n    }\r\n\r\n    function addParticipant(\r\n        string memory hash,\r\n        address participant\r\n    ) public universityExists(participant) {\r\n        require(\r\n            bytes(personToHash[participant]).length == 0,\r\n            \"Participant already exists\"\r\n        );\r\n        personToHash[participant] = hash;\r\n        emit ParticipantAdded(\r\n            \"Se ha anadido un nuevo participante correctamente\"\r\n        );\r\n    }\r\n\r\n    function calculateHash(\r\n        string memory user,\r\n        string memory passwd\r\n    ) public pure returns (bytes32) {\r\n        return keccak256(abi.encodePacked(user, passwd, \"random_salt_value\"));\r\n    }\r\n\r\n    function consultParticipant(\r\n        string memory user,\r\n        string memory passwd\r\n    ) public view participantExists(msg.sender) returns (bool) {\r\n        return\r\n            keccak256(abi.encodePacked(personToHash[msg.sender])) ==\r\n            keccak256(abi.encodePacked(user, passwd, \"random_salt_value\"));\r\n    }\r\n\r\n    function addProfesor(address student, address profesor) public onlyOwner {\r\n        require(\r\n            !studentToRecord[student].profesorExiste[profesor],\r\n            \"Profesor ya existe\"\r\n        );\r\n        studentToRecord[student].profesores.push(profesor);\r\n        studentToRecord[student].profesorExiste[profesor] = true;\r\n    }\r\n\r\n    function getProfesores(\r\n        address student\r\n    ) public view returns (address[] memory) {\r\n        return studentToRecord[student].profesores;\r\n    }\r\n\r\n    function update(\r\n        string memory hash,\r\n        address participant\r\n    ) public onlyOwner participantExists(participant) {\r\n        personToHash[participant] = hash;\r\n    }\r\n\r\n    function removeParticipant(address participant) public onlyOwner {\r\n        delete personToHash[participant];\r\n    }\r\n}\r\n",
  "sourcePath": "C:\\Users\\Agustin\\Desktop\\CarreraUCM\\TFG\\pruebaTruffle\\contracts\\tfg.sol",
  "compiler": {
    "name": "solc",
    "version": "0.8.21+commit.d9974bed.Emscripten.clang"
  },
  "schemaVersion": "3.4.16",
  "updatedAt": "2025-01-26T10:59:11.464Z",
  "devdoc": {
    "kind": "dev",
    "methods": {},
    "version": 1
  },
  "userdoc": {
    "kind": "user",
    "methods": {},
    "version": 1
  }
}