{
  "contractName": "tfg",
  "abi": [
    {
      "inputs": [],
      "stateMutability": "nonpayable",
      "type": "constructor"
    },
    {
      "anonymous": false,
      "inputs": [
        {
          "indexed": false,
          "internalType": "string",
          "name": "message",
          "type": "string"
        }
      ],
      "name": "ParticipantAdded",
      "type": "event"
    },
    {
      "inputs": [
        {
          "internalType": "address",
          "name": "",
          "type": "address"
        }
      ],
      "name": "personToHash",
      "outputs": [
        {
          "internalType": "string",
          "name": "hash",
          "type": "string"
        },
        {
          "internalType": "uint256",
          "name": "role",
          "type": "uint256"
        }
      ],
      "stateMutability": "view",
      "type": "function",
      "constant": true
    },
    {
      "inputs": [
        {
          "internalType": "address",
          "name": "",
          "type": "address"
        }
      ],
      "name": "studentToRecord",
      "outputs": [
        {
          "internalType": "string",
          "name": "hash",
          "type": "string"
        }
      ],
      "stateMutability": "view",
      "type": "function",
      "constant": true
    },
    {
      "inputs": [
        {
          "internalType": "address",
          "name": "",
          "type": "address"
        }
      ],
      "name": "universityToHash",
      "outputs": [
        {
          "internalType": "string",
          "name": "",
          "type": "string"
        }
      ],
      "stateMutability": "view",
      "type": "function",
      "constant": true
    },
    {
      "inputs": [],
      "name": "validations",
      "outputs": [
        {
          "internalType": "contract MiNFT",
          "name": "",
          "type": "address"
        }
      ],
      "stateMutability": "view",
      "type": "function",
      "constant": true
    },
    {
      "inputs": [
        {
          "internalType": "string",
          "name": "hash",
          "type": "string"
        },
        {
          "internalType": "address",
          "name": "participant",
          "type": "address"
        }
      ],
      "name": "addUniversity",
      "outputs": [],
      "stateMutability": "nonpayable",
      "type": "function"
    },
    {
      "inputs": [
        {
          "internalType": "string",
          "name": "_hash",
          "type": "string"
        },
        {
          "internalType": "address",
          "name": "participant",
          "type": "address"
        },
        {
          "internalType": "uint256",
          "name": "_role",
          "type": "uint256"
        }
      ],
      "name": "addParticipant",
      "outputs": [],
      "stateMutability": "nonpayable",
      "type": "function"
    },
    {
      "inputs": [
        {
          "internalType": "string",
          "name": "user",
          "type": "string"
        },
        {
          "internalType": "string",
          "name": "passwd",
          "type": "string"
        }
      ],
      "name": "calculateSHA256",
      "outputs": [
        {
          "internalType": "bytes32",
          "name": "",
          "type": "bytes32"
        }
      ],
      "stateMutability": "pure",
      "type": "function",
      "constant": true
    },
    {
      "inputs": [
        {
          "internalType": "bytes32",
          "name": "_bytes32",
          "type": "bytes32"
        }
      ],
      "name": "bytes32ToString",
      "outputs": [
        {
          "internalType": "string",
          "name": "",
          "type": "string"
        }
      ],
      "stateMutability": "pure",
      "type": "function",
      "constant": true
    },
    {
      "inputs": [
        {
          "internalType": "string",
          "name": "user",
          "type": "string"
        },
        {
          "internalType": "string",
          "name": "passwd",
          "type": "string"
        }
      ],
      "name": "consultParticipant",
      "outputs": [
        {
          "internalType": "bool",
          "name": "",
          "type": "bool"
        }
      ],
      "stateMutability": "view",
      "type": "function",
      "constant": true
    },
    {
      "inputs": [
        {
          "internalType": "string",
          "name": "user",
          "type": "string"
        },
        {
          "internalType": "string",
          "name": "passwd",
          "type": "string"
        }
      ],
      "name": "consultUniversity",
      "outputs": [
        {
          "internalType": "bool",
          "name": "",
          "type": "bool"
        }
      ],
      "stateMutability": "view",
      "type": "function",
      "constant": true
    },
    {
      "inputs": [
        {
          "internalType": "address",
          "name": "student",
          "type": "address"
        },
        {
          "internalType": "address",
          "name": "profesor",
          "type": "address"
        }
      ],
      "name": "addTeacherToTranscript",
      "outputs": [],
      "stateMutability": "nonpayable",
      "type": "function"
    },
    {
      "inputs": [
        {
          "internalType": "address",
          "name": "student",
          "type": "address"
        }
      ],
      "name": "getAllowedTeachers",
      "outputs": [
        {
          "internalType": "address[]",
          "name": "",
          "type": "address[]"
        }
      ],
      "stateMutability": "view",
      "type": "function",
      "constant": true
    },
    {
      "inputs": [
        {
          "internalType": "string",
          "name": "hash",
          "type": "string"
        },
        {
          "internalType": "address",
          "name": "participant",
          "type": "address"
        }
      ],
      "name": "updateMark",
      "outputs": [],
      "stateMutability": "nonpayable",
      "type": "function"
    },
    {
      "inputs": [
        {
          "internalType": "string",
          "name": "hash",
          "type": "string"
        },
        {
          "internalType": "address",
          "name": "participant",
          "type": "address"
        }
      ],
      "name": "updateTranscript",
      "outputs": [],
      "stateMutability": "nonpayable",
      "type": "function"
    },
    {
      "inputs": [
        {
          "internalType": "address",
          "name": "participant",
          "type": "address"
        }
      ],
      "name": "removeParticipant",
      "outputs": [],
      "stateMutability": "nonpayable",
      "type": "function"
    },
    {
      "inputs": [],
      "name": "createValidation",
      "outputs": [],
      "stateMutability": "nonpayable",
      "type": "function"
    },
    {
      "inputs": [
        {
          "internalType": "address",
          "name": "tk",
          "type": "address"
        }
      ],
      "name": "setValidation",
      "outputs": [],
      "stateMutability": "nonpayable",
      "type": "function"
    },
    {
      "inputs": [
        {
          "internalType": "address",
          "name": "degreeCoord",
          "type": "address"
        },
        {
          "internalType": "string",
          "name": "srcCourse",
          "type": "string"
        },
        {
          "internalType": "string",
          "name": "dstCourse",
          "type": "string"
        },
        {
          "internalType": "uint8",
          "name": "month",
          "type": "uint8"
        },
        {
          "internalType": "uint16",
          "name": "year",
          "type": "uint16"
        }
      ],
      "name": "addValidation",
      "outputs": [
        {
          "internalType": "uint256",
          "name": "",
          "type": "uint256"
        }
      ],
      "stateMutability": "nonpayable",
      "type": "function"
    },
    {
      "inputs": [
        {
          "internalType": "uint256",
          "name": "id",
          "type": "uint256"
        },
        {
          "internalType": "uint8",
          "name": "month",
          "type": "uint8"
        },
        {
          "internalType": "uint16",
          "name": "year",
          "type": "uint16"
        }
      ],
      "name": "updateValidation",
      "outputs": [],
      "stateMutability": "nonpayable",
      "type": "function"
    },
    {
      "inputs": [
        {
          "internalType": "uint256",
          "name": "id",
          "type": "uint256"
        },
        {
          "internalType": "address",
          "name": "origin",
          "type": "address"
        },
        {
          "internalType": "address",
          "name": "destination",
          "type": "address"
        }
      ],
      "name": "transferValidation",
      "outputs": [],
      "stateMutability": "nonpayable",
      "type": "function"
    }
  ],
  "bytecode": "0x608060405234801561001057600080fd5b50600480546001600160a01b03191633179055613910806100326000396000f3fe60806040523480156200001157600080fd5b5060043610620001455760003560e01c8063877f866711620000bb578063ad504b98116200007a578063ad504b9814620002e8578063c5daf294146200030e578063d8daf1471462000318578063de17f720146200032f578063f893d777146200035c57600080fd5b8063877f866714620002655780639201de55146200027c5780639b30f0dc1462000293578063a264c7cf14620002aa578063a287bbea14620002c157600080fd5b80634f0466bf11620001085780634f0466bf14620001d4578063511fbc3514620001fa57806353d484721462000211578063668a2001146200023757806379b247f0146200024e57600080fd5b806301034345146200014a57806322c4527314620001635780632945c44b146200017a57806329ff405b14620001a657806341517eae14620001bd575b600080fd5b620001616200015b366004620017c2565b62000373565b005b6200016162000174366004620017c2565b62000538565b620001916200018b36600462001816565b62000615565b60405190151581526020015b60405180910390f35b62000161620001b736600462001881565b6200079a565b62000161620001ce366004620018de565b620008e6565b620001eb620001e53660046200191f565b62000a20565b6040516200019d919062001991565b620001eb6200020b3660046200191f565b62000ac8565b6200022862000222366004620019cb565b62000b6a565b6040519081526020016200019d565b62000161620002483660046200191f565b62000ce2565b620001616200025f36600462001a6e565b62000d80565b620001916200027636600462001816565b62000e35565b620001eb6200028d36600462001aa6565b62000f1a565b62000161620002a4366004620017c2565b620010b8565b62000161620002bb3660046200191f565b6200120a565b620002d8620002d23660046200191f565b62001259565b6040516200019d92919062001ac0565b620002ff620002f93660046200191f565b62001305565b6040516200019d919062001ae4565b620001616200137d565b620002286200032936600462001816565b62001409565b60005462000343906001600160a01b031681565b6040516001600160a01b0390911681526020016200019d565b620001616200036d36600462001b33565b6200148a565b336000818152600160208190526040909120015460021480620003b257506001600160a01b038116600090815260016020819052604090912001546003145b620004045760405162461bcd60e51b815260206004820152601c60248201527f5061727469636970616e74206973206e6f74206120746561636865720000000060448201526064015b60405180910390fd5b6001600160a01b0382166000908152600160208190526040909120810154839114620004735760405162461bcd60e51b815260206004820152601c60248201527f5061727469636970616e74206973206e6f7420612073747564656e74000000006044820152606401620003fb565b6001600160a01b0383166000908152600360209081526040808320338085526001918201909352922054859260ff909116151514620005085760405162461bcd60e51b815260206004820152602a60248201527f436f6f7264696e61746f722063616e206e6f74206d6f646966792074686973206044820152691d1c985b9cd8dc9a5c1d60b21b6064820152608401620003fb565b6001600160a01b03851660009081526003602052604090206002016200052f878262001bf1565b50505050505050565b3360008181526002602052604090208054620005549062001b62565b9050600003620005785760405162461bcd60e51b8152600401620003fb9062001cbe565b6001600160a01b0382166000908152600160208190526040909120810154839114620005e75760405162461bcd60e51b815260206004820152601c60248201527f5061727469636970616e74206973206e6f7420612073747564656e74000000006044820152606401620003fb565b6001600160a01b03831660009081526003602052604090206002016200060e858262001bf1565b5050505050565b3360008181526002602052604081208054919291620006349062001b62565b9050600003620006585760405162461bcd60e51b8152600401620003fb9062001cbe565b6000600285856040516020016200067192919062001cf5565b60408051601f19818403018152908290526200068d9162001d28565b602060405180830381855afa158015620006ab573d6000803e3d6000fd5b5050506040513d601f19601f82011682018060405250810190620006d0919062001d46565b90506000620006df8262000f1a565b33600090815260026020526040902080549192506200079091839190620007069062001b62565b80601f0160208091040260200160405190810160405280929190818152602001828054620007349062001b62565b8015620007855780601f10620007595761010080835404028352916020019162000785565b820191906000526020600020905b8154815290600101906020018083116200076757829003601f168201915b505050505062001632565b9695505050505050565b3360008181526002602052604090208054620007b69062001b62565b9050600003620007da5760405162461bcd60e51b8152600401620003fb9062001cbe565b6001600160a01b03831660009081526001602081905260409091200154839015620008195760405162461bcd60e51b8152600401620003fb9062001d60565b6001600160a01b03841660009081526001602052604090206200083d868262001bf1565b506001600160a01b03841660009081526001602081905260409182902001849055517f65a85354bc5ae3125c1bb8ebfec33fbeafc83983dfaae96d5cec1bb02abc4cb390620008d79060208082526031908201527f536520686120616e616469646f20756e206e7565766f207061727469636970616040820152706e746520636f7272656374616d656e746560781b606082015260800190565b60405180910390a15050505050565b3360008181526002602052604090208054620009029062001b62565b9050600003620009265760405162461bcd60e51b8152600401620003fb9062001cbe565b6001600160a01b038316600090815260016020819052604090912001548390600314620009675760405162461bcd60e51b8152600401620003fb9062001d97565b6001600160a01b038316600090815260016020819052604090912001548390600314620009a85760405162461bcd60e51b8152600401620003fb9062001d97565b600054604051636b11cec160e01b8152600481018890526001600160a01b038781166024830152868116604483015290911690636b11cec190606401600060405180830381600087803b158015620009ff57600080fd5b505af115801562000a14573d6000803e3d6000fd5b50505050505050505050565b600360205260009081526040902060028101805462000a3f9062001b62565b80601f016020809104026020016040519081016040528092919081815260200182805462000a6d9062001b62565b801562000abe5780601f1062000a925761010080835404028352916020019162000abe565b820191906000526020600020905b81548152906001019060200180831162000aa057829003601f168201915b5050505050905081565b6002602052600090815260409020805462000ae39062001b62565b80601f016020809104026020016040519081016040528092919081815260200182805462000b119062001b62565b801562000b625780601f1062000b365761010080835404028352916020019162000b62565b820191906000526020600020905b81548152906001019060200180831162000b4457829003601f168201915b505050505081565b6004546000906001600160a01b0316331462000b9a5760405162461bcd60e51b8152600401620003fb9062001dde565b6001600160a01b03861660009081526001602081905260409091200154869060031462000bdb5760405162461bcd60e51b8152600401620003fb9062001d97565b600080546040516288bcdd60e61b81526001600160a01b039091169063222f37409062000c139033908c908c908c9060040162001e0e565b6020604051808303816000875af115801562000c33573d6000803e3d6000fd5b505050506040513d601f19601f8201168201806040525081019062000c59919062001d46565b60005460405163399159d960e01b81526001600160a01b038b811660048301526024820184905260ff8916604483015261ffff8816606483015292935091169063399159d990608401600060405180830381600087803b15801562000cbd57600080fd5b505af115801562000cd2573d6000803e3d6000fd5b50929a9950505050505050505050565b6004546001600160a01b0316331462000d0f5760405162461bcd60e51b8152600401620003fb9062001dde565b6001600160a01b03811660009081526001602081905260408220015482910362000d4d5760405162461bcd60e51b8152600401620003fb9062001d60565b6001600160a01b03821660009081526001602052604081209062000d7282826200168f565b600182016000905550505050565b336000818152600160208190526040909120015460031462000db65760405162461bcd60e51b8152600401620003fb9062001d97565b60005460405163399159d960e01b81523360048201526024810186905260ff8516604482015261ffff841660648201526001600160a01b039091169063399159d990608401600060405180830381600087803b15801562000e1657600080fd5b505af115801562000e2b573d6000803e3d6000fd5b5050505050505050565b33600081815260016020819052604082200154909190820362000e6c5760405162461bcd60e51b8152600401620003fb9062001d60565b60006002858560405160200162000e8592919062001cf5565b60408051601f198184030181529082905262000ea19162001d28565b602060405180830381855afa15801562000ebf573d6000803e3d6000fd5b5050506040513d601f19601f8201168201806040525081019062000ee4919062001d46565b9050600062000ef38262000f1a565b33600090815260016020526040902080549192506200079091839190620007069062001b62565b604080518181526060818101835291600091906020820181803683370190505060408051808201909152601081526f181899199a1a9b1b9c1cb0b131b232b360811b602082015290915060005b60208110156200108c5781600486836020811062000f895762000f8962001e5b565b835191901a90911c60ff1690811062000fa65762000fa662001e5b565b01602001516001600160f81b0319168362000fc383600262001e87565b8151811062000fd65762000fd662001e5b565b60200101906001600160f81b031916908160001a9053508185826020811062001003576200100362001e5b565b1a60f81b60f81c600f1660ff168151811062001023576200102362001e5b565b01602001516001600160f81b031916836200104083600262001e87565b6200104d90600162001ea1565b8151811062001060576200106062001e5b565b60200101906001600160f81b031916908160001a90535080620010838162001eb7565b91505062000f67565b5081604051602001620010a0919062001ed3565b60405160208183030381529060405292505050919050565b6004546001600160a01b03163314620010e55760405162461bcd60e51b8152600401620003fb9062001dde565b6001600160a01b038116600090815260026020526040902080548291906200110d9062001b62565b1590506200115e5760405162461bcd60e51b815260206004820152601960248201527f556e697665727369747920616c726561647920657869737473000000000000006044820152606401620003fb565b6001600160a01b038216600090815260026020526040902062001182848262001bf1565b507f65a85354bc5ae3125c1bb8ebfec33fbeafc83983dfaae96d5cec1bb02abc4cb3604051620011fd9060208082526031908201527f536520686120616e616469646f20756e61206e7565766120756e69766572736960408201527064616420636f7272656374616d656e746560781b606082015260800190565b60405180910390a1505050565b6004546001600160a01b03163314620012375760405162461bcd60e51b8152600401620003fb9062001dde565b600080546001600160a01b0319166001600160a01b0392909216919091179055565b600160205260009081526040902080548190620012769062001b62565b80601f0160208091040260200160405190810160405280929190818152602001828054620012a49062001b62565b8015620012f55780601f10620012c957610100808354040283529160200191620012f5565b820191906000526020600020905b815481529060010190602001808311620012d757829003601f168201915b5050505050908060010154905082565b6001600160a01b0381166000908152600360209081526040918290208054835181840281018401909452808452606093928301828280156200137157602002820191906000526020600020905b81546001600160a01b0316815260019091019060200180831162001352575b50505050509050919050565b6004546001600160a01b03163314620013aa5760405162461bcd60e51b8152600401620003fb9062001dde565b33604051620013b990620016d1565b6001600160a01b039091168152602001604051809103906000f080158015620013e6573d6000803e3d6000fd5b50600080546001600160a01b0319166001600160a01b0392909216919091179055565b6000600283836040516020016200142292919062001cf5565b60408051601f19818403018152908290526200143e9162001d28565b602060405180830381855afa1580156200145c573d6000803e3d6000fd5b5050506040513d601f19601f8201168201806040525081019062001481919062001d46565b90505b92915050565b3360008181526002602052604090208054620014a69062001b62565b9050600003620014ca5760405162461bcd60e51b8152600401620003fb9062001cbe565b6001600160a01b038216600090815260016020819052604090912001548290600214806200151457506001600160a01b038116600090815260016020819052604090912001546003145b620015625760405162461bcd60e51b815260206004820152601c60248201527f5061727469636970616e74206973206e6f7420612074656163686572000000006044820152606401620003fb565b6001600160a01b038085166000908152600360209081526040808320938716835260019093019052205460ff1615620015d65760405162461bcd60e51b815260206004820152601560248201527415195858da195c88185b1c9958591e481859191959605a1b6044820152606401620003fb565b50506001600160a01b03918216600090815260036020908152604080832080546001808201835582865284862090910180546001600160a01b03191696909716958617909655938352928401905220805460ff19169091179055565b60008160405160200162001647919062001d28565b604051602081830303815290604052805190602001208360405160200162001670919062001d28565b6040516020818303038152906040528051906020012014905092915050565b5080546200169d9062001b62565b6000825580601f10620016ae575050565b601f016020900490600052602060002090810190620016ce9190620016df565b50565b6119db8062001f0083390190565b5b80821115620016f65760008155600101620016e0565b5090565b634e487b7160e01b600052604160045260246000fd5b600082601f8301126200172257600080fd5b813567ffffffffffffffff80821115620017405762001740620016fa565b604051601f8301601f19908116603f011681019082821181831017156200176b576200176b620016fa565b816040528381528660208588010111156200178557600080fd5b836020870160208301376000602085830101528094505050505092915050565b80356001600160a01b0381168114620017bd57600080fd5b919050565b60008060408385031215620017d657600080fd5b823567ffffffffffffffff811115620017ee57600080fd5b620017fc8582860162001710565b9250506200180d60208401620017a5565b90509250929050565b600080604083850312156200182a57600080fd5b823567ffffffffffffffff808211156200184357600080fd5b620018518683870162001710565b935060208501359150808211156200186857600080fd5b50620018778582860162001710565b9150509250929050565b6000806000606084860312156200189757600080fd5b833567ffffffffffffffff811115620018af57600080fd5b620018bd8682870162001710565b935050620018ce60208501620017a5565b9150604084013590509250925092565b600080600060608486031215620018f457600080fd5b833592506200190660208501620017a5565b91506200191660408501620017a5565b90509250925092565b6000602082840312156200193257600080fd5b6200148182620017a5565b60005b838110156200195a57818101518382015260200162001940565b50506000910152565b600081518084526200197d8160208601602086016200193d565b601f01601f19169290920160200192915050565b60208152600062001481602083018462001963565b803560ff81168114620017bd57600080fd5b803561ffff81168114620017bd57600080fd5b600080600080600060a08688031215620019e457600080fd5b620019ef86620017a5565b9450602086013567ffffffffffffffff8082111562001a0d57600080fd5b62001a1b89838a0162001710565b9550604088013591508082111562001a3257600080fd5b5062001a418882890162001710565b93505062001a5260608701620019a6565b915062001a6260808701620019b8565b90509295509295909350565b60008060006060848603121562001a8457600080fd5b8335925062001a9660208501620019a6565b91506200191660408501620019b8565b60006020828403121562001ab957600080fd5b5035919050565b60408152600062001ad5604083018562001963565b90508260208301529392505050565b6020808252825182820181905260009190848201906040850190845b8181101562001b275783516001600160a01b03168352928401929184019160010162001b00565b50909695505050505050565b6000806040838503121562001b4757600080fd5b62001b5283620017a5565b91506200180d60208401620017a5565b600181811c9082168062001b7757607f821691505b60208210810362001b9857634e487b7160e01b600052602260045260246000fd5b50919050565b601f82111562001bec57600081815260208120601f850160051c8101602086101562001bc75750805b601f850160051c820191505b8181101562001be85782815560010162001bd3565b5050505b505050565b815167ffffffffffffffff81111562001c0e5762001c0e620016fa565b62001c268162001c1f845462001b62565b8462001b9e565b602080601f83116001811462001c5e576000841562001c455750858301515b600019600386901b1c1916600185901b17855562001be8565b600085815260208120601f198616915b8281101562001c8f5788860151825594840194600190910190840162001c6e565b508582101562001cae5787850151600019600388901b60f8161c191681555b5050505050600190811b01905550565b60208082526019908201527f556e697665727369747920646f6573206e6f7420657869737400000000000000604082015260600190565b6000835162001d098184602088016200193d565b83519083019062001d1f8183602088016200193d565b01949350505050565b6000825162001d3c8184602087016200193d565b9190910192915050565b60006020828403121562001d5957600080fd5b5051919050565b6020808252601a908201527f5061727469636970616e7420646f6573206e6f74206578697374000000000000604082015260600190565b60208082526027908201527f5061727469636970616e74206973206e6f7420612064656772656520436f6f726040820152663234b730ba37b960c91b606082015260800190565b6020808252601690820152752737ba103a34329031b7b73a3930b1ba1037bbb732b960511b604082015260600190565b6001600160a01b0385811682528416602082015260806040820181905260009062001e3c9083018562001963565b828103606084015262001e50818562001963565b979650505050505050565b634e487b7160e01b600052603260045260246000fd5b634e487b7160e01b600052601160045260246000fd5b808202811582820484141762001484576200148462001e71565b8082018082111562001484576200148462001e71565b60006001820162001ecc5762001ecc62001e71565b5060010190565b61060f60f31b81526000825162001ef28160028501602087016200193d565b919091016002019291505056fe60806040523480156200001157600080fd5b50604051620019db380380620019db83398101604081905262000034916200012c565b8060405180604001604052806005815260200164135a53919560da1b815250604051806040016040528060048152602001631353919560e21b815250816000908162000081919062000203565b50600162000090828262000203565b5050506001600160a01b038116620000c257604051631e4fbdf760e01b81526000600482015260240160405180910390fd5b620000cd81620000da565b50506000600755620002cf565b600680546001600160a01b038381166001600160a01b0319831681179093556040519116919082907f8be0079c531659141344cd1fd0a4f28419497f9722a3daafe3b4186f6b6457e090600090a35050565b6000602082840312156200013f57600080fd5b81516001600160a01b03811681146200015757600080fd5b9392505050565b634e487b7160e01b600052604160045260246000fd5b600181811c908216806200018957607f821691505b602082108103620001aa57634e487b7160e01b600052602260045260246000fd5b50919050565b601f821115620001fe57600081815260208120601f850160051c81016020861015620001d95750805b601f850160051c820191505b81811015620001fa57828155600101620001e5565b5050505b505050565b81516001600160401b038111156200021f576200021f6200015e565b620002378162000230845462000174565b84620001b0565b602080601f8311600181146200026f5760008415620002565750858301515b600019600386901b1c1916600185901b178555620001fa565b600085815260208120601f198616915b82811015620002a0578886015182559484019460019091019084016200027f565b5085821015620002bf5787850151600019600388901b60f8161c191681555b5050505050600190811b01905550565b6116fc80620002df6000396000f3fe608060405234801561001057600080fd5b506004361061012c5760003560e01c80636b11cec1116100ad578063a22cb46511610071578063a22cb465146102b0578063b88d4fde146102c3578063c87b56dd146102d6578063e985e9c5146102e9578063f2fde38b146102fc57600080fd5b80636b11cec11461026957806370a082311461027c578063715018a61461028f5780638da5cb5b1461029757806395d89b41146102a857600080fd5b806323b872dd116100f457806323b872dd146101cf5780632b57298b146101e2578063399159d91461023057806342842e0e146102435780636352211e1461025657600080fd5b806301ffc9a71461013157806306fdde0314610159578063081812fc1461016e578063095ea7b314610199578063222f3740146101ae575b600080fd5b61014461013f3660046110f6565b61030f565b60405190151581526020015b60405180910390f35b610161610361565b6040516101509190611163565b61018161017c366004611176565b6103f3565b6040516001600160a01b039091168152602001610150565b6101ac6101a73660046111ab565b61041c565b005b6101c16101bc366004611281565b61042b565b604051908152602001610150565b6101ac6101dd366004611306565b610502565b6102146101f0366004611176565b60009081526008602052604090206002015460ff81169161010090910461ffff1690565b6040805160ff909316835261ffff909116602083015201610150565b6101ac61023e366004611342565b61058d565b6101ac610251366004611306565b61070b565b610181610264366004611176565b61072b565b6101ac6102773660046113a0565b610736565b6101c161028a3660046113dc565b610741565b6101ac610789565b6006546001600160a01b0316610181565b61016161079d565b6101ac6102be3660046113f7565b6107ac565b6101ac6102d1366004611433565b6107b7565b6101616102e4366004611176565b6107cf565b6101446102f73660046114a3565b610844565b6101ac61030a3660046113dc565b610872565b60006001600160e01b031982166380ac58cd60e01b148061034057506001600160e01b03198216635b5e139f60e01b145b8061035b57506301ffc9a760e01b6001600160e01b03198316145b92915050565b606060008054610370906114d6565b80601f016020809104026020016040519081016040528092919081815260200182805461039c906114d6565b80156103e95780601f106103be576101008083540402835291602001916103e9565b820191906000526020600020905b8154815290600101906020018083116103cc57829003601f168201915b5050505050905090565b60006103fe826108b0565b506000828152600460205260409020546001600160a01b031661035b565b6104278282336108e9565b5050565b6000846001600160a01b03166104496006546001600160a01b031690565b6001600160a01b03161461049a5760405162461bcd60e51b81526020600482015260136024820152722737ba103a34329039bab832b91027bbb732b960691b60448201526064015b60405180910390fd5b600780549060006104aa83611510565b91905055506104bb846007546108f6565b60075460009081526008602052604090206104d6848261157d565b5060075460009081526008602052604090206001016104f5838261157d565b5050600754949350505050565b6001600160a01b03821661052c57604051633250574960e11b815260006004820152602401610491565b6000610539838333610910565b9050836001600160a01b0316816001600160a01b031614610587576040516364283d7b60e01b81526001600160a01b0380861660048301526024820184905282166044820152606401610491565b50505050565b60018260ff16101580156105a55750600c8260ff1611155b6105e15760405162461bcd60e51b815260206004820152600d60248201526c0d2dcecc2d8d2c840dadedce8d609b1b6044820152606401610491565b61076c8161ffff16101580156105fd57506108348161ffff1611155b6106385760405162461bcd60e51b815260206004820152600c60248201526b34b73b30b634b2103cb2b0b960a11b6044820152606401610491565b836001600160a01b031661064b8461072b565b6001600160a01b0316146106b85760405162461bcd60e51b815260206004820152602e60248201527f5468697320636f6f7264696e61746f7220646f6573206e6f742068617665207460448201526d3430ba103b30b634b230ba34b7b760911b6064820152608401610491565b60408051808201825260ff938416815261ffff92831660208083019182526000968752600890529190942093516002909401805491519092166101000262ffffff19909116939092169290921717905550565b610726838383604051806020016040528060008152506107b7565b505050565b600061035b826108b0565b610726828285610a09565b60006001600160a01b03821661076d576040516322718ad960e21b815260006004820152602401610491565b506001600160a01b031660009081526003602052604090205490565b610791610a24565b61079b6000610a51565b565b606060018054610370906114d6565b610427338383610aa3565b6107c2848484610502565b6105873385858585610b42565b60606107da826108b0565b5060006107f260408051602081019091526000815290565b90506000815111610812576040518060200160405280600081525061083d565b8061081c84610c6d565b60405160200161082d92919061163d565b6040516020818303038152906040525b9392505050565b6001600160a01b03918216600090815260056020908152604080832093909416825291909152205460ff1690565b61087a610a24565b6001600160a01b0381166108a457604051631e4fbdf760e01b815260006004820152602401610491565b6108ad81610a51565b50565b6000818152600260205260408120546001600160a01b03168061035b57604051637e27328960e01b815260048101849052602401610491565b6107268383836001610d00565b610427828260405180602001604052806000815250610e06565b6000828152600260205260408120546001600160a01b039081169083161561093d5761093d818486610e1e565b6001600160a01b0381161561097b5761095a600085600080610d00565b6001600160a01b038116600090815260036020526040902080546000190190555b6001600160a01b038516156109aa576001600160a01b0385166000908152600360205260409020805460010190555b60008481526002602052604080822080546001600160a01b0319166001600160a01b0389811691821790925591518793918516917fddf252ad1be2c89b69c2b068fc378daa952ba7f163c4a11628f55a4df523b3ef91a4949350505050565b61072683838360405180602001604052806000815250610e82565b6006546001600160a01b0316331461079b5760405163118cdaa760e01b8152336004820152602401610491565b600680546001600160a01b038381166001600160a01b0319831681179093556040519116919082907f8be0079c531659141344cd1fd0a4f28419497f9722a3daafe3b4186f6b6457e090600090a35050565b6001600160a01b038216610ad557604051630b61174360e31b81526001600160a01b0383166004820152602401610491565b6001600160a01b03838116600081815260056020908152604080832094871680845294825291829020805460ff191686151590811790915591519182527f17307eab39ab6107e8899845ad3d59bd9653f200f220920489ca2b5937696c31910160405180910390a3505050565b6001600160a01b0383163b15610c6657604051630a85bd0160e11b81526001600160a01b0384169063150b7a0290610b8490889088908790879060040161166c565b6020604051808303816000875af1925050508015610bbf575060408051601f3d908101601f19168201909252610bbc918101906116a9565b60015b610c28573d808015610bed576040519150601f19603f3d011682016040523d82523d6000602084013e610bf2565b606091505b508051600003610c2057604051633250574960e11b81526001600160a01b0385166004820152602401610491565b805181602001fd5b6001600160e01b03198116630a85bd0160e11b14610c6457604051633250574960e11b81526001600160a01b0385166004820152602401610491565b505b5050505050565b60606000610c7a83610e8d565b600101905060008167ffffffffffffffff811115610c9a57610c9a6111d5565b6040519080825280601f01601f191660200182016040528015610cc4576020820181803683370190505b5090508181016020015b600019016f181899199a1a9b1b9c1cb0b131b232b360811b600a86061a8153600a8504945084610cce57509392505050565b8080610d1457506001600160a01b03821615155b15610dd6576000610d24846108b0565b90506001600160a01b03831615801590610d505750826001600160a01b0316816001600160a01b031614155b8015610d635750610d618184610844565b155b15610d8c5760405163a9fbf51f60e01b81526001600160a01b0384166004820152602401610491565b8115610dd45783856001600160a01b0316826001600160a01b03167f8c5be1e5ebec7d5bd14f71427d1e84f3dd0314c0f7b2291e5b200ac8c7c3b92560405160405180910390a45b505b5050600090815260046020526040902080546001600160a01b0319166001600160a01b0392909216919091179055565b610e108383610f65565b610726336000858585610b42565b610e29838383610fca565b610726576001600160a01b038316610e5757604051637e27328960e01b815260048101829052602401610491565b60405163177e802f60e01b81526001600160a01b038316600482015260248101829052604401610491565b6107c2848484611030565b60008072184f03e93ff9f4daa797ed6e38ed64bf6a1f0160401b8310610ecc5772184f03e93ff9f4daa797ed6e38ed64bf6a1f0160401b830492506040015b6d04ee2d6d415b85acef81000000008310610ef8576d04ee2d6d415b85acef8100000000830492506020015b662386f26fc100008310610f1657662386f26fc10000830492506010015b6305f5e1008310610f2e576305f5e100830492506008015b6127108310610f4257612710830492506004015b60648310610f54576064830492506002015b600a831061035b5760010192915050565b6001600160a01b038216610f8f57604051633250574960e11b815260006004820152602401610491565b6000610f9d83836000610910565b90506001600160a01b03811615610726576040516339e3563760e11b815260006004820152602401610491565b60006001600160a01b038316158015906110285750826001600160a01b0316846001600160a01b0316148061100457506110048484610844565b8061102857506000828152600460205260409020546001600160a01b038481169116145b949350505050565b6001600160a01b03821661105a57604051633250574960e11b815260006004820152602401610491565b600061106883836000610910565b90506001600160a01b03811661109457604051637e27328960e01b815260048101839052602401610491565b836001600160a01b0316816001600160a01b031614610587576040516364283d7b60e01b81526001600160a01b0380861660048301526024820184905282166044820152606401610491565b6001600160e01b0319811681146108ad57600080fd5b60006020828403121561110857600080fd5b813561083d816110e0565b60005b8381101561112e578181015183820152602001611116565b50506000910152565b6000815180845261114f816020860160208601611113565b601f01601f19169290920160200192915050565b60208152600061083d6020830184611137565b60006020828403121561118857600080fd5b5035919050565b80356001600160a01b03811681146111a657600080fd5b919050565b600080604083850312156111be57600080fd5b6111c78361118f565b946020939093013593505050565b634e487b7160e01b600052604160045260246000fd5b600067ffffffffffffffff80841115611206576112066111d5565b604051601f8501601f19908116603f0116810190828211818310171561122e5761122e6111d5565b8160405280935085815286868601111561124757600080fd5b858560208301376000602087830101525050509392505050565b600082601f83011261127257600080fd5b61083d838335602085016111eb565b6000806000806080858703121561129757600080fd5b6112a08561118f565b93506112ae6020860161118f565b9250604085013567ffffffffffffffff808211156112cb57600080fd5b6112d788838901611261565b935060608701359150808211156112ed57600080fd5b506112fa87828801611261565b91505092959194509250565b60008060006060848603121561131b57600080fd5b6113248461118f565b92506113326020850161118f565b9150604084013590509250925092565b6000806000806080858703121561135857600080fd5b6113618561118f565b935060208501359250604085013560ff8116811461137e57600080fd5b9150606085013561ffff8116811461139557600080fd5b939692955090935050565b6000806000606084860312156113b557600080fd5b833592506113c56020850161118f565b91506113d36040850161118f565b90509250925092565b6000602082840312156113ee57600080fd5b61083d8261118f565b6000806040838503121561140a57600080fd5b6114138361118f565b91506020830135801515811461142857600080fd5b809150509250929050565b6000806000806080858703121561144957600080fd5b6114528561118f565b93506114606020860161118f565b925060408501359150606085013567ffffffffffffffff81111561148357600080fd5b8501601f8101871361149457600080fd5b6112fa878235602084016111eb565b600080604083850312156114b657600080fd5b6114bf8361118f565b91506114cd6020840161118f565b90509250929050565b600181811c908216806114ea57607f821691505b60208210810361150a57634e487b7160e01b600052602260045260246000fd5b50919050565b60006001820161153057634e487b7160e01b600052601160045260246000fd5b5060010190565b601f82111561072657600081815260208120601f850160051c8101602086101561155e5750805b601f850160051c820191505b81811015610c645782815560010161156a565b815167ffffffffffffffff811115611597576115976111d5565b6115ab816115a584546114d6565b84611537565b602080601f8311600181146115e057600084156115c85750858301515b600019600386901b1c1916600185901b178555610c64565b600085815260208120601f198616915b8281101561160f578886015182559484019460019091019084016115f0565b508582101561162d5787850151600019600388901b60f8161c191681555b5050505050600190811b01905550565b6000835161164f818460208801611113565b835190830190611663818360208801611113565b01949350505050565b6001600160a01b038581168252841660208201526040810183905260806060820181905260009061169f90830184611137565b9695505050505050565b6000602082840312156116bb57600080fd5b815161083d816110e056fea2646970667358221220b933e4cab9eb5fca68db1350cd6230830c6e923682ffffe2556b2f79d8a6806364736f6c63430008130033a2646970667358221220c25e145ecf9938f91f8b9d65785f3ed029a592b29caa60fbf8e0f65c667e684e64736f6c63430008130033",
  "immutableReferences": {},
  "source": "// SPDX-License-Identifier: MIT\npragma solidity ^0.8.19;\n\nimport \"./token.sol\";\ncontract tfg {\n    struct Transcript {\n        address[] teachers;\n        mapping(address => bool) teacherExists;\n        string hash;\n    }\n\n    struct Person {\n        string hash;\n        uint role; // 0:does not exists, 1:student, 2:course coordinator, 3:degree coordinator\n    }\n\n    MiNFT public validations;\n    mapping(address => Person) public personToHash;\n    mapping(address => string) public universityToHash;\n    mapping(address => Transcript) public studentToRecord;\n    address private _owner;\n\n    constructor() {\n        _owner = msg.sender;\n    }\n\n    modifier onlyOwner() {\n        require(msg.sender == _owner, \"Not the contract owner\");\n        _;\n    }\n\n    modifier participantExists(address participant) {\n        require(\n            personToHash[participant].role != 0,\n            \"Participant does not exist\"\n        );\n        _;\n    }\n\n    modifier participantNotExists(address participant) {\n        require(\n            personToHash[participant].role == 0,\n            \"Participant does not exist\"\n        );\n        _;\n    }\n\n    modifier participantIsStudent(address participant) {\n        require(\n            personToHash[participant].role == 1,\n            \"Participant is not a student\"\n        );\n        _;\n    }\n    /*\n    modifier participantIsCourseCoord(address participant) {\n        require(\n            personToHash[participant].role == 2,\n            \"Participant is not a course Coordinator\"\n        );\n        _;\n    }\n*/\n    modifier participantIsDegreeCoord(address participant) {\n        require(\n            personToHash[participant].role == 3,\n            \"Participant is not a degree Coordinator\"\n        );\n        _;\n    }\n\n    modifier participantIsTeacher(address participant) {\n        require(\n            personToHash[participant].role == 2 ||\n                personToHash[participant].role == 3,\n            \"Participant is not a teacher\"\n        );\n        _;\n    }\n\n    modifier universityExists(address participant) {\n        require(\n            bytes(universityToHash[participant]).length != 0,\n            \"University does not exist\"\n        );\n        _;\n    }\n\n    modifier universityNotExists(address participant) {\n        require(\n            bytes(universityToHash[participant]).length == 0,\n            \"University already exists\"\n        );\n        _;\n    }\n\n    modifier doesTeacherHaveAccess(address student, address teacher) {\n        require(\n            studentToRecord[student].teacherExists[teacher] == true,\n            \"Coordinator can not modify this transcript\"\n        );\n        _;\n    }\n\n    event ParticipantAdded(string message);\n\n    function addUniversity(\n        string memory hash,\n        address participant\n    ) public onlyOwner universityNotExists(participant) {\n        universityToHash[participant] = hash;\n        emit ParticipantAdded(\n            \"Se ha anadido una nueva universidad correctamente\"\n        );\n    }\n\n    function addParticipant(\n        string memory _hash,\n        address participant,\n        uint _role\n    ) public universityExists(msg.sender) participantNotExists(participant) {\n        personToHash[participant].hash = _hash;\n        personToHash[participant].role = _role;\n        emit ParticipantAdded(\n            \"Se ha anadido un nuevo participante correctamente\"\n        );\n    }\n\n    function calculateSHA256(\n        string memory user,\n        string memory passwd\n    ) public pure returns (bytes32) {\n        return sha256(abi.encodePacked(user, passwd));\n    }\n\n    /*   function stringToBytes32(string memory s) public pure returns (bytes32) {\n        require(bytes(s).length == 66, \"Invalid input length\"); // \"0x\" + 64 hex chars\n\n        bytes memory b = bytes(s);\n        bytes32 result;\n\n        for (uint i = 0; i < 32; i++) {\n            result |=\n                bytes32(\n                    uint256(hexCharToByte(b[2 + i * 2])) *\n                        16 +\n                        uint256(hexCharToByte(b[3 + i * 2]))\n                ) >>\n                (i * 8);\n        }\n        return result;\n    }\n\n    function hexCharToByte(bytes1 c) private pure returns (uint8) {\n        if (c >= \"0\" && c <= \"9\") {\n            return uint8(c) - 48;\n        } else if (c >= \"a\" && c <= \"f\") {\n            return uint8(c) - 87;\n        } else if (c >= \"A\" && c <= \"F\") {\n            return uint8(c) - 55;\n        } else {\n            revert(\"Invalid hex character\");\n        }\n    }\n*/\n    function bytes32ToString(\n        bytes32 _bytes32\n    ) public pure returns (string memory) {\n        bytes memory s = new bytes(64);\n        bytes memory hexChars = \"0123456789abcdef\";\n\n        for (uint i = 0; i < 32; i++) {\n            s[i * 2] = hexChars[uint8(_bytes32[i]) >> 4]; // High nibble\n            s[i * 2 + 1] = hexChars[uint8(_bytes32[i]) & 0x0f]; // Low nibble\n        }\n\n        return string(abi.encodePacked(\"0x\", s));\n    }\n\n    /*  function test() public view returns (bytes32) {\n        return stringToBytes32(personToHash[msg.sender].hash);\n    }\n*/\n    function compareStrings(\n        string memory a,\n        string memory b\n    ) private pure returns (bool) {\n        return keccak256(abi.encodePacked(a)) == keccak256(abi.encodePacked(b));\n    }\n    function consultParticipant(\n        string memory user,\n        string memory passwd\n    ) public view participantExists(msg.sender) returns (bool) {\n        bytes32 generatedHash = sha256(abi.encodePacked(user, passwd));\n        string memory storedHash = bytes32ToString(generatedHash);\n\n        return compareStrings(storedHash, personToHash[msg.sender].hash);\n    }\n\n    function consultUniversity(\n        string memory user,\n        string memory passwd\n    ) public view universityExists(msg.sender) returns (bool) {\n        bytes32 generatedHash = sha256(abi.encodePacked(user, passwd));\n        string memory storedHash = bytes32ToString(generatedHash);\n\n        return compareStrings(storedHash, universityToHash[msg.sender]); // Convertir string a bytes32\n\n        /* return\n            keccak256(abi.encodePacked(universityToHash[msg.sender])) ==\n            generatedHash;\n\n        keccak256(abi.encodePacked(personToHash[msg.sender])) ==\n            keccak256(abi.encodePacked(user, passwd, \"random_salt_value\"));*/\n    }\n\n    function addTeacherToTranscript(\n        address student,\n        address profesor\n    ) public universityExists(msg.sender) participantIsTeacher(profesor) {\n        require(\n            !studentToRecord[student].teacherExists[profesor],\n            \"Teacher already added\"\n        );\n        studentToRecord[student].teachers.push(profesor);\n        studentToRecord[student].teacherExists[profesor] = true;\n    }\n\n    function getAllowedTeachers(\n        address student\n    ) public view returns (address[] memory) {\n        return studentToRecord[student].teachers;\n    }\n\n    function updateMark(\n        string memory hash,\n        address participant\n    )\n        public\n        participantIsTeacher(msg.sender)\n        participantIsStudent(participant)\n        doesTeacherHaveAccess(participant, msg.sender)\n    {\n        studentToRecord[participant].hash = hash;\n    }\n\n    function updateTranscript(\n        string memory hash,\n        address participant\n    ) public universityExists(msg.sender) participantIsStudent(participant) {\n        studentToRecord[participant].hash = hash;\n    }\n\n    function removeParticipant(\n        address participant\n    ) public onlyOwner participantExists(participant) {\n        delete personToHash[participant];\n    }\n\n    function createValidation() public onlyOwner {\n        validations = new MiNFT(msg.sender);\n    }\n\n    function setValidation(address tk) public onlyOwner {\n        validations = MiNFT(tk);\n    }\n\n    function addValidation(\n        address degreeCoord,\n        string memory srcCourse,\n        string memory dstCourse,\n        uint8 month,\n        uint16 year\n    ) public onlyOwner participantIsDegreeCoord(degreeCoord) returns (uint) {\n        uint id = validations.mintNFT(\n            msg.sender,\n            degreeCoord,\n            srcCourse,\n            dstCourse\n        );\n\n        validations.setValidityPeriod(degreeCoord, id, month, year);\n        return id;\n    }\n\n    function updateValidation(\n        uint id,\n        uint8 month,\n        uint16 year\n    ) public participantIsDegreeCoord(msg.sender) {\n        validations.setValidityPeriod(msg.sender, id, month, year);\n    }\n\n    function transferValidation(\n        uint id,\n        address origin,\n        address destination\n    )\n        public\n        universityExists(msg.sender)\n        participantIsDegreeCoord(origin)\n        participantIsDegreeCoord(destination)\n    {\n        validations.transferValidity(id, origin, destination);\n    }\n}\n",
  "sourcePath": "/app/contracts/tfg.sol",
  "compiler": {
    "name": "solc",
    "version": "0.8.19+commit.7dd6d404.Emscripten.clang"
  },
  "schemaVersion": "3.4.16",
  "updatedAt": "2025-02-20T16:12:17.523Z",
  "networkType": "ethereum",
  "devdoc": {
    "kind": "dev",
    "methods": {},
    "version": 1
  },
  "userdoc": {
    "kind": "user",
    "methods": {},
    "version": 1
  }
}